{
	"SimpleStorage.sol": {
		"SimpleStorage": {
			"abi": [
				{
					"inputs": [
						{
							"internalType": "uint256",
							"name": "_number",
							"type": "uint256"
						},
						{
							"internalType": "string",
							"name": "_name",
							"type": "string"
						}
					],
					"name": "addPerson",
					"outputs": [],
					"stateMutability": "nonpayable",
					"type": "function"
				},
				{
					"inputs": [
						{
							"internalType": "string",
							"name": "",
							"type": "string"
						}
					],
					"name": "nameToNumber",
					"outputs": [
						{
							"internalType": "uint256",
							"name": "",
							"type": "uint256"
						}
					],
					"stateMutability": "view",
					"type": "function"
				},
				{
					"inputs": [],
					"name": "retrive",
					"outputs": [
						{
							"internalType": "uint256",
							"name": "",
							"type": "uint256"
						}
					],
					"stateMutability": "view",
					"type": "function"
				},
				{
					"inputs": [
						{
							"internalType": "uint256",
							"name": "_favoriteNumber",
							"type": "uint256"
						}
					],
					"name": "store",
					"outputs": [],
					"stateMutability": "nonpayable",
					"type": "function"
				}
			],
			"devdoc": {
				"kind": "dev",
				"methods": {},
				"version": 1
			},
			"evm": {
				"assembly": "    /* \"SimpleStorage.sol\":60:661  contract SimpleStorage {... */\n  mstore(0x40, 0x80)\n  callvalue\n  dup1\n  iszero\n  tag_1\n  jumpi\n  0x00\n  dup1\n  revert\ntag_1:\n  pop\n  dataSize(sub_0)\n  dup1\n  dataOffset(sub_0)\n  0x00\n  codecopy\n  0x00\n  return\nstop\n\nsub_0: assembly {\n        /* \"SimpleStorage.sol\":60:661  contract SimpleStorage {... */\n      mstore(0x40, 0x80)\n      callvalue\n      dup1\n      iszero\n      tag_1\n      jumpi\n      0x00\n      dup1\n      revert\n    tag_1:\n      pop\n      jumpi(tag_2, lt(calldatasize, 0x04))\n      shr(0xe0, calldataload(0x00))\n      dup1\n      0x2fae4ffd\n      eq\n      tag_3\n      jumpi\n      dup1\n      0x6057361d\n      eq\n      tag_4\n      jumpi\n      dup1\n      0xa6b7fc5b\n      eq\n      tag_5\n      jumpi\n      dup1\n      0xbc832d4e\n      eq\n      tag_6\n      jumpi\n    tag_2:\n      0x00\n      dup1\n      revert\n        /* \"SimpleStorage.sol\":226:272  mapping(string => uint256) public nameToNumber */\n    tag_3:\n      tag_7\n      0x04\n      dup1\n      calldatasize\n      sub\n      dup2\n      add\n      swap1\n      tag_8\n      swap2\n      swap1\n      tag_9\n      jump\t// in\n    tag_8:\n      tag_10\n      jump\t// in\n    tag_7:\n      mload(0x40)\n      tag_11\n      swap2\n      swap1\n      tag_12\n      jump\t// in\n    tag_11:\n      mload(0x40)\n      dup1\n      swap2\n      sub\n      swap1\n      return\n        /* \"SimpleStorage.sol\":281:387  function store(uint256 _favoriteNumber) virtual public {... */\n    tag_4:\n      tag_13\n      0x04\n      dup1\n      calldatasize\n      sub\n      dup2\n      add\n      swap1\n      tag_14\n      swap2\n      swap1\n      tag_15\n      jump\t// in\n    tag_14:\n      tag_16\n      jump\t// in\n    tag_13:\n      stop\n        /* \"SimpleStorage.sol\":395:482  function retrive() public view returns(uint256){... */\n    tag_5:\n      tag_17\n      tag_18\n      jump\t// in\n    tag_17:\n      mload(0x40)\n      tag_19\n      swap2\n      swap1\n      tag_12\n      jump\t// in\n    tag_19:\n      mload(0x40)\n      dup1\n      swap2\n      sub\n      swap1\n      return\n        /* \"SimpleStorage.sol\":494:658  function addPerson(uint256 _number, string calldata _name) public {... */\n    tag_6:\n      tag_20\n      0x04\n      dup1\n      calldatasize\n      sub\n      dup2\n      add\n      swap1\n      tag_21\n      swap2\n      swap1\n      tag_22\n      jump\t// in\n    tag_21:\n      tag_23\n      jump\t// in\n    tag_20:\n      stop\n        /* \"SimpleStorage.sol\":226:272  mapping(string => uint256) public nameToNumber */\n    tag_10:\n      0x02\n      dup2\n      dup1\n      mload\n      0x20\n      dup2\n      add\n      dup3\n      add\n      dup1\n      mload\n      dup5\n      dup3\n      mstore\n      0x20\n      dup4\n      add\n      0x20\n      dup6\n      add\n      keccak256\n      dup2\n      dup4\n      mstore\n      dup1\n      swap6\n      pop\n      pop\n      pop\n      pop\n      pop\n      pop\n      0x00\n      swap2\n      pop\n      swap1\n      pop\n      sload\n      dup2\n      jump\t// out\n        /* \"SimpleStorage.sol\":281:387  function store(uint256 _favoriteNumber) virtual public {... */\n    tag_16:\n        /* \"SimpleStorage.sol\":364:379  _favoriteNumber */\n      dup1\n        /* \"SimpleStorage.sol\":347:361  favoriteNumber */\n      0x00\n        /* \"SimpleStorage.sol\":347:379  favoriteNumber = _favoriteNumber */\n      dup2\n      swap1\n      sstore\n      pop\n        /* \"SimpleStorage.sol\":281:387  function store(uint256 _favoriteNumber) virtual public {... */\n      pop\n      jump\t// out\n        /* \"SimpleStorage.sol\":395:482  function retrive() public view returns(uint256){... */\n    tag_18:\n        /* \"SimpleStorage.sol\":434:441  uint256 */\n      0x00\n        /* \"SimpleStorage.sol\":460:474  favoriteNumber */\n      dup1\n      sload\n        /* \"SimpleStorage.sol\":453:474  return favoriteNumber */\n      swap1\n      pop\n        /* \"SimpleStorage.sol\":395:482  function retrive() public view returns(uint256){... */\n      swap1\n      jump\t// out\n        /* \"SimpleStorage.sol\":494:658  function addPerson(uint256 _number, string calldata _name) public {... */\n    tag_23:\n        /* \"SimpleStorage.sol\":571:581  listPerson */\n      0x01\n        /* \"SimpleStorage.sol\":587:609  Person(_number, _name) */\n      mload(0x40)\n      dup1\n      0x40\n      add\n      0x40\n      mstore\n      dup1\n        /* \"SimpleStorage.sol\":594:601  _number */\n      dup6\n        /* \"SimpleStorage.sol\":587:609  Person(_number, _name) */\n      dup2\n      mstore\n      0x20\n      add\n        /* \"SimpleStorage.sol\":603:608  _name */\n      dup5\n      dup5\n        /* \"SimpleStorage.sol\":587:609  Person(_number, _name) */\n      dup1\n      dup1\n      0x1f\n      add\n      0x20\n      dup1\n      swap2\n      div\n      mul\n      0x20\n      add\n      mload(0x40)\n      swap1\n      dup2\n      add\n      0x40\n      mstore\n      dup1\n      swap4\n      swap3\n      swap2\n      swap1\n      dup2\n      dup2\n      mstore\n      0x20\n      add\n      dup4\n      dup4\n      dup1\n      dup3\n      dup5\n      calldatacopy\n      0x00\n      dup2\n      dup5\n      add\n      mstore\n      not(0x1f)\n      0x1f\n      dup3\n      add\n      and\n      swap1\n      pop\n      dup1\n      dup4\n      add\n      swap3\n      pop\n      pop\n      pop\n      pop\n      pop\n      pop\n      pop\n      dup2\n      mstore\n      pop\n        /* \"SimpleStorage.sol\":571:610  listPerson.push(Person(_number, _name)) */\n      swap1\n      dup1\n      0x01\n      dup2\n      sload\n      add\n      dup1\n      dup3\n      sstore\n      dup1\n      swap2\n      pop\n      pop\n      0x01\n      swap1\n      sub\n      swap1\n      0x00\n      mstore\n      keccak256(0x00, 0x20)\n      swap1\n      0x02\n      mul\n      add\n      0x00\n      swap1\n      swap2\n      swap1\n      swap2\n      swap1\n      swap2\n      pop\n      0x00\n      dup3\n      add\n      mload\n      dup2\n      0x00\n      add\n      sstore\n      0x20\n      dup3\n      add\n      mload\n      dup2\n      0x01\n      add\n      swap1\n      dup2\n      tag_28\n      swap2\n      swap1\n      tag_29\n      jump\t// in\n    tag_28:\n      pop\n      pop\n      pop\n        /* \"SimpleStorage.sol\":643:650  _number */\n      dup3\n        /* \"SimpleStorage.sol\":621:633  nameToNumber */\n      0x02\n        /* \"SimpleStorage.sol\":634:639  _name */\n      dup4\n      dup4\n        /* \"SimpleStorage.sol\":621:640  nameToNumber[_name] */\n      mload(0x40)\n      tag_30\n      swap3\n      swap2\n      swap1\n      tag_31\n      jump\t// in\n    tag_30:\n      swap1\n      dup2\n      mstore\n      0x20\n      add\n      mload(0x40)\n      dup1\n      swap2\n      sub\n      swap1\n      keccak256\n        /* \"SimpleStorage.sol\":621:650  nameToNumber[_name] = _number */\n      dup2\n      swap1\n      sstore\n      pop\n        /* \"SimpleStorage.sol\":494:658  function addPerson(uint256 _number, string calldata _name) public {... */\n      pop\n      pop\n      pop\n      jump\t// out\n        /* \"#utility.yul\":7:82   */\n    tag_32:\n        /* \"#utility.yul\":40:46   */\n      0x00\n        /* \"#utility.yul\":73:75   */\n      0x40\n        /* \"#utility.yul\":67:76   */\n      mload\n        /* \"#utility.yul\":57:76   */\n      swap1\n      pop\n        /* \"#utility.yul\":7:82   */\n      swap1\n      jump\t// out\n        /* \"#utility.yul\":88:205   */\n    tag_33:\n        /* \"#utility.yul\":197:198   */\n      0x00\n        /* \"#utility.yul\":194:195   */\n      dup1\n        /* \"#utility.yul\":187:199   */\n      revert\n        /* \"#utility.yul\":211:328   */\n    tag_34:\n        /* \"#utility.yul\":320:321   */\n      0x00\n        /* \"#utility.yul\":317:318   */\n      dup1\n        /* \"#utility.yul\":310:322   */\n      revert\n        /* \"#utility.yul\":334:451   */\n    tag_35:\n        /* \"#utility.yul\":443:444   */\n      0x00\n        /* \"#utility.yul\":440:441   */\n      dup1\n        /* \"#utility.yul\":433:445   */\n      revert\n        /* \"#utility.yul\":457:574   */\n    tag_36:\n        /* \"#utility.yul\":566:567   */\n      0x00\n        /* \"#utility.yul\":563:564   */\n      dup1\n        /* \"#utility.yul\":556:568   */\n      revert\n        /* \"#utility.yul\":580:682   */\n    tag_37:\n        /* \"#utility.yul\":621:627   */\n      0x00\n        /* \"#utility.yul\":672:674   */\n      0x1f\n        /* \"#utility.yul\":668:675   */\n      not\n        /* \"#utility.yul\":663:665   */\n      0x1f\n        /* \"#utility.yul\":656:661   */\n      dup4\n        /* \"#utility.yul\":652:666   */\n      add\n        /* \"#utility.yul\":648:676   */\n      and\n        /* \"#utility.yul\":638:676   */\n      swap1\n      pop\n        /* \"#utility.yul\":580:682   */\n      swap2\n      swap1\n      pop\n      jump\t// out\n        /* \"#utility.yul\":688:868   */\n    tag_38:\n        /* \"#utility.yul\":736:813   */\n      0x4e487b7100000000000000000000000000000000000000000000000000000000\n        /* \"#utility.yul\":733:734   */\n      0x00\n        /* \"#utility.yul\":726:814   */\n      mstore\n        /* \"#utility.yul\":833:837   */\n      0x41\n        /* \"#utility.yul\":830:831   */\n      0x04\n        /* \"#utility.yul\":823:838   */\n      mstore\n        /* \"#utility.yul\":857:861   */\n      0x24\n        /* \"#utility.yul\":854:855   */\n      0x00\n        /* \"#utility.yul\":847:862   */\n      revert\n        /* \"#utility.yul\":874:1155   */\n    tag_39:\n        /* \"#utility.yul\":957:984   */\n      tag_81\n        /* \"#utility.yul\":979:983   */\n      dup3\n        /* \"#utility.yul\":957:984   */\n      tag_37\n      jump\t// in\n    tag_81:\n        /* \"#utility.yul\":949:955   */\n      dup2\n        /* \"#utility.yul\":945:985   */\n      add\n        /* \"#utility.yul\":1087:1093   */\n      dup2\n        /* \"#utility.yul\":1075:1085   */\n      dup2\n        /* \"#utility.yul\":1072:1094   */\n      lt\n        /* \"#utility.yul\":1051:1069   */\n      0xffffffffffffffff\n        /* \"#utility.yul\":1039:1049   */\n      dup3\n        /* \"#utility.yul\":1036:1070   */\n      gt\n        /* \"#utility.yul\":1033:1095   */\n      or\n        /* \"#utility.yul\":1030:1118   */\n      iszero\n      tag_82\n      jumpi\n        /* \"#utility.yul\":1098:1116   */\n      tag_83\n      tag_38\n      jump\t// in\n    tag_83:\n        /* \"#utility.yul\":1030:1118   */\n    tag_82:\n        /* \"#utility.yul\":1138:1148   */\n      dup1\n        /* \"#utility.yul\":1134:1136   */\n      0x40\n        /* \"#utility.yul\":1127:1149   */\n      mstore\n        /* \"#utility.yul\":917:1155   */\n      pop\n        /* \"#utility.yul\":874:1155   */\n      pop\n      pop\n      jump\t// out\n        /* \"#utility.yul\":1161:1290   */\n    tag_40:\n        /* \"#utility.yul\":1195:1201   */\n      0x00\n        /* \"#utility.yul\":1222:1242   */\n      tag_85\n      tag_32\n      jump\t// in\n    tag_85:\n        /* \"#utility.yul\":1212:1242   */\n      swap1\n      pop\n        /* \"#utility.yul\":1251:1284   */\n      tag_86\n        /* \"#utility.yul\":1279:1283   */\n      dup3\n        /* \"#utility.yul\":1271:1277   */\n      dup3\n        /* \"#utility.yul\":1251:1284   */\n      tag_39\n      jump\t// in\n    tag_86:\n        /* \"#utility.yul\":1161:1290   */\n      swap2\n      swap1\n      pop\n      jump\t// out\n        /* \"#utility.yul\":1296:1604   */\n    tag_41:\n        /* \"#utility.yul\":1358:1362   */\n      0x00\n        /* \"#utility.yul\":1448:1466   */\n      0xffffffffffffffff\n        /* \"#utility.yul\":1440:1446   */\n      dup3\n        /* \"#utility.yul\":1437:1467   */\n      gt\n        /* \"#utility.yul\":1434:1490   */\n      iszero\n      tag_88\n      jumpi\n        /* \"#utility.yul\":1470:1488   */\n      tag_89\n      tag_38\n      jump\t// in\n    tag_89:\n        /* \"#utility.yul\":1434:1490   */\n    tag_88:\n        /* \"#utility.yul\":1508:1537   */\n      tag_90\n        /* \"#utility.yul\":1530:1536   */\n      dup3\n        /* \"#utility.yul\":1508:1537   */\n      tag_37\n      jump\t// in\n    tag_90:\n        /* \"#utility.yul\":1500:1537   */\n      swap1\n      pop\n        /* \"#utility.yul\":1592:1596   */\n      0x20\n        /* \"#utility.yul\":1586:1590   */\n      dup2\n        /* \"#utility.yul\":1582:1597   */\n      add\n        /* \"#utility.yul\":1574:1597   */\n      swap1\n      pop\n        /* \"#utility.yul\":1296:1604   */\n      swap2\n      swap1\n      pop\n      jump\t// out\n        /* \"#utility.yul\":1610:1756   */\n    tag_42:\n        /* \"#utility.yul\":1707:1713   */\n      dup3\n        /* \"#utility.yul\":1702:1705   */\n      dup2\n        /* \"#utility.yul\":1697:1700   */\n      dup4\n        /* \"#utility.yul\":1684:1714   */\n      calldatacopy\n        /* \"#utility.yul\":1748:1749   */\n      0x00\n        /* \"#utility.yul\":1739:1745   */\n      dup4\n        /* \"#utility.yul\":1734:1737   */\n      dup4\n        /* \"#utility.yul\":1730:1746   */\n      add\n        /* \"#utility.yul\":1723:1750   */\n      mstore\n        /* \"#utility.yul\":1610:1756   */\n      pop\n      pop\n      pop\n      jump\t// out\n        /* \"#utility.yul\":1762:2187   */\n    tag_43:\n        /* \"#utility.yul\":1840:1845   */\n      0x00\n        /* \"#utility.yul\":1865:1931   */\n      tag_93\n        /* \"#utility.yul\":1881:1930   */\n      tag_94\n        /* \"#utility.yul\":1923:1929   */\n      dup5\n        /* \"#utility.yul\":1881:1930   */\n      tag_41\n      jump\t// in\n    tag_94:\n        /* \"#utility.yul\":1865:1931   */\n      tag_40\n      jump\t// in\n    tag_93:\n        /* \"#utility.yul\":1856:1931   */\n      swap1\n      pop\n        /* \"#utility.yul\":1954:1960   */\n      dup3\n        /* \"#utility.yul\":1947:1952   */\n      dup2\n        /* \"#utility.yul\":1940:1961   */\n      mstore\n        /* \"#utility.yul\":1992:1996   */\n      0x20\n        /* \"#utility.yul\":1985:1990   */\n      dup2\n        /* \"#utility.yul\":1981:1997   */\n      add\n        /* \"#utility.yul\":2030:2033   */\n      dup5\n        /* \"#utility.yul\":2021:2027   */\n      dup5\n        /* \"#utility.yul\":2016:2019   */\n      dup5\n        /* \"#utility.yul\":2012:2028   */\n      add\n        /* \"#utility.yul\":2009:2034   */\n      gt\n        /* \"#utility.yul\":2006:2118   */\n      iszero\n      tag_95\n      jumpi\n        /* \"#utility.yul\":2037:2116   */\n      tag_96\n      tag_36\n      jump\t// in\n    tag_96:\n        /* \"#utility.yul\":2006:2118   */\n    tag_95:\n        /* \"#utility.yul\":2127:2181   */\n      tag_97\n        /* \"#utility.yul\":2174:2180   */\n      dup5\n        /* \"#utility.yul\":2169:2172   */\n      dup3\n        /* \"#utility.yul\":2164:2167   */\n      dup6\n        /* \"#utility.yul\":2127:2181   */\n      tag_42\n      jump\t// in\n    tag_97:\n        /* \"#utility.yul\":1846:2187   */\n      pop\n        /* \"#utility.yul\":1762:2187   */\n      swap4\n      swap3\n      pop\n      pop\n      pop\n      jump\t// out\n        /* \"#utility.yul\":2207:2547   */\n    tag_44:\n        /* \"#utility.yul\":2263:2268   */\n      0x00\n        /* \"#utility.yul\":2312:2315   */\n      dup3\n        /* \"#utility.yul\":2305:2309   */\n      0x1f\n        /* \"#utility.yul\":2297:2303   */\n      dup4\n        /* \"#utility.yul\":2293:2310   */\n      add\n        /* \"#utility.yul\":2289:2316   */\n      slt\n        /* \"#utility.yul\":2279:2401   */\n      tag_99\n      jumpi\n        /* \"#utility.yul\":2320:2399   */\n      tag_100\n      tag_35\n      jump\t// in\n    tag_100:\n        /* \"#utility.yul\":2279:2401   */\n    tag_99:\n        /* \"#utility.yul\":2437:2443   */\n      dup2\n        /* \"#utility.yul\":2424:2444   */\n      calldataload\n        /* \"#utility.yul\":2462:2541   */\n      tag_101\n        /* \"#utility.yul\":2537:2540   */\n      dup5\n        /* \"#utility.yul\":2529:2535   */\n      dup3\n        /* \"#utility.yul\":2522:2526   */\n      0x20\n        /* \"#utility.yul\":2514:2520   */\n      dup7\n        /* \"#utility.yul\":2510:2527   */\n      add\n        /* \"#utility.yul\":2462:2541   */\n      tag_43\n      jump\t// in\n    tag_101:\n        /* \"#utility.yul\":2453:2541   */\n      swap2\n      pop\n        /* \"#utility.yul\":2269:2547   */\n      pop\n        /* \"#utility.yul\":2207:2547   */\n      swap3\n      swap2\n      pop\n      pop\n      jump\t// out\n        /* \"#utility.yul\":2553:3062   */\n    tag_9:\n        /* \"#utility.yul\":2622:2628   */\n      0x00\n        /* \"#utility.yul\":2671:2673   */\n      0x20\n        /* \"#utility.yul\":2659:2668   */\n      dup3\n        /* \"#utility.yul\":2650:2657   */\n      dup5\n        /* \"#utility.yul\":2646:2669   */\n      sub\n        /* \"#utility.yul\":2642:2674   */\n      slt\n        /* \"#utility.yul\":2639:2758   */\n      iszero\n      tag_103\n      jumpi\n        /* \"#utility.yul\":2677:2756   */\n      tag_104\n      tag_33\n      jump\t// in\n    tag_104:\n        /* \"#utility.yul\":2639:2758   */\n    tag_103:\n        /* \"#utility.yul\":2825:2826   */\n      0x00\n        /* \"#utility.yul\":2814:2823   */\n      dup3\n        /* \"#utility.yul\":2810:2827   */\n      add\n        /* \"#utility.yul\":2797:2828   */\n      calldataload\n        /* \"#utility.yul\":2855:2873   */\n      0xffffffffffffffff\n        /* \"#utility.yul\":2847:2853   */\n      dup2\n        /* \"#utility.yul\":2844:2874   */\n      gt\n        /* \"#utility.yul\":2841:2958   */\n      iszero\n      tag_105\n      jumpi\n        /* \"#utility.yul\":2877:2956   */\n      tag_106\n      tag_34\n      jump\t// in\n    tag_106:\n        /* \"#utility.yul\":2841:2958   */\n    tag_105:\n        /* \"#utility.yul\":2982:3045   */\n      tag_107\n        /* \"#utility.yul\":3037:3044   */\n      dup5\n        /* \"#utility.yul\":3028:3034   */\n      dup3\n        /* \"#utility.yul\":3017:3026   */\n      dup6\n        /* \"#utility.yul\":3013:3035   */\n      add\n        /* \"#utility.yul\":2982:3045   */\n      tag_44\n      jump\t// in\n    tag_107:\n        /* \"#utility.yul\":2972:3045   */\n      swap2\n      pop\n        /* \"#utility.yul\":2768:3055   */\n      pop\n        /* \"#utility.yul\":2553:3062   */\n      swap3\n      swap2\n      pop\n      pop\n      jump\t// out\n        /* \"#utility.yul\":3068:3145   */\n    tag_45:\n        /* \"#utility.yul\":3105:3112   */\n      0x00\n        /* \"#utility.yul\":3134:3139   */\n      dup2\n        /* \"#utility.yul\":3123:3139   */\n      swap1\n      pop\n        /* \"#utility.yul\":3068:3145   */\n      swap2\n      swap1\n      pop\n      jump\t// out\n        /* \"#utility.yul\":3151:3269   */\n    tag_46:\n        /* \"#utility.yul\":3238:3262   */\n      tag_110\n        /* \"#utility.yul\":3256:3261   */\n      dup2\n        /* \"#utility.yul\":3238:3262   */\n      tag_45\n      jump\t// in\n    tag_110:\n        /* \"#utility.yul\":3233:3236   */\n      dup3\n        /* \"#utility.yul\":3226:3263   */\n      mstore\n        /* \"#utility.yul\":3151:3269   */\n      pop\n      pop\n      jump\t// out\n        /* \"#utility.yul\":3275:3497   */\n    tag_12:\n        /* \"#utility.yul\":3368:3372   */\n      0x00\n        /* \"#utility.yul\":3406:3408   */\n      0x20\n        /* \"#utility.yul\":3395:3404   */\n      dup3\n        /* \"#utility.yul\":3391:3409   */\n      add\n        /* \"#utility.yul\":3383:3409   */\n      swap1\n      pop\n        /* \"#utility.yul\":3419:3490   */\n      tag_112\n        /* \"#utility.yul\":3487:3488   */\n      0x00\n        /* \"#utility.yul\":3476:3485   */\n      dup4\n        /* \"#utility.yul\":3472:3489   */\n      add\n        /* \"#utility.yul\":3463:3469   */\n      dup5\n        /* \"#utility.yul\":3419:3490   */\n      tag_46\n      jump\t// in\n    tag_112:\n        /* \"#utility.yul\":3275:3497   */\n      swap3\n      swap2\n      pop\n      pop\n      jump\t// out\n        /* \"#utility.yul\":3503:3625   */\n    tag_47:\n        /* \"#utility.yul\":3576:3600   */\n      tag_114\n        /* \"#utility.yul\":3594:3599   */\n      dup2\n        /* \"#utility.yul\":3576:3600   */\n      tag_45\n      jump\t// in\n    tag_114:\n        /* \"#utility.yul\":3569:3574   */\n      dup2\n        /* \"#utility.yul\":3566:3601   */\n      eq\n        /* \"#utility.yul\":3556:3619   */\n      tag_115\n      jumpi\n        /* \"#utility.yul\":3615:3616   */\n      0x00\n        /* \"#utility.yul\":3612:3613   */\n      dup1\n        /* \"#utility.yul\":3605:3617   */\n      revert\n        /* \"#utility.yul\":3556:3619   */\n    tag_115:\n        /* \"#utility.yul\":3503:3625   */\n      pop\n      jump\t// out\n        /* \"#utility.yul\":3631:3770   */\n    tag_48:\n        /* \"#utility.yul\":3677:3682   */\n      0x00\n        /* \"#utility.yul\":3715:3721   */\n      dup2\n        /* \"#utility.yul\":3702:3722   */\n      calldataload\n        /* \"#utility.yul\":3693:3722   */\n      swap1\n      pop\n        /* \"#utility.yul\":3731:3764   */\n      tag_117\n        /* \"#utility.yul\":3758:3763   */\n      dup2\n        /* \"#utility.yul\":3731:3764   */\n      tag_47\n      jump\t// in\n    tag_117:\n        /* \"#utility.yul\":3631:3770   */\n      swap3\n      swap2\n      pop\n      pop\n      jump\t// out\n        /* \"#utility.yul\":3776:4105   */\n    tag_15:\n        /* \"#utility.yul\":3835:3841   */\n      0x00\n        /* \"#utility.yul\":3884:3886   */\n      0x20\n        /* \"#utility.yul\":3872:3881   */\n      dup3\n        /* \"#utility.yul\":3863:3870   */\n      dup5\n        /* \"#utility.yul\":3859:3882   */\n      sub\n        /* \"#utility.yul\":3855:3887   */\n      slt\n        /* \"#utility.yul\":3852:3971   */\n      iszero\n      tag_119\n      jumpi\n        /* \"#utility.yul\":3890:3969   */\n      tag_120\n      tag_33\n      jump\t// in\n    tag_120:\n        /* \"#utility.yul\":3852:3971   */\n    tag_119:\n        /* \"#utility.yul\":4010:4011   */\n      0x00\n        /* \"#utility.yul\":4035:4088   */\n      tag_121\n        /* \"#utility.yul\":4080:4087   */\n      dup5\n        /* \"#utility.yul\":4071:4077   */\n      dup3\n        /* \"#utility.yul\":4060:4069   */\n      dup6\n        /* \"#utility.yul\":4056:4078   */\n      add\n        /* \"#utility.yul\":4035:4088   */\n      tag_48\n      jump\t// in\n    tag_121:\n        /* \"#utility.yul\":4025:4088   */\n      swap2\n      pop\n        /* \"#utility.yul\":3981:4098   */\n      pop\n        /* \"#utility.yul\":3776:4105   */\n      swap3\n      swap2\n      pop\n      pop\n      jump\t// out\n        /* \"#utility.yul\":4111:4228   */\n    tag_49:\n        /* \"#utility.yul\":4220:4221   */\n      0x00\n        /* \"#utility.yul\":4217:4218   */\n      dup1\n        /* \"#utility.yul\":4210:4222   */\n      revert\n        /* \"#utility.yul\":4234:4351   */\n    tag_50:\n        /* \"#utility.yul\":4343:4344   */\n      0x00\n        /* \"#utility.yul\":4340:4341   */\n      dup1\n        /* \"#utility.yul\":4333:4345   */\n      revert\n        /* \"#utility.yul\":4371:4924   */\n    tag_51:\n        /* \"#utility.yul\":4429:4437   */\n      0x00\n        /* \"#utility.yul\":4439:4445   */\n      dup1\n        /* \"#utility.yul\":4489:4492   */\n      dup4\n        /* \"#utility.yul\":4482:4486   */\n      0x1f\n        /* \"#utility.yul\":4474:4480   */\n      dup5\n        /* \"#utility.yul\":4470:4487   */\n      add\n        /* \"#utility.yul\":4466:4493   */\n      slt\n        /* \"#utility.yul\":4456:4578   */\n      tag_125\n      jumpi\n        /* \"#utility.yul\":4497:4576   */\n      tag_126\n      tag_35\n      jump\t// in\n    tag_126:\n        /* \"#utility.yul\":4456:4578   */\n    tag_125:\n        /* \"#utility.yul\":4610:4616   */\n      dup3\n        /* \"#utility.yul\":4597:4617   */\n      calldataload\n        /* \"#utility.yul\":4587:4617   */\n      swap1\n      pop\n        /* \"#utility.yul\":4640:4658   */\n      0xffffffffffffffff\n        /* \"#utility.yul\":4632:4638   */\n      dup2\n        /* \"#utility.yul\":4629:4659   */\n      gt\n        /* \"#utility.yul\":4626:4743   */\n      iszero\n      tag_127\n      jumpi\n        /* \"#utility.yul\":4662:4741   */\n      tag_128\n      tag_49\n      jump\t// in\n    tag_128:\n        /* \"#utility.yul\":4626:4743   */\n    tag_127:\n        /* \"#utility.yul\":4776:4780   */\n      0x20\n        /* \"#utility.yul\":4768:4774   */\n      dup4\n        /* \"#utility.yul\":4764:4781   */\n      add\n        /* \"#utility.yul\":4752:4781   */\n      swap2\n      pop\n        /* \"#utility.yul\":4830:4833   */\n      dup4\n        /* \"#utility.yul\":4822:4826   */\n      0x01\n        /* \"#utility.yul\":4814:4820   */\n      dup3\n        /* \"#utility.yul\":4810:4827   */\n      mul\n        /* \"#utility.yul\":4800:4808   */\n      dup4\n        /* \"#utility.yul\":4796:4828   */\n      add\n        /* \"#utility.yul\":4793:4834   */\n      gt\n        /* \"#utility.yul\":4790:4918   */\n      iszero\n      tag_129\n      jumpi\n        /* \"#utility.yul\":4837:4916   */\n      tag_130\n      tag_50\n      jump\t// in\n    tag_130:\n        /* \"#utility.yul\":4790:4918   */\n    tag_129:\n        /* \"#utility.yul\":4371:4924   */\n      swap3\n      pop\n      swap3\n      swap1\n      pop\n      jump\t// out\n        /* \"#utility.yul\":4930:5604   */\n    tag_22:\n        /* \"#utility.yul\":5010:5016   */\n      0x00\n        /* \"#utility.yul\":5018:5024   */\n      dup1\n        /* \"#utility.yul\":5026:5032   */\n      0x00\n        /* \"#utility.yul\":5075:5077   */\n      0x40\n        /* \"#utility.yul\":5063:5072   */\n      dup5\n        /* \"#utility.yul\":5054:5061   */\n      dup7\n        /* \"#utility.yul\":5050:5073   */\n      sub\n        /* \"#utility.yul\":5046:5078   */\n      slt\n        /* \"#utility.yul\":5043:5162   */\n      iszero\n      tag_132\n      jumpi\n        /* \"#utility.yul\":5081:5160   */\n      tag_133\n      tag_33\n      jump\t// in\n    tag_133:\n        /* \"#utility.yul\":5043:5162   */\n    tag_132:\n        /* \"#utility.yul\":5201:5202   */\n      0x00\n        /* \"#utility.yul\":5226:5279   */\n      tag_134\n        /* \"#utility.yul\":5271:5278   */\n      dup7\n        /* \"#utility.yul\":5262:5268   */\n      dup3\n        /* \"#utility.yul\":5251:5260   */\n      dup8\n        /* \"#utility.yul\":5247:5269   */\n      add\n        /* \"#utility.yul\":5226:5279   */\n      tag_48\n      jump\t// in\n    tag_134:\n        /* \"#utility.yul\":5216:5279   */\n      swap4\n      pop\n        /* \"#utility.yul\":5172:5289   */\n      pop\n        /* \"#utility.yul\":5356:5358   */\n      0x20\n        /* \"#utility.yul\":5345:5354   */\n      dup5\n        /* \"#utility.yul\":5341:5359   */\n      add\n        /* \"#utility.yul\":5328:5360   */\n      calldataload\n        /* \"#utility.yul\":5387:5405   */\n      0xffffffffffffffff\n        /* \"#utility.yul\":5379:5385   */\n      dup2\n        /* \"#utility.yul\":5376:5406   */\n      gt\n        /* \"#utility.yul\":5373:5490   */\n      iszero\n      tag_135\n      jumpi\n        /* \"#utility.yul\":5409:5488   */\n      tag_136\n      tag_34\n      jump\t// in\n    tag_136:\n        /* \"#utility.yul\":5373:5490   */\n    tag_135:\n        /* \"#utility.yul\":5522:5587   */\n      tag_137\n        /* \"#utility.yul\":5579:5586   */\n      dup7\n        /* \"#utility.yul\":5570:5576   */\n      dup3\n        /* \"#utility.yul\":5559:5568   */\n      dup8\n        /* \"#utility.yul\":5555:5577   */\n      add\n        /* \"#utility.yul\":5522:5587   */\n      tag_51\n      jump\t// in\n    tag_137:\n        /* \"#utility.yul\":5504:5587   */\n      swap3\n      pop\n      swap3\n      pop\n        /* \"#utility.yul\":5299:5597   */\n      pop\n        /* \"#utility.yul\":4930:5604   */\n      swap3\n      pop\n      swap3\n      pop\n      swap3\n      jump\t// out\n        /* \"#utility.yul\":5610:5709   */\n    tag_52:\n        /* \"#utility.yul\":5662:5668   */\n      0x00\n        /* \"#utility.yul\":5696:5701   */\n      dup2\n        /* \"#utility.yul\":5690:5702   */\n      mload\n        /* \"#utility.yul\":5680:5702   */\n      swap1\n      pop\n        /* \"#utility.yul\":5610:5709   */\n      swap2\n      swap1\n      pop\n      jump\t// out\n        /* \"#utility.yul\":5715:5895   */\n    tag_53:\n        /* \"#utility.yul\":5763:5840   */\n      0x4e487b7100000000000000000000000000000000000000000000000000000000\n        /* \"#utility.yul\":5760:5761   */\n      0x00\n        /* \"#utility.yul\":5753:5841   */\n      mstore\n        /* \"#utility.yul\":5860:5864   */\n      0x22\n        /* \"#utility.yul\":5857:5858   */\n      0x04\n        /* \"#utility.yul\":5850:5865   */\n      mstore\n        /* \"#utility.yul\":5884:5888   */\n      0x24\n        /* \"#utility.yul\":5881:5882   */\n      0x00\n        /* \"#utility.yul\":5874:5889   */\n      revert\n        /* \"#utility.yul\":5901:6221   */\n    tag_54:\n        /* \"#utility.yul\":5945:5951   */\n      0x00\n        /* \"#utility.yul\":5982:5983   */\n      0x02\n        /* \"#utility.yul\":5976:5980   */\n      dup3\n        /* \"#utility.yul\":5972:5984   */\n      div\n        /* \"#utility.yul\":5962:5984   */\n      swap1\n      pop\n        /* \"#utility.yul\":6029:6030   */\n      0x01\n        /* \"#utility.yul\":6023:6027   */\n      dup3\n        /* \"#utility.yul\":6019:6031   */\n      and\n        /* \"#utility.yul\":6050:6068   */\n      dup1\n        /* \"#utility.yul\":6040:6121   */\n      tag_141\n      jumpi\n        /* \"#utility.yul\":6106:6110   */\n      0x7f\n        /* \"#utility.yul\":6098:6104   */\n      dup3\n        /* \"#utility.yul\":6094:6111   */\n      and\n        /* \"#utility.yul\":6084:6111   */\n      swap2\n      pop\n        /* \"#utility.yul\":6040:6121   */\n    tag_141:\n        /* \"#utility.yul\":6168:6170   */\n      0x20\n        /* \"#utility.yul\":6160:6166   */\n      dup3\n        /* \"#utility.yul\":6157:6171   */\n      lt\n        /* \"#utility.yul\":6137:6155   */\n      dup2\n        /* \"#utility.yul\":6134:6172   */\n      sub\n        /* \"#utility.yul\":6131:6215   */\n      tag_142\n      jumpi\n        /* \"#utility.yul\":6187:6205   */\n      tag_143\n      tag_53\n      jump\t// in\n    tag_143:\n        /* \"#utility.yul\":6131:6215   */\n    tag_142:\n        /* \"#utility.yul\":5952:6221   */\n      pop\n        /* \"#utility.yul\":5901:6221   */\n      swap2\n      swap1\n      pop\n      jump\t// out\n        /* \"#utility.yul\":6227:6368   */\n    tag_55:\n        /* \"#utility.yul\":6276:6280   */\n      0x00\n        /* \"#utility.yul\":6299:6302   */\n      dup2\n        /* \"#utility.yul\":6291:6302   */\n      swap1\n      pop\n        /* \"#utility.yul\":6322:6325   */\n      dup2\n        /* \"#utility.yul\":6319:6320   */\n      0x00\n        /* \"#utility.yul\":6312:6326   */\n      mstore\n        /* \"#utility.yul\":6356:6360   */\n      0x20\n        /* \"#utility.yul\":6353:6354   */\n      0x00\n        /* \"#utility.yul\":6343:6361   */\n      keccak256\n        /* \"#utility.yul\":6335:6361   */\n      swap1\n      pop\n        /* \"#utility.yul\":6227:6368   */\n      swap2\n      swap1\n      pop\n      jump\t// out\n        /* \"#utility.yul\":6374:6467   */\n    tag_56:\n        /* \"#utility.yul\":6411:6417   */\n      0x00\n        /* \"#utility.yul\":6458:6460   */\n      0x20\n        /* \"#utility.yul\":6453:6455   */\n      0x1f\n        /* \"#utility.yul\":6446:6451   */\n      dup4\n        /* \"#utility.yul\":6442:6456   */\n      add\n        /* \"#utility.yul\":6438:6461   */\n      div\n        /* \"#utility.yul\":6428:6461   */\n      swap1\n      pop\n        /* \"#utility.yul\":6374:6467   */\n      swap2\n      swap1\n      pop\n      jump\t// out\n        /* \"#utility.yul\":6473:6580   */\n    tag_57:\n        /* \"#utility.yul\":6517:6525   */\n      0x00\n        /* \"#utility.yul\":6567:6572   */\n      dup3\n        /* \"#utility.yul\":6561:6565   */\n      dup3\n        /* \"#utility.yul\":6557:6573   */\n      shl\n        /* \"#utility.yul\":6536:6573   */\n      swap1\n      pop\n        /* \"#utility.yul\":6473:6580   */\n      swap3\n      swap2\n      pop\n      pop\n      jump\t// out\n        /* \"#utility.yul\":6586:6979   */\n    tag_58:\n        /* \"#utility.yul\":6655:6661   */\n      0x00\n        /* \"#utility.yul\":6705:6706   */\n      0x08\n        /* \"#utility.yul\":6693:6703   */\n      dup4\n        /* \"#utility.yul\":6689:6707   */\n      mul\n        /* \"#utility.yul\":6728:6825   */\n      tag_148\n        /* \"#utility.yul\":6758:6824   */\n      0xffffffffffffffffffffffffffffffffffffffffffffffffffffffffffffffff\n        /* \"#utility.yul\":6747:6756   */\n      dup3\n        /* \"#utility.yul\":6728:6825   */\n      tag_57\n      jump\t// in\n    tag_148:\n        /* \"#utility.yul\":6846:6885   */\n      tag_149\n        /* \"#utility.yul\":6876:6884   */\n      dup7\n        /* \"#utility.yul\":6865:6874   */\n      dup4\n        /* \"#utility.yul\":6846:6885   */\n      tag_57\n      jump\t// in\n    tag_149:\n        /* \"#utility.yul\":6834:6885   */\n      swap6\n      pop\n        /* \"#utility.yul\":6918:6922   */\n      dup1\n        /* \"#utility.yul\":6914:6923   */\n      not\n        /* \"#utility.yul\":6907:6912   */\n      dup5\n        /* \"#utility.yul\":6903:6924   */\n      and\n        /* \"#utility.yul\":6894:6924   */\n      swap4\n      pop\n        /* \"#utility.yul\":6967:6971   */\n      dup1\n        /* \"#utility.yul\":6957:6965   */\n      dup7\n        /* \"#utility.yul\":6953:6972   */\n      and\n        /* \"#utility.yul\":6946:6951   */\n      dup5\n        /* \"#utility.yul\":6943:6973   */\n      or\n        /* \"#utility.yul\":6933:6973   */\n      swap3\n      pop\n        /* \"#utility.yul\":6662:6979   */\n      pop\n      pop\n        /* \"#utility.yul\":6586:6979   */\n      swap4\n      swap3\n      pop\n      pop\n      pop\n      jump\t// out\n        /* \"#utility.yul\":6985:7045   */\n    tag_59:\n        /* \"#utility.yul\":7013:7016   */\n      0x00\n        /* \"#utility.yul\":7034:7039   */\n      dup2\n        /* \"#utility.yul\":7027:7039   */\n      swap1\n      pop\n        /* \"#utility.yul\":6985:7045   */\n      swap2\n      swap1\n      pop\n      jump\t// out\n        /* \"#utility.yul\":7051:7193   */\n    tag_60:\n        /* \"#utility.yul\":7101:7110   */\n      0x00\n        /* \"#utility.yul\":7134:7187   */\n      tag_152\n        /* \"#utility.yul\":7152:7186   */\n      tag_153\n        /* \"#utility.yul\":7161:7185   */\n      tag_154\n        /* \"#utility.yul\":7179:7184   */\n      dup5\n        /* \"#utility.yul\":7161:7185   */\n      tag_45\n      jump\t// in\n    tag_154:\n        /* \"#utility.yul\":7152:7186   */\n      tag_59\n      jump\t// in\n    tag_153:\n        /* \"#utility.yul\":7134:7187   */\n      tag_45\n      jump\t// in\n    tag_152:\n        /* \"#utility.yul\":7121:7187   */\n      swap1\n      pop\n        /* \"#utility.yul\":7051:7193   */\n      swap2\n      swap1\n      pop\n      jump\t// out\n        /* \"#utility.yul\":7199:7274   */\n    tag_61:\n        /* \"#utility.yul\":7242:7245   */\n      0x00\n        /* \"#utility.yul\":7263:7268   */\n      dup2\n        /* \"#utility.yul\":7256:7268   */\n      swap1\n      pop\n        /* \"#utility.yul\":7199:7274   */\n      swap2\n      swap1\n      pop\n      jump\t// out\n        /* \"#utility.yul\":7280:7549   */\n    tag_62:\n        /* \"#utility.yul\":7390:7429   */\n      tag_157\n        /* \"#utility.yul\":7421:7428   */\n      dup4\n        /* \"#utility.yul\":7390:7429   */\n      tag_60\n      jump\t// in\n    tag_157:\n        /* \"#utility.yul\":7451:7542   */\n      tag_158\n        /* \"#utility.yul\":7500:7541   */\n      tag_159\n        /* \"#utility.yul\":7524:7540   */\n      dup3\n        /* \"#utility.yul\":7500:7541   */\n      tag_61\n      jump\t// in\n    tag_159:\n        /* \"#utility.yul\":7492:7498   */\n      dup5\n        /* \"#utility.yul\":7485:7489   */\n      dup5\n        /* \"#utility.yul\":7479:7490   */\n      sload\n        /* \"#utility.yul\":7451:7542   */\n      tag_58\n      jump\t// in\n    tag_158:\n        /* \"#utility.yul\":7445:7449   */\n      dup3\n        /* \"#utility.yul\":7438:7543   */\n      sstore\n        /* \"#utility.yul\":7356:7549   */\n      pop\n        /* \"#utility.yul\":7280:7549   */\n      pop\n      pop\n      pop\n      jump\t// out\n        /* \"#utility.yul\":7555:7628   */\n    tag_63:\n        /* \"#utility.yul\":7600:7603   */\n      0x00\n        /* \"#utility.yul\":7555:7628   */\n      swap1\n      jump\t// out\n        /* \"#utility.yul\":7634:7823   */\n    tag_64:\n        /* \"#utility.yul\":7711:7743   */\n      tag_162\n      tag_63\n      jump\t// in\n    tag_162:\n        /* \"#utility.yul\":7752:7817   */\n      tag_163\n        /* \"#utility.yul\":7810:7816   */\n      dup2\n        /* \"#utility.yul\":7802:7808   */\n      dup5\n        /* \"#utility.yul\":7796:7800   */\n      dup5\n        /* \"#utility.yul\":7752:7817   */\n      tag_62\n      jump\t// in\n    tag_163:\n        /* \"#utility.yul\":7687:7823   */\n      pop\n        /* \"#utility.yul\":7634:7823   */\n      pop\n      pop\n      jump\t// out\n        /* \"#utility.yul\":7829:8015   */\n    tag_65:\n        /* \"#utility.yul\":7889:8009   */\n    tag_165:\n        /* \"#utility.yul\":7906:7909   */\n      dup2\n        /* \"#utility.yul\":7899:7904   */\n      dup2\n        /* \"#utility.yul\":7896:7910   */\n      lt\n        /* \"#utility.yul\":7889:8009   */\n      iszero\n      tag_167\n      jumpi\n        /* \"#utility.yul\":7960:7999   */\n      tag_168\n        /* \"#utility.yul\":7997:7998   */\n      0x00\n        /* \"#utility.yul\":7990:7995   */\n      dup3\n        /* \"#utility.yul\":7960:7999   */\n      tag_64\n      jump\t// in\n    tag_168:\n        /* \"#utility.yul\":7933:7934   */\n      0x01\n        /* \"#utility.yul\":7926:7931   */\n      dup2\n        /* \"#utility.yul\":7922:7935   */\n      add\n        /* \"#utility.yul\":7913:7935   */\n      swap1\n      pop\n        /* \"#utility.yul\":7889:8009   */\n      jump(tag_165)\n    tag_167:\n        /* \"#utility.yul\":7829:8015   */\n      pop\n      pop\n      jump\t// out\n        /* \"#utility.yul\":8021:8564   */\n    tag_66:\n        /* \"#utility.yul\":8122:8124   */\n      0x1f\n        /* \"#utility.yul\":8117:8120   */\n      dup3\n        /* \"#utility.yul\":8114:8125   */\n      gt\n        /* \"#utility.yul\":8111:8557   */\n      iszero\n      tag_170\n      jumpi\n        /* \"#utility.yul\":8156:8194   */\n      tag_171\n        /* \"#utility.yul\":8188:8193   */\n      dup2\n        /* \"#utility.yul\":8156:8194   */\n      tag_55\n      jump\t// in\n    tag_171:\n        /* \"#utility.yul\":8240:8269   */\n      tag_172\n        /* \"#utility.yul\":8258:8268   */\n      dup5\n        /* \"#utility.yul\":8240:8269   */\n      tag_56\n      jump\t// in\n    tag_172:\n        /* \"#utility.yul\":8230:8238   */\n      dup2\n        /* \"#utility.yul\":8226:8270   */\n      add\n        /* \"#utility.yul\":8423:8425   */\n      0x20\n        /* \"#utility.yul\":8411:8421   */\n      dup6\n        /* \"#utility.yul\":8408:8426   */\n      lt\n        /* \"#utility.yul\":8405:8454   */\n      iszero\n      tag_173\n      jumpi\n        /* \"#utility.yul\":8444:8452   */\n      dup2\n        /* \"#utility.yul\":8429:8452   */\n      swap1\n      pop\n        /* \"#utility.yul\":8405:8454   */\n    tag_173:\n        /* \"#utility.yul\":8467:8547   */\n      tag_174\n        /* \"#utility.yul\":8523:8545   */\n      tag_175\n        /* \"#utility.yul\":8541:8544   */\n      dup6\n        /* \"#utility.yul\":8523:8545   */\n      tag_56\n      jump\t// in\n    tag_175:\n        /* \"#utility.yul\":8513:8521   */\n      dup4\n        /* \"#utility.yul\":8509:8546   */\n      add\n        /* \"#utility.yul\":8496:8507   */\n      dup3\n        /* \"#utility.yul\":8467:8547   */\n      tag_65\n      jump\t// in\n    tag_174:\n        /* \"#utility.yul\":8126:8557   */\n      pop\n      pop\n        /* \"#utility.yul\":8111:8557   */\n    tag_170:\n        /* \"#utility.yul\":8021:8564   */\n      pop\n      pop\n      pop\n      jump\t// out\n        /* \"#utility.yul\":8570:8687   */\n    tag_67:\n        /* \"#utility.yul\":8624:8632   */\n      0x00\n        /* \"#utility.yul\":8674:8679   */\n      dup3\n        /* \"#utility.yul\":8668:8672   */\n      dup3\n        /* \"#utility.yul\":8664:8680   */\n      shr\n        /* \"#utility.yul\":8643:8680   */\n      swap1\n      pop\n        /* \"#utility.yul\":8570:8687   */\n      swap3\n      swap2\n      pop\n      pop\n      jump\t// out\n        /* \"#utility.yul\":8693:8862   */\n    tag_68:\n        /* \"#utility.yul\":8737:8743   */\n      0x00\n        /* \"#utility.yul\":8770:8821   */\n      tag_178\n        /* \"#utility.yul\":8818:8819   */\n      0x00\n        /* \"#utility.yul\":8814:8820   */\n      not\n        /* \"#utility.yul\":8806:8811   */\n      dup5\n        /* \"#utility.yul\":8803:8804   */\n      0x08\n        /* \"#utility.yul\":8799:8812   */\n      mul\n        /* \"#utility.yul\":8770:8821   */\n      tag_67\n      jump\t// in\n    tag_178:\n        /* \"#utility.yul\":8766:8822   */\n      not\n        /* \"#utility.yul\":8851:8855   */\n      dup1\n        /* \"#utility.yul\":8845:8849   */\n      dup4\n        /* \"#utility.yul\":8841:8856   */\n      and\n        /* \"#utility.yul\":8831:8856   */\n      swap2\n      pop\n        /* \"#utility.yul\":8744:8862   */\n      pop\n        /* \"#utility.yul\":8693:8862   */\n      swap3\n      swap2\n      pop\n      pop\n      jump\t// out\n        /* \"#utility.yul\":8867:9162   */\n    tag_69:\n        /* \"#utility.yul\":8943:8947   */\n      0x00\n        /* \"#utility.yul\":9089:9118   */\n      tag_180\n        /* \"#utility.yul\":9114:9117   */\n      dup4\n        /* \"#utility.yul\":9108:9112   */\n      dup4\n        /* \"#utility.yul\":9089:9118   */\n      tag_68\n      jump\t// in\n    tag_180:\n        /* \"#utility.yul\":9081:9118   */\n      swap2\n      pop\n        /* \"#utility.yul\":9151:9154   */\n      dup3\n        /* \"#utility.yul\":9148:9149   */\n      0x02\n        /* \"#utility.yul\":9144:9155   */\n      mul\n        /* \"#utility.yul\":9138:9142   */\n      dup3\n        /* \"#utility.yul\":9135:9156   */\n      or\n        /* \"#utility.yul\":9127:9156   */\n      swap1\n      pop\n        /* \"#utility.yul\":8867:9162   */\n      swap3\n      swap2\n      pop\n      pop\n      jump\t// out\n        /* \"#utility.yul\":9167:10562   */\n    tag_29:\n        /* \"#utility.yul\":9284:9321   */\n      tag_182\n        /* \"#utility.yul\":9317:9320   */\n      dup3\n        /* \"#utility.yul\":9284:9321   */\n      tag_52\n      jump\t// in\n    tag_182:\n        /* \"#utility.yul\":9386:9404   */\n      0xffffffffffffffff\n        /* \"#utility.yul\":9378:9384   */\n      dup2\n        /* \"#utility.yul\":9375:9405   */\n      gt\n        /* \"#utility.yul\":9372:9428   */\n      iszero\n      tag_183\n      jumpi\n        /* \"#utility.yul\":9408:9426   */\n      tag_184\n      tag_38\n      jump\t// in\n    tag_184:\n        /* \"#utility.yul\":9372:9428   */\n    tag_183:\n        /* \"#utility.yul\":9452:9490   */\n      tag_185\n        /* \"#utility.yul\":9484:9488   */\n      dup3\n        /* \"#utility.yul\":9478:9489   */\n      sload\n        /* \"#utility.yul\":9452:9490   */\n      tag_54\n      jump\t// in\n    tag_185:\n        /* \"#utility.yul\":9537:9604   */\n      tag_186\n        /* \"#utility.yul\":9597:9603   */\n      dup3\n        /* \"#utility.yul\":9589:9595   */\n      dup3\n        /* \"#utility.yul\":9583:9587   */\n      dup6\n        /* \"#utility.yul\":9537:9604   */\n      tag_66\n      jump\t// in\n    tag_186:\n        /* \"#utility.yul\":9631:9632   */\n      0x00\n        /* \"#utility.yul\":9655:9659   */\n      0x20\n        /* \"#utility.yul\":9642:9659   */\n      swap1\n      pop\n        /* \"#utility.yul\":9687:9689   */\n      0x1f\n        /* \"#utility.yul\":9679:9685   */\n      dup4\n        /* \"#utility.yul\":9676:9690   */\n      gt\n        /* \"#utility.yul\":9704:9705   */\n      0x01\n        /* \"#utility.yul\":9699:10317   */\n      dup2\n      eq\n      tag_188\n      jumpi\n        /* \"#utility.yul\":10361:10362   */\n      0x00\n        /* \"#utility.yul\":10378:10384   */\n      dup5\n        /* \"#utility.yul\":10375:10452   */\n      iszero\n      tag_189\n      jumpi\n        /* \"#utility.yul\":10427:10436   */\n      dup3\n        /* \"#utility.yul\":10422:10425   */\n      dup8\n        /* \"#utility.yul\":10418:10437   */\n      add\n        /* \"#utility.yul\":10412:10438   */\n      mload\n        /* \"#utility.yul\":10403:10438   */\n      swap1\n      pop\n        /* \"#utility.yul\":10375:10452   */\n    tag_189:\n        /* \"#utility.yul\":10478:10545   */\n      tag_190\n        /* \"#utility.yul\":10538:10544   */\n      dup6\n        /* \"#utility.yul\":10531:10536   */\n      dup3\n        /* \"#utility.yul\":10478:10545   */\n      tag_69\n      jump\t// in\n    tag_190:\n        /* \"#utility.yul\":10472:10476   */\n      dup7\n        /* \"#utility.yul\":10465:10546   */\n      sstore\n        /* \"#utility.yul\":10334:10556   */\n      pop\n        /* \"#utility.yul\":9669:10556   */\n      jump(tag_187)\n        /* \"#utility.yul\":9699:10317   */\n    tag_188:\n        /* \"#utility.yul\":9751:9755   */\n      0x1f\n        /* \"#utility.yul\":9747:9756   */\n      not\n        /* \"#utility.yul\":9739:9745   */\n      dup5\n        /* \"#utility.yul\":9735:9757   */\n      and\n        /* \"#utility.yul\":9785:9822   */\n      tag_191\n        /* \"#utility.yul\":9817:9821   */\n      dup7\n        /* \"#utility.yul\":9785:9822   */\n      tag_55\n      jump\t// in\n    tag_191:\n        /* \"#utility.yul\":9844:9845   */\n      0x00\n        /* \"#utility.yul\":9858:10066   */\n    tag_192:\n        /* \"#utility.yul\":9872:9879   */\n      dup3\n        /* \"#utility.yul\":9869:9870   */\n      dup2\n        /* \"#utility.yul\":9866:9880   */\n      lt\n        /* \"#utility.yul\":9858:10066   */\n      iszero\n      tag_194\n      jumpi\n        /* \"#utility.yul\":9951:9960   */\n      dup5\n        /* \"#utility.yul\":9946:9949   */\n      dup10\n        /* \"#utility.yul\":9942:9961   */\n      add\n        /* \"#utility.yul\":9936:9962   */\n      mload\n        /* \"#utility.yul\":9928:9934   */\n      dup3\n        /* \"#utility.yul\":9921:9963   */\n      sstore\n        /* \"#utility.yul\":10002:10003   */\n      0x01\n        /* \"#utility.yul\":9994:10000   */\n      dup3\n        /* \"#utility.yul\":9990:10004   */\n      add\n        /* \"#utility.yul\":9980:10004   */\n      swap2\n      pop\n        /* \"#utility.yul\":10049:10051   */\n      0x20\n        /* \"#utility.yul\":10038:10047   */\n      dup6\n        /* \"#utility.yul\":10034:10052   */\n      add\n        /* \"#utility.yul\":10021:10052   */\n      swap5\n      pop\n        /* \"#utility.yul\":9895:9899   */\n      0x20\n        /* \"#utility.yul\":9892:9893   */\n      dup2\n        /* \"#utility.yul\":9888:9900   */\n      add\n        /* \"#utility.yul\":9883:9900   */\n      swap1\n      pop\n        /* \"#utility.yul\":9858:10066   */\n      jump(tag_192)\n    tag_194:\n        /* \"#utility.yul\":10094:10100   */\n      dup7\n        /* \"#utility.yul\":10085:10092   */\n      dup4\n        /* \"#utility.yul\":10082:10101   */\n      lt\n        /* \"#utility.yul\":10079:10258   */\n      iszero\n      tag_195\n      jumpi\n        /* \"#utility.yul\":10152:10161   */\n      dup5\n        /* \"#utility.yul\":10147:10150   */\n      dup10\n        /* \"#utility.yul\":10143:10162   */\n      add\n        /* \"#utility.yul\":10137:10163   */\n      mload\n        /* \"#utility.yul\":10195:10243   */\n      tag_196\n        /* \"#utility.yul\":10237:10241   */\n      0x1f\n        /* \"#utility.yul\":10229:10235   */\n      dup10\n        /* \"#utility.yul\":10225:10242   */\n      and\n        /* \"#utility.yul\":10214:10223   */\n      dup3\n        /* \"#utility.yul\":10195:10243   */\n      tag_68\n      jump\t// in\n    tag_196:\n        /* \"#utility.yul\":10187:10193   */\n      dup4\n        /* \"#utility.yul\":10180:10244   */\n      sstore\n        /* \"#utility.yul\":10102:10258   */\n      pop\n        /* \"#utility.yul\":10079:10258   */\n    tag_195:\n        /* \"#utility.yul\":10304:10305   */\n      0x01\n        /* \"#utility.yul\":10300:10301   */\n      0x02\n        /* \"#utility.yul\":10292:10298   */\n      dup9\n        /* \"#utility.yul\":10288:10302   */\n      mul\n        /* \"#utility.yul\":10284:10306   */\n      add\n        /* \"#utility.yul\":10278:10282   */\n      dup9\n        /* \"#utility.yul\":10271:10307   */\n      sstore\n        /* \"#utility.yul\":9706:10317   */\n      pop\n      pop\n      pop\n        /* \"#utility.yul\":9669:10556   */\n    tag_187:\n      pop\n        /* \"#utility.yul\":9259:10562   */\n      pop\n      pop\n      pop\n        /* \"#utility.yul\":9167:10562   */\n      pop\n      pop\n      jump\t// out\n        /* \"#utility.yul\":10568:10716   */\n    tag_70:\n        /* \"#utility.yul\":10670:10681   */\n      0x00\n        /* \"#utility.yul\":10707:10710   */\n      dup2\n        /* \"#utility.yul\":10692:10710   */\n      swap1\n      pop\n        /* \"#utility.yul\":10568:10716   */\n      swap3\n      swap2\n      pop\n      pop\n      jump\t// out\n        /* \"#utility.yul\":10746:11076   */\n    tag_71:\n        /* \"#utility.yul\":10862:10865   */\n      0x00\n        /* \"#utility.yul\":10883:10972   */\n      tag_199\n        /* \"#utility.yul\":10965:10971   */\n      dup4\n        /* \"#utility.yul\":10960:10963   */\n      dup6\n        /* \"#utility.yul\":10883:10972   */\n      tag_70\n      jump\t// in\n    tag_199:\n        /* \"#utility.yul\":10876:10972   */\n      swap4\n      pop\n        /* \"#utility.yul\":10982:11038   */\n      tag_200\n        /* \"#utility.yul\":11031:11037   */\n      dup4\n        /* \"#utility.yul\":11026:11029   */\n      dup6\n        /* \"#utility.yul\":11019:11024   */\n      dup5\n        /* \"#utility.yul\":10982:11038   */\n      tag_42\n      jump\t// in\n    tag_200:\n        /* \"#utility.yul\":11063:11069   */\n      dup3\n        /* \"#utility.yul\":11058:11061   */\n      dup5\n        /* \"#utility.yul\":11054:11070   */\n      add\n        /* \"#utility.yul\":11047:11070   */\n      swap1\n      pop\n        /* \"#utility.yul\":10746:11076   */\n      swap4\n      swap3\n      pop\n      pop\n      pop\n      jump\t// out\n        /* \"#utility.yul\":11082:11377   */\n    tag_31:\n        /* \"#utility.yul\":11224:11227   */\n      0x00\n        /* \"#utility.yul\":11246:11351   */\n      tag_202\n        /* \"#utility.yul\":11347:11350   */\n      dup3\n        /* \"#utility.yul\":11338:11344   */\n      dup5\n        /* \"#utility.yul\":11330:11336   */\n      dup7\n        /* \"#utility.yul\":11246:11351   */\n      tag_71\n      jump\t// in\n    tag_202:\n        /* \"#utility.yul\":11239:11351   */\n      swap2\n      pop\n        /* \"#utility.yul\":11368:11371   */\n      dup2\n        /* \"#utility.yul\":11361:11371   */\n      swap1\n      pop\n        /* \"#utility.yul\":11082:11377   */\n      swap4\n      swap3\n      pop\n      pop\n      pop\n      jump\t// out\n\n    auxdata: 0xa2646970667358221220072702880736a15481f11d66a1a46c9b3900f69b51d648d6b1f8e9978a7b695564736f6c63430008130033\n}\n",
				"bytecode": {
					"linkReferences": {},
					"object": "608060405234801561001057600080fd5b50610840806100206000396000f3fe608060405234801561001057600080fd5b506004361061004c5760003560e01c80632fae4ffd146100515780636057361d14610081578063a6b7fc5b1461009d578063bc832d4e146100bb575b600080fd5b61006b60048036038101906100669190610342565b6100d7565b60405161007891906103a4565b60405180910390f35b61009b600480360381019061009691906103eb565b610105565b005b6100a561010f565b6040516100b291906103a4565b60405180910390f35b6100d560048036038101906100d09190610478565b610118565b005b6002818051602081018201805184825260208301602085012081835280955050505050506000915090505481565b8060008190555050565b60008054905090565b6001604051806040016040528085815260200184848080601f016020809104026020016040519081016040528093929190818152602001838380828437600081840152601f19601f8201169050808301925050505050505081525090806001815401808255809150506001900390600052602060002090600202016000909190919091506000820151816000015560208201518160010190816101bb91906106ef565b50505082600283836040516101d19291906107f1565b908152602001604051809103902081905550505050565b6000604051905090565b600080fd5b600080fd5b600080fd5b600080fd5b6000601f19601f8301169050919050565b7f4e487b7100000000000000000000000000000000000000000000000000000000600052604160045260246000fd5b61024f82610206565b810181811067ffffffffffffffff8211171561026e5761026d610217565b5b80604052505050565b60006102816101e8565b905061028d8282610246565b919050565b600067ffffffffffffffff8211156102ad576102ac610217565b5b6102b682610206565b9050602081019050919050565b82818337600083830152505050565b60006102e56102e084610292565b610277565b90508281526020810184848401111561030157610300610201565b5b61030c8482856102c3565b509392505050565b600082601f830112610329576103286101fc565b5b81356103398482602086016102d2565b91505092915050565b600060208284031215610358576103576101f2565b5b600082013567ffffffffffffffff811115610376576103756101f7565b5b61038284828501610314565b91505092915050565b6000819050919050565b61039e8161038b565b82525050565b60006020820190506103b96000830184610395565b92915050565b6103c88161038b565b81146103d357600080fd5b50565b6000813590506103e5816103bf565b92915050565b600060208284031215610401576104006101f2565b5b600061040f848285016103d6565b91505092915050565b600080fd5b600080fd5b60008083601f840112610438576104376101fc565b5b8235905067ffffffffffffffff81111561045557610454610418565b5b6020830191508360018202830111156104715761047061041d565b5b9250929050565b600080600060408486031215610491576104906101f2565b5b600061049f868287016103d6565b935050602084013567ffffffffffffffff8111156104c0576104bf6101f7565b5b6104cc86828701610422565b92509250509250925092565b600081519050919050565b7f4e487b7100000000000000000000000000000000000000000000000000000000600052602260045260246000fd5b6000600282049050600182168061052a57607f821691505b60208210810361053d5761053c6104e3565b5b50919050565b60008190508160005260206000209050919050565b60006020601f8301049050919050565b600082821b905092915050565b6000600883026105a57fffffffffffffffffffffffffffffffffffffffffffffffffffffffffffffffff82610568565b6105af8683610568565b95508019841693508086168417925050509392505050565b6000819050919050565b60006105ec6105e76105e28461038b565b6105c7565b61038b565b9050919050565b6000819050919050565b610606836105d1565b61061a610612826105f3565b848454610575565b825550505050565b600090565b61062f610622565b61063a8184846105fd565b505050565b5b8181101561065e57610653600082610627565b600181019050610640565b5050565b601f8211156106a35761067481610543565b61067d84610558565b8101602085101561068c578190505b6106a061069885610558565b83018261063f565b50505b505050565b600082821c905092915050565b60006106c6600019846008026106a8565b1980831691505092915050565b60006106df83836106b5565b9150826002028217905092915050565b6106f8826104d8565b67ffffffffffffffff81111561071157610710610217565b5b61071b8254610512565b610726828285610662565b600060209050601f8311600181146107595760008415610747578287015190505b61075185826106d3565b8655506107b9565b601f19841661076786610543565b60005b8281101561078f5784890151825560018201915060208501945060208101905061076a565b868310156107ac57848901516107a8601f8916826106b5565b8355505b6001600288020188555050505b505050505050565b600081905092915050565b60006107d883856107c1565b93506107e58385846102c3565b82840190509392505050565b60006107fe8284866107cc565b9150819050939250505056fea2646970667358221220072702880736a15481f11d66a1a46c9b3900f69b51d648d6b1f8e9978a7b695564736f6c63430008130033",
					"opcodes": "PUSH1 0x80 PUSH1 0x40 MSTORE CALLVALUE DUP1 ISZERO PUSH2 0x10 JUMPI PUSH1 0x0 DUP1 REVERT JUMPDEST POP PUSH2 0x840 DUP1 PUSH2 0x20 PUSH1 0x0 CODECOPY PUSH1 0x0 RETURN INVALID PUSH1 0x80 PUSH1 0x40 MSTORE CALLVALUE DUP1 ISZERO PUSH2 0x10 JUMPI PUSH1 0x0 DUP1 REVERT JUMPDEST POP PUSH1 0x4 CALLDATASIZE LT PUSH2 0x4C JUMPI PUSH1 0x0 CALLDATALOAD PUSH1 0xE0 SHR DUP1 PUSH4 0x2FAE4FFD EQ PUSH2 0x51 JUMPI DUP1 PUSH4 0x6057361D EQ PUSH2 0x81 JUMPI DUP1 PUSH4 0xA6B7FC5B EQ PUSH2 0x9D JUMPI DUP1 PUSH4 0xBC832D4E EQ PUSH2 0xBB JUMPI JUMPDEST PUSH1 0x0 DUP1 REVERT JUMPDEST PUSH2 0x6B PUSH1 0x4 DUP1 CALLDATASIZE SUB DUP2 ADD SWAP1 PUSH2 0x66 SWAP2 SWAP1 PUSH2 0x342 JUMP JUMPDEST PUSH2 0xD7 JUMP JUMPDEST PUSH1 0x40 MLOAD PUSH2 0x78 SWAP2 SWAP1 PUSH2 0x3A4 JUMP JUMPDEST PUSH1 0x40 MLOAD DUP1 SWAP2 SUB SWAP1 RETURN JUMPDEST PUSH2 0x9B PUSH1 0x4 DUP1 CALLDATASIZE SUB DUP2 ADD SWAP1 PUSH2 0x96 SWAP2 SWAP1 PUSH2 0x3EB JUMP JUMPDEST PUSH2 0x105 JUMP JUMPDEST STOP JUMPDEST PUSH2 0xA5 PUSH2 0x10F JUMP JUMPDEST PUSH1 0x40 MLOAD PUSH2 0xB2 SWAP2 SWAP1 PUSH2 0x3A4 JUMP JUMPDEST PUSH1 0x40 MLOAD DUP1 SWAP2 SUB SWAP1 RETURN JUMPDEST PUSH2 0xD5 PUSH1 0x4 DUP1 CALLDATASIZE SUB DUP2 ADD SWAP1 PUSH2 0xD0 SWAP2 SWAP1 PUSH2 0x478 JUMP JUMPDEST PUSH2 0x118 JUMP JUMPDEST STOP JUMPDEST PUSH1 0x2 DUP2 DUP1 MLOAD PUSH1 0x20 DUP2 ADD DUP3 ADD DUP1 MLOAD DUP5 DUP3 MSTORE PUSH1 0x20 DUP4 ADD PUSH1 0x20 DUP6 ADD KECCAK256 DUP2 DUP4 MSTORE DUP1 SWAP6 POP POP POP POP POP POP PUSH1 0x0 SWAP2 POP SWAP1 POP SLOAD DUP2 JUMP JUMPDEST DUP1 PUSH1 0x0 DUP2 SWAP1 SSTORE POP POP JUMP JUMPDEST PUSH1 0x0 DUP1 SLOAD SWAP1 POP SWAP1 JUMP JUMPDEST PUSH1 0x1 PUSH1 0x40 MLOAD DUP1 PUSH1 0x40 ADD PUSH1 0x40 MSTORE DUP1 DUP6 DUP2 MSTORE PUSH1 0x20 ADD DUP5 DUP5 DUP1 DUP1 PUSH1 0x1F ADD PUSH1 0x20 DUP1 SWAP2 DIV MUL PUSH1 0x20 ADD PUSH1 0x40 MLOAD SWAP1 DUP2 ADD PUSH1 0x40 MSTORE DUP1 SWAP4 SWAP3 SWAP2 SWAP1 DUP2 DUP2 MSTORE PUSH1 0x20 ADD DUP4 DUP4 DUP1 DUP3 DUP5 CALLDATACOPY PUSH1 0x0 DUP2 DUP5 ADD MSTORE PUSH1 0x1F NOT PUSH1 0x1F DUP3 ADD AND SWAP1 POP DUP1 DUP4 ADD SWAP3 POP POP POP POP POP POP POP DUP2 MSTORE POP SWAP1 DUP1 PUSH1 0x1 DUP2 SLOAD ADD DUP1 DUP3 SSTORE DUP1 SWAP2 POP POP PUSH1 0x1 SWAP1 SUB SWAP1 PUSH1 0x0 MSTORE PUSH1 0x20 PUSH1 0x0 KECCAK256 SWAP1 PUSH1 0x2 MUL ADD PUSH1 0x0 SWAP1 SWAP2 SWAP1 SWAP2 SWAP1 SWAP2 POP PUSH1 0x0 DUP3 ADD MLOAD DUP2 PUSH1 0x0 ADD SSTORE PUSH1 0x20 DUP3 ADD MLOAD DUP2 PUSH1 0x1 ADD SWAP1 DUP2 PUSH2 0x1BB SWAP2 SWAP1 PUSH2 0x6EF JUMP JUMPDEST POP POP POP DUP3 PUSH1 0x2 DUP4 DUP4 PUSH1 0x40 MLOAD PUSH2 0x1D1 SWAP3 SWAP2 SWAP1 PUSH2 0x7F1 JUMP JUMPDEST SWAP1 DUP2 MSTORE PUSH1 0x20 ADD PUSH1 0x40 MLOAD DUP1 SWAP2 SUB SWAP1 KECCAK256 DUP2 SWAP1 SSTORE POP POP POP POP JUMP JUMPDEST PUSH1 0x0 PUSH1 0x40 MLOAD SWAP1 POP SWAP1 JUMP JUMPDEST PUSH1 0x0 DUP1 REVERT JUMPDEST PUSH1 0x0 DUP1 REVERT JUMPDEST PUSH1 0x0 DUP1 REVERT JUMPDEST PUSH1 0x0 DUP1 REVERT JUMPDEST PUSH1 0x0 PUSH1 0x1F NOT PUSH1 0x1F DUP4 ADD AND SWAP1 POP SWAP2 SWAP1 POP JUMP JUMPDEST PUSH32 0x4E487B7100000000000000000000000000000000000000000000000000000000 PUSH1 0x0 MSTORE PUSH1 0x41 PUSH1 0x4 MSTORE PUSH1 0x24 PUSH1 0x0 REVERT JUMPDEST PUSH2 0x24F DUP3 PUSH2 0x206 JUMP JUMPDEST DUP2 ADD DUP2 DUP2 LT PUSH8 0xFFFFFFFFFFFFFFFF DUP3 GT OR ISZERO PUSH2 0x26E JUMPI PUSH2 0x26D PUSH2 0x217 JUMP JUMPDEST JUMPDEST DUP1 PUSH1 0x40 MSTORE POP POP POP JUMP JUMPDEST PUSH1 0x0 PUSH2 0x281 PUSH2 0x1E8 JUMP JUMPDEST SWAP1 POP PUSH2 0x28D DUP3 DUP3 PUSH2 0x246 JUMP JUMPDEST SWAP2 SWAP1 POP JUMP JUMPDEST PUSH1 0x0 PUSH8 0xFFFFFFFFFFFFFFFF DUP3 GT ISZERO PUSH2 0x2AD JUMPI PUSH2 0x2AC PUSH2 0x217 JUMP JUMPDEST JUMPDEST PUSH2 0x2B6 DUP3 PUSH2 0x206 JUMP JUMPDEST SWAP1 POP PUSH1 0x20 DUP2 ADD SWAP1 POP SWAP2 SWAP1 POP JUMP JUMPDEST DUP3 DUP2 DUP4 CALLDATACOPY PUSH1 0x0 DUP4 DUP4 ADD MSTORE POP POP POP JUMP JUMPDEST PUSH1 0x0 PUSH2 0x2E5 PUSH2 0x2E0 DUP5 PUSH2 0x292 JUMP JUMPDEST PUSH2 0x277 JUMP JUMPDEST SWAP1 POP DUP3 DUP2 MSTORE PUSH1 0x20 DUP2 ADD DUP5 DUP5 DUP5 ADD GT ISZERO PUSH2 0x301 JUMPI PUSH2 0x300 PUSH2 0x201 JUMP JUMPDEST JUMPDEST PUSH2 0x30C DUP5 DUP3 DUP6 PUSH2 0x2C3 JUMP JUMPDEST POP SWAP4 SWAP3 POP POP POP JUMP JUMPDEST PUSH1 0x0 DUP3 PUSH1 0x1F DUP4 ADD SLT PUSH2 0x329 JUMPI PUSH2 0x328 PUSH2 0x1FC JUMP JUMPDEST JUMPDEST DUP2 CALLDATALOAD PUSH2 0x339 DUP5 DUP3 PUSH1 0x20 DUP7 ADD PUSH2 0x2D2 JUMP JUMPDEST SWAP2 POP POP SWAP3 SWAP2 POP POP JUMP JUMPDEST PUSH1 0x0 PUSH1 0x20 DUP3 DUP5 SUB SLT ISZERO PUSH2 0x358 JUMPI PUSH2 0x357 PUSH2 0x1F2 JUMP JUMPDEST JUMPDEST PUSH1 0x0 DUP3 ADD CALLDATALOAD PUSH8 0xFFFFFFFFFFFFFFFF DUP2 GT ISZERO PUSH2 0x376 JUMPI PUSH2 0x375 PUSH2 0x1F7 JUMP JUMPDEST JUMPDEST PUSH2 0x382 DUP5 DUP3 DUP6 ADD PUSH2 0x314 JUMP JUMPDEST SWAP2 POP POP SWAP3 SWAP2 POP POP JUMP JUMPDEST PUSH1 0x0 DUP2 SWAP1 POP SWAP2 SWAP1 POP JUMP JUMPDEST PUSH2 0x39E DUP2 PUSH2 0x38B JUMP JUMPDEST DUP3 MSTORE POP POP JUMP JUMPDEST PUSH1 0x0 PUSH1 0x20 DUP3 ADD SWAP1 POP PUSH2 0x3B9 PUSH1 0x0 DUP4 ADD DUP5 PUSH2 0x395 JUMP JUMPDEST SWAP3 SWAP2 POP POP JUMP JUMPDEST PUSH2 0x3C8 DUP2 PUSH2 0x38B JUMP JUMPDEST DUP2 EQ PUSH2 0x3D3 JUMPI PUSH1 0x0 DUP1 REVERT JUMPDEST POP JUMP JUMPDEST PUSH1 0x0 DUP2 CALLDATALOAD SWAP1 POP PUSH2 0x3E5 DUP2 PUSH2 0x3BF JUMP JUMPDEST SWAP3 SWAP2 POP POP JUMP JUMPDEST PUSH1 0x0 PUSH1 0x20 DUP3 DUP5 SUB SLT ISZERO PUSH2 0x401 JUMPI PUSH2 0x400 PUSH2 0x1F2 JUMP JUMPDEST JUMPDEST PUSH1 0x0 PUSH2 0x40F DUP5 DUP3 DUP6 ADD PUSH2 0x3D6 JUMP JUMPDEST SWAP2 POP POP SWAP3 SWAP2 POP POP JUMP JUMPDEST PUSH1 0x0 DUP1 REVERT JUMPDEST PUSH1 0x0 DUP1 REVERT JUMPDEST PUSH1 0x0 DUP1 DUP4 PUSH1 0x1F DUP5 ADD SLT PUSH2 0x438 JUMPI PUSH2 0x437 PUSH2 0x1FC JUMP JUMPDEST JUMPDEST DUP3 CALLDATALOAD SWAP1 POP PUSH8 0xFFFFFFFFFFFFFFFF DUP2 GT ISZERO PUSH2 0x455 JUMPI PUSH2 0x454 PUSH2 0x418 JUMP JUMPDEST JUMPDEST PUSH1 0x20 DUP4 ADD SWAP2 POP DUP4 PUSH1 0x1 DUP3 MUL DUP4 ADD GT ISZERO PUSH2 0x471 JUMPI PUSH2 0x470 PUSH2 0x41D JUMP JUMPDEST JUMPDEST SWAP3 POP SWAP3 SWAP1 POP JUMP JUMPDEST PUSH1 0x0 DUP1 PUSH1 0x0 PUSH1 0x40 DUP5 DUP7 SUB SLT ISZERO PUSH2 0x491 JUMPI PUSH2 0x490 PUSH2 0x1F2 JUMP JUMPDEST JUMPDEST PUSH1 0x0 PUSH2 0x49F DUP7 DUP3 DUP8 ADD PUSH2 0x3D6 JUMP JUMPDEST SWAP4 POP POP PUSH1 0x20 DUP5 ADD CALLDATALOAD PUSH8 0xFFFFFFFFFFFFFFFF DUP2 GT ISZERO PUSH2 0x4C0 JUMPI PUSH2 0x4BF PUSH2 0x1F7 JUMP JUMPDEST JUMPDEST PUSH2 0x4CC DUP7 DUP3 DUP8 ADD PUSH2 0x422 JUMP JUMPDEST SWAP3 POP SWAP3 POP POP SWAP3 POP SWAP3 POP SWAP3 JUMP JUMPDEST PUSH1 0x0 DUP2 MLOAD SWAP1 POP SWAP2 SWAP1 POP JUMP JUMPDEST PUSH32 0x4E487B7100000000000000000000000000000000000000000000000000000000 PUSH1 0x0 MSTORE PUSH1 0x22 PUSH1 0x4 MSTORE PUSH1 0x24 PUSH1 0x0 REVERT JUMPDEST PUSH1 0x0 PUSH1 0x2 DUP3 DIV SWAP1 POP PUSH1 0x1 DUP3 AND DUP1 PUSH2 0x52A JUMPI PUSH1 0x7F DUP3 AND SWAP2 POP JUMPDEST PUSH1 0x20 DUP3 LT DUP2 SUB PUSH2 0x53D JUMPI PUSH2 0x53C PUSH2 0x4E3 JUMP JUMPDEST JUMPDEST POP SWAP2 SWAP1 POP JUMP JUMPDEST PUSH1 0x0 DUP2 SWAP1 POP DUP2 PUSH1 0x0 MSTORE PUSH1 0x20 PUSH1 0x0 KECCAK256 SWAP1 POP SWAP2 SWAP1 POP JUMP JUMPDEST PUSH1 0x0 PUSH1 0x20 PUSH1 0x1F DUP4 ADD DIV SWAP1 POP SWAP2 SWAP1 POP JUMP JUMPDEST PUSH1 0x0 DUP3 DUP3 SHL SWAP1 POP SWAP3 SWAP2 POP POP JUMP JUMPDEST PUSH1 0x0 PUSH1 0x8 DUP4 MUL PUSH2 0x5A5 PUSH32 0xFFFFFFFFFFFFFFFFFFFFFFFFFFFFFFFFFFFFFFFFFFFFFFFFFFFFFFFFFFFFFFFF DUP3 PUSH2 0x568 JUMP JUMPDEST PUSH2 0x5AF DUP7 DUP4 PUSH2 0x568 JUMP JUMPDEST SWAP6 POP DUP1 NOT DUP5 AND SWAP4 POP DUP1 DUP7 AND DUP5 OR SWAP3 POP POP POP SWAP4 SWAP3 POP POP POP JUMP JUMPDEST PUSH1 0x0 DUP2 SWAP1 POP SWAP2 SWAP1 POP JUMP JUMPDEST PUSH1 0x0 PUSH2 0x5EC PUSH2 0x5E7 PUSH2 0x5E2 DUP5 PUSH2 0x38B JUMP JUMPDEST PUSH2 0x5C7 JUMP JUMPDEST PUSH2 0x38B JUMP JUMPDEST SWAP1 POP SWAP2 SWAP1 POP JUMP JUMPDEST PUSH1 0x0 DUP2 SWAP1 POP SWAP2 SWAP1 POP JUMP JUMPDEST PUSH2 0x606 DUP4 PUSH2 0x5D1 JUMP JUMPDEST PUSH2 0x61A PUSH2 0x612 DUP3 PUSH2 0x5F3 JUMP JUMPDEST DUP5 DUP5 SLOAD PUSH2 0x575 JUMP JUMPDEST DUP3 SSTORE POP POP POP POP JUMP JUMPDEST PUSH1 0x0 SWAP1 JUMP JUMPDEST PUSH2 0x62F PUSH2 0x622 JUMP JUMPDEST PUSH2 0x63A DUP2 DUP5 DUP5 PUSH2 0x5FD JUMP JUMPDEST POP POP POP JUMP JUMPDEST JUMPDEST DUP2 DUP2 LT ISZERO PUSH2 0x65E JUMPI PUSH2 0x653 PUSH1 0x0 DUP3 PUSH2 0x627 JUMP JUMPDEST PUSH1 0x1 DUP2 ADD SWAP1 POP PUSH2 0x640 JUMP JUMPDEST POP POP JUMP JUMPDEST PUSH1 0x1F DUP3 GT ISZERO PUSH2 0x6A3 JUMPI PUSH2 0x674 DUP2 PUSH2 0x543 JUMP JUMPDEST PUSH2 0x67D DUP5 PUSH2 0x558 JUMP JUMPDEST DUP2 ADD PUSH1 0x20 DUP6 LT ISZERO PUSH2 0x68C JUMPI DUP2 SWAP1 POP JUMPDEST PUSH2 0x6A0 PUSH2 0x698 DUP6 PUSH2 0x558 JUMP JUMPDEST DUP4 ADD DUP3 PUSH2 0x63F JUMP JUMPDEST POP POP JUMPDEST POP POP POP JUMP JUMPDEST PUSH1 0x0 DUP3 DUP3 SHR SWAP1 POP SWAP3 SWAP2 POP POP JUMP JUMPDEST PUSH1 0x0 PUSH2 0x6C6 PUSH1 0x0 NOT DUP5 PUSH1 0x8 MUL PUSH2 0x6A8 JUMP JUMPDEST NOT DUP1 DUP4 AND SWAP2 POP POP SWAP3 SWAP2 POP POP JUMP JUMPDEST PUSH1 0x0 PUSH2 0x6DF DUP4 DUP4 PUSH2 0x6B5 JUMP JUMPDEST SWAP2 POP DUP3 PUSH1 0x2 MUL DUP3 OR SWAP1 POP SWAP3 SWAP2 POP POP JUMP JUMPDEST PUSH2 0x6F8 DUP3 PUSH2 0x4D8 JUMP JUMPDEST PUSH8 0xFFFFFFFFFFFFFFFF DUP2 GT ISZERO PUSH2 0x711 JUMPI PUSH2 0x710 PUSH2 0x217 JUMP JUMPDEST JUMPDEST PUSH2 0x71B DUP3 SLOAD PUSH2 0x512 JUMP JUMPDEST PUSH2 0x726 DUP3 DUP3 DUP6 PUSH2 0x662 JUMP JUMPDEST PUSH1 0x0 PUSH1 0x20 SWAP1 POP PUSH1 0x1F DUP4 GT PUSH1 0x1 DUP2 EQ PUSH2 0x759 JUMPI PUSH1 0x0 DUP5 ISZERO PUSH2 0x747 JUMPI DUP3 DUP8 ADD MLOAD SWAP1 POP JUMPDEST PUSH2 0x751 DUP6 DUP3 PUSH2 0x6D3 JUMP JUMPDEST DUP7 SSTORE POP PUSH2 0x7B9 JUMP JUMPDEST PUSH1 0x1F NOT DUP5 AND PUSH2 0x767 DUP7 PUSH2 0x543 JUMP JUMPDEST PUSH1 0x0 JUMPDEST DUP3 DUP2 LT ISZERO PUSH2 0x78F JUMPI DUP5 DUP10 ADD MLOAD DUP3 SSTORE PUSH1 0x1 DUP3 ADD SWAP2 POP PUSH1 0x20 DUP6 ADD SWAP5 POP PUSH1 0x20 DUP2 ADD SWAP1 POP PUSH2 0x76A JUMP JUMPDEST DUP7 DUP4 LT ISZERO PUSH2 0x7AC JUMPI DUP5 DUP10 ADD MLOAD PUSH2 0x7A8 PUSH1 0x1F DUP10 AND DUP3 PUSH2 0x6B5 JUMP JUMPDEST DUP4 SSTORE POP JUMPDEST PUSH1 0x1 PUSH1 0x2 DUP9 MUL ADD DUP9 SSTORE POP POP POP JUMPDEST POP POP POP POP POP POP JUMP JUMPDEST PUSH1 0x0 DUP2 SWAP1 POP SWAP3 SWAP2 POP POP JUMP JUMPDEST PUSH1 0x0 PUSH2 0x7D8 DUP4 DUP6 PUSH2 0x7C1 JUMP JUMPDEST SWAP4 POP PUSH2 0x7E5 DUP4 DUP6 DUP5 PUSH2 0x2C3 JUMP JUMPDEST DUP3 DUP5 ADD SWAP1 POP SWAP4 SWAP3 POP POP POP JUMP JUMPDEST PUSH1 0x0 PUSH2 0x7FE DUP3 DUP5 DUP7 PUSH2 0x7CC JUMP JUMPDEST SWAP2 POP DUP2 SWAP1 POP SWAP4 SWAP3 POP POP POP JUMP INVALID LOG2 PUSH5 0x6970667358 0x22 SLT KECCAK256 SMOD 0x27 MUL DUP9 SMOD CALLDATASIZE LOG1 SLOAD DUP2 CALL SAR PUSH7 0xA1A46C9B3900F6 SWAP12 MLOAD 0xD6 BASEFEE 0xD6 0xB1 0xF8 0xE9 SWAP8 DUP11 PUSH28 0x695564736F6C63430008130033000000000000000000000000000000 "
				},
				"gasEstimates": {
					"creation": {
						"codeDepositCost": "422400",
						"executionCost": "455",
						"totalCost": "422855"
					},
					"external": {
						"addPerson(uint256,string)": "infinite",
						"nameToNumber(string)": "infinite",
						"retrive()": "2459",
						"store(uint256)": "22520"
					}
				},
				"methodIdentifiers": {
					"addPerson(uint256,string)": "bc832d4e",
					"nameToNumber(string)": "2fae4ffd",
					"retrive()": "a6b7fc5b",
					"store(uint256)": "6057361d"
				}
			},
			"storageLayout": {
				"storage": [
					{
						"astId": 3,
						"contract": "SimpleStorage.sol:SimpleStorage",
						"label": "favoriteNumber",
						"offset": 0,
						"slot": "0",
						"type": "t_uint256"
					},
					{
						"astId": 12,
						"contract": "SimpleStorage.sol:SimpleStorage",
						"label": "listPerson",
						"offset": 0,
						"slot": "1",
						"type": "t_array(t_struct(Person)8_storage)dyn_storage"
					},
					{
						"astId": 16,
						"contract": "SimpleStorage.sol:SimpleStorage",
						"label": "nameToNumber",
						"offset": 0,
						"slot": "2",
						"type": "t_mapping(t_string_memory_ptr,t_uint256)"
					}
				],
				"types": {
					"t_array(t_struct(Person)8_storage)dyn_storage": {
						"base": "t_struct(Person)8_storage",
						"encoding": "dynamic_array",
						"label": "struct SimpleStorage.Person[]",
						"numberOfBytes": "32"
					},
					"t_mapping(t_string_memory_ptr,t_uint256)": {
						"encoding": "mapping",
						"key": "t_string_memory_ptr",
						"label": "mapping(string => uint256)",
						"numberOfBytes": "32",
						"value": "t_uint256"
					},
					"t_string_memory_ptr": {
						"encoding": "bytes",
						"label": "string",
						"numberOfBytes": "32"
					},
					"t_string_storage": {
						"encoding": "bytes",
						"label": "string",
						"numberOfBytes": "32"
					},
					"t_struct(Person)8_storage": {
						"encoding": "inplace",
						"label": "struct SimpleStorage.Person",
						"members": [
							{
								"astId": 5,
								"contract": "SimpleStorage.sol:SimpleStorage",
								"label": "number",
								"offset": 0,
								"slot": "0",
								"type": "t_uint256"
							},
							{
								"astId": 7,
								"contract": "SimpleStorage.sol:SimpleStorage",
								"label": "name",
								"offset": 0,
								"slot": "1",
								"type": "t_string_storage"
							}
						],
						"numberOfBytes": "64"
					},
					"t_uint256": {
						"encoding": "inplace",
						"label": "uint256",
						"numberOfBytes": "32"
					}
				}
			},
			"userdoc": {
				"kind": "user",
				"methods": {},
				"version": 1
			}
		}
	}
}