{
	"AddFiveStorage.sol": {
		"AddFiveStorage": {
			"abi": [
				{
					"inputs": [
						{
							"internalType": "uint256",
							"name": "_number",
							"type": "uint256"
						},
						{
							"internalType": "string",
							"name": "_name",
							"type": "string"
						}
					],
					"name": "addPerson",
					"outputs": [],
					"stateMutability": "nonpayable",
					"type": "function"
				},
				{
					"inputs": [
						{
							"internalType": "string",
							"name": "",
							"type": "string"
						}
					],
					"name": "nameToNumber",
					"outputs": [
						{
							"internalType": "uint256",
							"name": "",
							"type": "uint256"
						}
					],
					"stateMutability": "view",
					"type": "function"
				},
				{
					"inputs": [],
					"name": "retrive",
					"outputs": [
						{
							"internalType": "uint256",
							"name": "",
							"type": "uint256"
						}
					],
					"stateMutability": "view",
					"type": "function"
				},
				{
					"inputs": [
						{
							"internalType": "uint256",
							"name": "_number",
							"type": "uint256"
						}
					],
					"name": "store",
					"outputs": [],
					"stateMutability": "nonpayable",
					"type": "function"
				}
			],
			"devdoc": {
				"kind": "dev",
				"methods": {},
				"version": 1
			},
			"evm": {
				"assembly": "    /* \"AddFiveStorage.sol\":114:310  contract AddFiveStorage is SimpleStorage{... */\n  mstore(0x40, 0x80)\n  callvalue\n  dup1\n  iszero\n  tag_1\n  jumpi\n  0x00\n  dup1\n  revert\ntag_1:\n  pop\n  dataSize(sub_0)\n  dup1\n  dataOffset(sub_0)\n  0x00\n  codecopy\n  0x00\n  return\nstop\n\nsub_0: assembly {\n        /* \"AddFiveStorage.sol\":114:310  contract AddFiveStorage is SimpleStorage{... */\n      mstore(0x40, 0x80)\n      callvalue\n      dup1\n      iszero\n      tag_1\n      jumpi\n      0x00\n      dup1\n      revert\n    tag_1:\n      pop\n      jumpi(tag_2, lt(calldatasize, 0x04))\n      shr(0xe0, calldataload(0x00))\n      dup1\n      0x2fae4ffd\n      eq\n      tag_3\n      jumpi\n      dup1\n      0x6057361d\n      eq\n      tag_4\n      jumpi\n      dup1\n      0xa6b7fc5b\n      eq\n      tag_5\n      jumpi\n      dup1\n      0xbc832d4e\n      eq\n      tag_6\n      jumpi\n    tag_2:\n      0x00\n      dup1\n      revert\n        /* \"SimpleStorage.sol\":226:272  mapping(string => uint256) public nameToNumber */\n    tag_3:\n      tag_7\n      0x04\n      dup1\n      calldatasize\n      sub\n      dup2\n      add\n      swap1\n      tag_8\n      swap2\n      swap1\n      tag_9\n      jump\t// in\n    tag_8:\n      tag_10\n      jump\t// in\n    tag_7:\n      mload(0x40)\n      tag_11\n      swap2\n      swap1\n      tag_12\n      jump\t// in\n    tag_11:\n      mload(0x40)\n      dup1\n      swap2\n      sub\n      swap1\n      return\n        /* \"AddFiveStorage.sol\":212:307  function store (uint256 _number) override public {... */\n    tag_4:\n      tag_13\n      0x04\n      dup1\n      calldatasize\n      sub\n      dup2\n      add\n      swap1\n      tag_14\n      swap2\n      swap1\n      tag_15\n      jump\t// in\n    tag_14:\n      tag_16\n      jump\t// in\n    tag_13:\n      stop\n        /* \"SimpleStorage.sol\":395:482  function retrive() public view returns(uint256){... */\n    tag_5:\n      tag_17\n      tag_18\n      jump\t// in\n    tag_17:\n      mload(0x40)\n      tag_19\n      swap2\n      swap1\n      tag_12\n      jump\t// in\n    tag_19:\n      mload(0x40)\n      dup1\n      swap2\n      sub\n      swap1\n      return\n        /* \"SimpleStorage.sol\":494:658  function addPerson(uint256 _number, string calldata _name) public {... */\n    tag_6:\n      tag_20\n      0x04\n      dup1\n      calldatasize\n      sub\n      dup2\n      add\n      swap1\n      tag_21\n      swap2\n      swap1\n      tag_22\n      jump\t// in\n    tag_21:\n      tag_23\n      jump\t// in\n    tag_20:\n      stop\n        /* \"SimpleStorage.sol\":226:272  mapping(string => uint256) public nameToNumber */\n    tag_10:\n      0x02\n      dup2\n      dup1\n      mload\n      0x20\n      dup2\n      add\n      dup3\n      add\n      dup1\n      mload\n      dup5\n      dup3\n      mstore\n      0x20\n      dup4\n      add\n      0x20\n      dup6\n      add\n      keccak256\n      dup2\n      dup4\n      mstore\n      dup1\n      swap6\n      pop\n      pop\n      pop\n      pop\n      pop\n      pop\n      0x00\n      swap2\n      pop\n      swap1\n      pop\n      sload\n      dup2\n      jump\t// out\n        /* \"AddFiveStorage.sol\":212:307  function store (uint256 _number) override public {... */\n    tag_16:\n        /* \"AddFiveStorage.sol\":298:299  5 */\n      0x05\n        /* \"AddFiveStorage.sol\":289:296  _number */\n      dup2\n        /* \"AddFiveStorage.sol\":289:299  _number +5 */\n      tag_25\n      swap2\n      swap1\n      tag_26\n      jump\t// in\n    tag_25:\n        /* \"AddFiveStorage.sol\":272:286  favoriteNumber */\n      0x00\n        /* \"AddFiveStorage.sol\":272:299  favoriteNumber = _number +5 */\n      dup2\n      swap1\n      sstore\n      pop\n        /* \"AddFiveStorage.sol\":212:307  function store (uint256 _number) override public {... */\n      pop\n      jump\t// out\n        /* \"SimpleStorage.sol\":395:482  function retrive() public view returns(uint256){... */\n    tag_18:\n        /* \"SimpleStorage.sol\":434:441  uint256 */\n      0x00\n        /* \"SimpleStorage.sol\":460:474  favoriteNumber */\n      dup1\n      sload\n        /* \"SimpleStorage.sol\":453:474  return favoriteNumber */\n      swap1\n      pop\n        /* \"SimpleStorage.sol\":395:482  function retrive() public view returns(uint256){... */\n      swap1\n      jump\t// out\n        /* \"SimpleStorage.sol\":494:658  function addPerson(uint256 _number, string calldata _name) public {... */\n    tag_23:\n        /* \"SimpleStorage.sol\":571:581  listPerson */\n      0x01\n        /* \"SimpleStorage.sol\":587:609  Person(_number, _name) */\n      mload(0x40)\n      dup1\n      0x40\n      add\n      0x40\n      mstore\n      dup1\n        /* \"SimpleStorage.sol\":594:601  _number */\n      dup6\n        /* \"SimpleStorage.sol\":587:609  Person(_number, _name) */\n      dup2\n      mstore\n      0x20\n      add\n        /* \"SimpleStorage.sol\":603:608  _name */\n      dup5\n      dup5\n        /* \"SimpleStorage.sol\":587:609  Person(_number, _name) */\n      dup1\n      dup1\n      0x1f\n      add\n      0x20\n      dup1\n      swap2\n      div\n      mul\n      0x20\n      add\n      mload(0x40)\n      swap1\n      dup2\n      add\n      0x40\n      mstore\n      dup1\n      swap4\n      swap3\n      swap2\n      swap1\n      dup2\n      dup2\n      mstore\n      0x20\n      add\n      dup4\n      dup4\n      dup1\n      dup3\n      dup5\n      calldatacopy\n      0x00\n      dup2\n      dup5\n      add\n      mstore\n      not(0x1f)\n      0x1f\n      dup3\n      add\n      and\n      swap1\n      pop\n      dup1\n      dup4\n      add\n      swap3\n      pop\n      pop\n      pop\n      pop\n      pop\n      pop\n      pop\n      dup2\n      mstore\n      pop\n        /* \"SimpleStorage.sol\":571:610  listPerson.push(Person(_number, _name)) */\n      swap1\n      dup1\n      0x01\n      dup2\n      sload\n      add\n      dup1\n      dup3\n      sstore\n      dup1\n      swap2\n      pop\n      pop\n      0x01\n      swap1\n      sub\n      swap1\n      0x00\n      mstore\n      keccak256(0x00, 0x20)\n      swap1\n      0x02\n      mul\n      add\n      0x00\n      swap1\n      swap2\n      swap1\n      swap2\n      swap1\n      swap2\n      pop\n      0x00\n      dup3\n      add\n      mload\n      dup2\n      0x00\n      add\n      sstore\n      0x20\n      dup3\n      add\n      mload\n      dup2\n      0x01\n      add\n      swap1\n      dup2\n      tag_30\n      swap2\n      swap1\n      tag_31\n      jump\t// in\n    tag_30:\n      pop\n      pop\n      pop\n        /* \"SimpleStorage.sol\":643:650  _number */\n      dup3\n        /* \"SimpleStorage.sol\":621:633  nameToNumber */\n      0x02\n        /* \"SimpleStorage.sol\":634:639  _name */\n      dup4\n      dup4\n        /* \"SimpleStorage.sol\":621:640  nameToNumber[_name] */\n      mload(0x40)\n      tag_32\n      swap3\n      swap2\n      swap1\n      tag_33\n      jump\t// in\n    tag_32:\n      swap1\n      dup2\n      mstore\n      0x20\n      add\n      mload(0x40)\n      dup1\n      swap2\n      sub\n      swap1\n      keccak256\n        /* \"SimpleStorage.sol\":621:650  nameToNumber[_name] = _number */\n      dup2\n      swap1\n      sstore\n      pop\n        /* \"SimpleStorage.sol\":494:658  function addPerson(uint256 _number, string calldata _name) public {... */\n      pop\n      pop\n      pop\n      jump\t// out\n        /* \"#utility.yul\":7:82   */\n    tag_34:\n        /* \"#utility.yul\":40:46   */\n      0x00\n        /* \"#utility.yul\":73:75   */\n      0x40\n        /* \"#utility.yul\":67:76   */\n      mload\n        /* \"#utility.yul\":57:76   */\n      swap1\n      pop\n        /* \"#utility.yul\":7:82   */\n      swap1\n      jump\t// out\n        /* \"#utility.yul\":88:205   */\n    tag_35:\n        /* \"#utility.yul\":197:198   */\n      0x00\n        /* \"#utility.yul\":194:195   */\n      dup1\n        /* \"#utility.yul\":187:199   */\n      revert\n        /* \"#utility.yul\":211:328   */\n    tag_36:\n        /* \"#utility.yul\":320:321   */\n      0x00\n        /* \"#utility.yul\":317:318   */\n      dup1\n        /* \"#utility.yul\":310:322   */\n      revert\n        /* \"#utility.yul\":334:451   */\n    tag_37:\n        /* \"#utility.yul\":443:444   */\n      0x00\n        /* \"#utility.yul\":440:441   */\n      dup1\n        /* \"#utility.yul\":433:445   */\n      revert\n        /* \"#utility.yul\":457:574   */\n    tag_38:\n        /* \"#utility.yul\":566:567   */\n      0x00\n        /* \"#utility.yul\":563:564   */\n      dup1\n        /* \"#utility.yul\":556:568   */\n      revert\n        /* \"#utility.yul\":580:682   */\n    tag_39:\n        /* \"#utility.yul\":621:627   */\n      0x00\n        /* \"#utility.yul\":672:674   */\n      0x1f\n        /* \"#utility.yul\":668:675   */\n      not\n        /* \"#utility.yul\":663:665   */\n      0x1f\n        /* \"#utility.yul\":656:661   */\n      dup4\n        /* \"#utility.yul\":652:666   */\n      add\n        /* \"#utility.yul\":648:676   */\n      and\n        /* \"#utility.yul\":638:676   */\n      swap1\n      pop\n        /* \"#utility.yul\":580:682   */\n      swap2\n      swap1\n      pop\n      jump\t// out\n        /* \"#utility.yul\":688:868   */\n    tag_40:\n        /* \"#utility.yul\":736:813   */\n      0x4e487b7100000000000000000000000000000000000000000000000000000000\n        /* \"#utility.yul\":733:734   */\n      0x00\n        /* \"#utility.yul\":726:814   */\n      mstore\n        /* \"#utility.yul\":833:837   */\n      0x41\n        /* \"#utility.yul\":830:831   */\n      0x04\n        /* \"#utility.yul\":823:838   */\n      mstore\n        /* \"#utility.yul\":857:861   */\n      0x24\n        /* \"#utility.yul\":854:855   */\n      0x00\n        /* \"#utility.yul\":847:862   */\n      revert\n        /* \"#utility.yul\":874:1155   */\n    tag_41:\n        /* \"#utility.yul\":957:984   */\n      tag_84\n        /* \"#utility.yul\":979:983   */\n      dup3\n        /* \"#utility.yul\":957:984   */\n      tag_39\n      jump\t// in\n    tag_84:\n        /* \"#utility.yul\":949:955   */\n      dup2\n        /* \"#utility.yul\":945:985   */\n      add\n        /* \"#utility.yul\":1087:1093   */\n      dup2\n        /* \"#utility.yul\":1075:1085   */\n      dup2\n        /* \"#utility.yul\":1072:1094   */\n      lt\n        /* \"#utility.yul\":1051:1069   */\n      0xffffffffffffffff\n        /* \"#utility.yul\":1039:1049   */\n      dup3\n        /* \"#utility.yul\":1036:1070   */\n      gt\n        /* \"#utility.yul\":1033:1095   */\n      or\n        /* \"#utility.yul\":1030:1118   */\n      iszero\n      tag_85\n      jumpi\n        /* \"#utility.yul\":1098:1116   */\n      tag_86\n      tag_40\n      jump\t// in\n    tag_86:\n        /* \"#utility.yul\":1030:1118   */\n    tag_85:\n        /* \"#utility.yul\":1138:1148   */\n      dup1\n        /* \"#utility.yul\":1134:1136   */\n      0x40\n        /* \"#utility.yul\":1127:1149   */\n      mstore\n        /* \"#utility.yul\":917:1155   */\n      pop\n        /* \"#utility.yul\":874:1155   */\n      pop\n      pop\n      jump\t// out\n        /* \"#utility.yul\":1161:1290   */\n    tag_42:\n        /* \"#utility.yul\":1195:1201   */\n      0x00\n        /* \"#utility.yul\":1222:1242   */\n      tag_88\n      tag_34\n      jump\t// in\n    tag_88:\n        /* \"#utility.yul\":1212:1242   */\n      swap1\n      pop\n        /* \"#utility.yul\":1251:1284   */\n      tag_89\n        /* \"#utility.yul\":1279:1283   */\n      dup3\n        /* \"#utility.yul\":1271:1277   */\n      dup3\n        /* \"#utility.yul\":1251:1284   */\n      tag_41\n      jump\t// in\n    tag_89:\n        /* \"#utility.yul\":1161:1290   */\n      swap2\n      swap1\n      pop\n      jump\t// out\n        /* \"#utility.yul\":1296:1604   */\n    tag_43:\n        /* \"#utility.yul\":1358:1362   */\n      0x00\n        /* \"#utility.yul\":1448:1466   */\n      0xffffffffffffffff\n        /* \"#utility.yul\":1440:1446   */\n      dup3\n        /* \"#utility.yul\":1437:1467   */\n      gt\n        /* \"#utility.yul\":1434:1490   */\n      iszero\n      tag_91\n      jumpi\n        /* \"#utility.yul\":1470:1488   */\n      tag_92\n      tag_40\n      jump\t// in\n    tag_92:\n        /* \"#utility.yul\":1434:1490   */\n    tag_91:\n        /* \"#utility.yul\":1508:1537   */\n      tag_93\n        /* \"#utility.yul\":1530:1536   */\n      dup3\n        /* \"#utility.yul\":1508:1537   */\n      tag_39\n      jump\t// in\n    tag_93:\n        /* \"#utility.yul\":1500:1537   */\n      swap1\n      pop\n        /* \"#utility.yul\":1592:1596   */\n      0x20\n        /* \"#utility.yul\":1586:1590   */\n      dup2\n        /* \"#utility.yul\":1582:1597   */\n      add\n        /* \"#utility.yul\":1574:1597   */\n      swap1\n      pop\n        /* \"#utility.yul\":1296:1604   */\n      swap2\n      swap1\n      pop\n      jump\t// out\n        /* \"#utility.yul\":1610:1756   */\n    tag_44:\n        /* \"#utility.yul\":1707:1713   */\n      dup3\n        /* \"#utility.yul\":1702:1705   */\n      dup2\n        /* \"#utility.yul\":1697:1700   */\n      dup4\n        /* \"#utility.yul\":1684:1714   */\n      calldatacopy\n        /* \"#utility.yul\":1748:1749   */\n      0x00\n        /* \"#utility.yul\":1739:1745   */\n      dup4\n        /* \"#utility.yul\":1734:1737   */\n      dup4\n        /* \"#utility.yul\":1730:1746   */\n      add\n        /* \"#utility.yul\":1723:1750   */\n      mstore\n        /* \"#utility.yul\":1610:1756   */\n      pop\n      pop\n      pop\n      jump\t// out\n        /* \"#utility.yul\":1762:2187   */\n    tag_45:\n        /* \"#utility.yul\":1840:1845   */\n      0x00\n        /* \"#utility.yul\":1865:1931   */\n      tag_96\n        /* \"#utility.yul\":1881:1930   */\n      tag_97\n        /* \"#utility.yul\":1923:1929   */\n      dup5\n        /* \"#utility.yul\":1881:1930   */\n      tag_43\n      jump\t// in\n    tag_97:\n        /* \"#utility.yul\":1865:1931   */\n      tag_42\n      jump\t// in\n    tag_96:\n        /* \"#utility.yul\":1856:1931   */\n      swap1\n      pop\n        /* \"#utility.yul\":1954:1960   */\n      dup3\n        /* \"#utility.yul\":1947:1952   */\n      dup2\n        /* \"#utility.yul\":1940:1961   */\n      mstore\n        /* \"#utility.yul\":1992:1996   */\n      0x20\n        /* \"#utility.yul\":1985:1990   */\n      dup2\n        /* \"#utility.yul\":1981:1997   */\n      add\n        /* \"#utility.yul\":2030:2033   */\n      dup5\n        /* \"#utility.yul\":2021:2027   */\n      dup5\n        /* \"#utility.yul\":2016:2019   */\n      dup5\n        /* \"#utility.yul\":2012:2028   */\n      add\n        /* \"#utility.yul\":2009:2034   */\n      gt\n        /* \"#utility.yul\":2006:2118   */\n      iszero\n      tag_98\n      jumpi\n        /* \"#utility.yul\":2037:2116   */\n      tag_99\n      tag_38\n      jump\t// in\n    tag_99:\n        /* \"#utility.yul\":2006:2118   */\n    tag_98:\n        /* \"#utility.yul\":2127:2181   */\n      tag_100\n        /* \"#utility.yul\":2174:2180   */\n      dup5\n        /* \"#utility.yul\":2169:2172   */\n      dup3\n        /* \"#utility.yul\":2164:2167   */\n      dup6\n        /* \"#utility.yul\":2127:2181   */\n      tag_44\n      jump\t// in\n    tag_100:\n        /* \"#utility.yul\":1846:2187   */\n      pop\n        /* \"#utility.yul\":1762:2187   */\n      swap4\n      swap3\n      pop\n      pop\n      pop\n      jump\t// out\n        /* \"#utility.yul\":2207:2547   */\n    tag_46:\n        /* \"#utility.yul\":2263:2268   */\n      0x00\n        /* \"#utility.yul\":2312:2315   */\n      dup3\n        /* \"#utility.yul\":2305:2309   */\n      0x1f\n        /* \"#utility.yul\":2297:2303   */\n      dup4\n        /* \"#utility.yul\":2293:2310   */\n      add\n        /* \"#utility.yul\":2289:2316   */\n      slt\n        /* \"#utility.yul\":2279:2401   */\n      tag_102\n      jumpi\n        /* \"#utility.yul\":2320:2399   */\n      tag_103\n      tag_37\n      jump\t// in\n    tag_103:\n        /* \"#utility.yul\":2279:2401   */\n    tag_102:\n        /* \"#utility.yul\":2437:2443   */\n      dup2\n        /* \"#utility.yul\":2424:2444   */\n      calldataload\n        /* \"#utility.yul\":2462:2541   */\n      tag_104\n        /* \"#utility.yul\":2537:2540   */\n      dup5\n        /* \"#utility.yul\":2529:2535   */\n      dup3\n        /* \"#utility.yul\":2522:2526   */\n      0x20\n        /* \"#utility.yul\":2514:2520   */\n      dup7\n        /* \"#utility.yul\":2510:2527   */\n      add\n        /* \"#utility.yul\":2462:2541   */\n      tag_45\n      jump\t// in\n    tag_104:\n        /* \"#utility.yul\":2453:2541   */\n      swap2\n      pop\n        /* \"#utility.yul\":2269:2547   */\n      pop\n        /* \"#utility.yul\":2207:2547   */\n      swap3\n      swap2\n      pop\n      pop\n      jump\t// out\n        /* \"#utility.yul\":2553:3062   */\n    tag_9:\n        /* \"#utility.yul\":2622:2628   */\n      0x00\n        /* \"#utility.yul\":2671:2673   */\n      0x20\n        /* \"#utility.yul\":2659:2668   */\n      dup3\n        /* \"#utility.yul\":2650:2657   */\n      dup5\n        /* \"#utility.yul\":2646:2669   */\n      sub\n        /* \"#utility.yul\":2642:2674   */\n      slt\n        /* \"#utility.yul\":2639:2758   */\n      iszero\n      tag_106\n      jumpi\n        /* \"#utility.yul\":2677:2756   */\n      tag_107\n      tag_35\n      jump\t// in\n    tag_107:\n        /* \"#utility.yul\":2639:2758   */\n    tag_106:\n        /* \"#utility.yul\":2825:2826   */\n      0x00\n        /* \"#utility.yul\":2814:2823   */\n      dup3\n        /* \"#utility.yul\":2810:2827   */\n      add\n        /* \"#utility.yul\":2797:2828   */\n      calldataload\n        /* \"#utility.yul\":2855:2873   */\n      0xffffffffffffffff\n        /* \"#utility.yul\":2847:2853   */\n      dup2\n        /* \"#utility.yul\":2844:2874   */\n      gt\n        /* \"#utility.yul\":2841:2958   */\n      iszero\n      tag_108\n      jumpi\n        /* \"#utility.yul\":2877:2956   */\n      tag_109\n      tag_36\n      jump\t// in\n    tag_109:\n        /* \"#utility.yul\":2841:2958   */\n    tag_108:\n        /* \"#utility.yul\":2982:3045   */\n      tag_110\n        /* \"#utility.yul\":3037:3044   */\n      dup5\n        /* \"#utility.yul\":3028:3034   */\n      dup3\n        /* \"#utility.yul\":3017:3026   */\n      dup6\n        /* \"#utility.yul\":3013:3035   */\n      add\n        /* \"#utility.yul\":2982:3045   */\n      tag_46\n      jump\t// in\n    tag_110:\n        /* \"#utility.yul\":2972:3045   */\n      swap2\n      pop\n        /* \"#utility.yul\":2768:3055   */\n      pop\n        /* \"#utility.yul\":2553:3062   */\n      swap3\n      swap2\n      pop\n      pop\n      jump\t// out\n        /* \"#utility.yul\":3068:3145   */\n    tag_47:\n        /* \"#utility.yul\":3105:3112   */\n      0x00\n        /* \"#utility.yul\":3134:3139   */\n      dup2\n        /* \"#utility.yul\":3123:3139   */\n      swap1\n      pop\n        /* \"#utility.yul\":3068:3145   */\n      swap2\n      swap1\n      pop\n      jump\t// out\n        /* \"#utility.yul\":3151:3269   */\n    tag_48:\n        /* \"#utility.yul\":3238:3262   */\n      tag_113\n        /* \"#utility.yul\":3256:3261   */\n      dup2\n        /* \"#utility.yul\":3238:3262   */\n      tag_47\n      jump\t// in\n    tag_113:\n        /* \"#utility.yul\":3233:3236   */\n      dup3\n        /* \"#utility.yul\":3226:3263   */\n      mstore\n        /* \"#utility.yul\":3151:3269   */\n      pop\n      pop\n      jump\t// out\n        /* \"#utility.yul\":3275:3497   */\n    tag_12:\n        /* \"#utility.yul\":3368:3372   */\n      0x00\n        /* \"#utility.yul\":3406:3408   */\n      0x20\n        /* \"#utility.yul\":3395:3404   */\n      dup3\n        /* \"#utility.yul\":3391:3409   */\n      add\n        /* \"#utility.yul\":3383:3409   */\n      swap1\n      pop\n        /* \"#utility.yul\":3419:3490   */\n      tag_115\n        /* \"#utility.yul\":3487:3488   */\n      0x00\n        /* \"#utility.yul\":3476:3485   */\n      dup4\n        /* \"#utility.yul\":3472:3489   */\n      add\n        /* \"#utility.yul\":3463:3469   */\n      dup5\n        /* \"#utility.yul\":3419:3490   */\n      tag_48\n      jump\t// in\n    tag_115:\n        /* \"#utility.yul\":3275:3497   */\n      swap3\n      swap2\n      pop\n      pop\n      jump\t// out\n        /* \"#utility.yul\":3503:3625   */\n    tag_49:\n        /* \"#utility.yul\":3576:3600   */\n      tag_117\n        /* \"#utility.yul\":3594:3599   */\n      dup2\n        /* \"#utility.yul\":3576:3600   */\n      tag_47\n      jump\t// in\n    tag_117:\n        /* \"#utility.yul\":3569:3574   */\n      dup2\n        /* \"#utility.yul\":3566:3601   */\n      eq\n        /* \"#utility.yul\":3556:3619   */\n      tag_118\n      jumpi\n        /* \"#utility.yul\":3615:3616   */\n      0x00\n        /* \"#utility.yul\":3612:3613   */\n      dup1\n        /* \"#utility.yul\":3605:3617   */\n      revert\n        /* \"#utility.yul\":3556:3619   */\n    tag_118:\n        /* \"#utility.yul\":3503:3625   */\n      pop\n      jump\t// out\n        /* \"#utility.yul\":3631:3770   */\n    tag_50:\n        /* \"#utility.yul\":3677:3682   */\n      0x00\n        /* \"#utility.yul\":3715:3721   */\n      dup2\n        /* \"#utility.yul\":3702:3722   */\n      calldataload\n        /* \"#utility.yul\":3693:3722   */\n      swap1\n      pop\n        /* \"#utility.yul\":3731:3764   */\n      tag_120\n        /* \"#utility.yul\":3758:3763   */\n      dup2\n        /* \"#utility.yul\":3731:3764   */\n      tag_49\n      jump\t// in\n    tag_120:\n        /* \"#utility.yul\":3631:3770   */\n      swap3\n      swap2\n      pop\n      pop\n      jump\t// out\n        /* \"#utility.yul\":3776:4105   */\n    tag_15:\n        /* \"#utility.yul\":3835:3841   */\n      0x00\n        /* \"#utility.yul\":3884:3886   */\n      0x20\n        /* \"#utility.yul\":3872:3881   */\n      dup3\n        /* \"#utility.yul\":3863:3870   */\n      dup5\n        /* \"#utility.yul\":3859:3882   */\n      sub\n        /* \"#utility.yul\":3855:3887   */\n      slt\n        /* \"#utility.yul\":3852:3971   */\n      iszero\n      tag_122\n      jumpi\n        /* \"#utility.yul\":3890:3969   */\n      tag_123\n      tag_35\n      jump\t// in\n    tag_123:\n        /* \"#utility.yul\":3852:3971   */\n    tag_122:\n        /* \"#utility.yul\":4010:4011   */\n      0x00\n        /* \"#utility.yul\":4035:4088   */\n      tag_124\n        /* \"#utility.yul\":4080:4087   */\n      dup5\n        /* \"#utility.yul\":4071:4077   */\n      dup3\n        /* \"#utility.yul\":4060:4069   */\n      dup6\n        /* \"#utility.yul\":4056:4078   */\n      add\n        /* \"#utility.yul\":4035:4088   */\n      tag_50\n      jump\t// in\n    tag_124:\n        /* \"#utility.yul\":4025:4088   */\n      swap2\n      pop\n        /* \"#utility.yul\":3981:4098   */\n      pop\n        /* \"#utility.yul\":3776:4105   */\n      swap3\n      swap2\n      pop\n      pop\n      jump\t// out\n        /* \"#utility.yul\":4111:4228   */\n    tag_51:\n        /* \"#utility.yul\":4220:4221   */\n      0x00\n        /* \"#utility.yul\":4217:4218   */\n      dup1\n        /* \"#utility.yul\":4210:4222   */\n      revert\n        /* \"#utility.yul\":4234:4351   */\n    tag_52:\n        /* \"#utility.yul\":4343:4344   */\n      0x00\n        /* \"#utility.yul\":4340:4341   */\n      dup1\n        /* \"#utility.yul\":4333:4345   */\n      revert\n        /* \"#utility.yul\":4371:4924   */\n    tag_53:\n        /* \"#utility.yul\":4429:4437   */\n      0x00\n        /* \"#utility.yul\":4439:4445   */\n      dup1\n        /* \"#utility.yul\":4489:4492   */\n      dup4\n        /* \"#utility.yul\":4482:4486   */\n      0x1f\n        /* \"#utility.yul\":4474:4480   */\n      dup5\n        /* \"#utility.yul\":4470:4487   */\n      add\n        /* \"#utility.yul\":4466:4493   */\n      slt\n        /* \"#utility.yul\":4456:4578   */\n      tag_128\n      jumpi\n        /* \"#utility.yul\":4497:4576   */\n      tag_129\n      tag_37\n      jump\t// in\n    tag_129:\n        /* \"#utility.yul\":4456:4578   */\n    tag_128:\n        /* \"#utility.yul\":4610:4616   */\n      dup3\n        /* \"#utility.yul\":4597:4617   */\n      calldataload\n        /* \"#utility.yul\":4587:4617   */\n      swap1\n      pop\n        /* \"#utility.yul\":4640:4658   */\n      0xffffffffffffffff\n        /* \"#utility.yul\":4632:4638   */\n      dup2\n        /* \"#utility.yul\":4629:4659   */\n      gt\n        /* \"#utility.yul\":4626:4743   */\n      iszero\n      tag_130\n      jumpi\n        /* \"#utility.yul\":4662:4741   */\n      tag_131\n      tag_51\n      jump\t// in\n    tag_131:\n        /* \"#utility.yul\":4626:4743   */\n    tag_130:\n        /* \"#utility.yul\":4776:4780   */\n      0x20\n        /* \"#utility.yul\":4768:4774   */\n      dup4\n        /* \"#utility.yul\":4764:4781   */\n      add\n        /* \"#utility.yul\":4752:4781   */\n      swap2\n      pop\n        /* \"#utility.yul\":4830:4833   */\n      dup4\n        /* \"#utility.yul\":4822:4826   */\n      0x01\n        /* \"#utility.yul\":4814:4820   */\n      dup3\n        /* \"#utility.yul\":4810:4827   */\n      mul\n        /* \"#utility.yul\":4800:4808   */\n      dup4\n        /* \"#utility.yul\":4796:4828   */\n      add\n        /* \"#utility.yul\":4793:4834   */\n      gt\n        /* \"#utility.yul\":4790:4918   */\n      iszero\n      tag_132\n      jumpi\n        /* \"#utility.yul\":4837:4916   */\n      tag_133\n      tag_52\n      jump\t// in\n    tag_133:\n        /* \"#utility.yul\":4790:4918   */\n    tag_132:\n        /* \"#utility.yul\":4371:4924   */\n      swap3\n      pop\n      swap3\n      swap1\n      pop\n      jump\t// out\n        /* \"#utility.yul\":4930:5604   */\n    tag_22:\n        /* \"#utility.yul\":5010:5016   */\n      0x00\n        /* \"#utility.yul\":5018:5024   */\n      dup1\n        /* \"#utility.yul\":5026:5032   */\n      0x00\n        /* \"#utility.yul\":5075:5077   */\n      0x40\n        /* \"#utility.yul\":5063:5072   */\n      dup5\n        /* \"#utility.yul\":5054:5061   */\n      dup7\n        /* \"#utility.yul\":5050:5073   */\n      sub\n        /* \"#utility.yul\":5046:5078   */\n      slt\n        /* \"#utility.yul\":5043:5162   */\n      iszero\n      tag_135\n      jumpi\n        /* \"#utility.yul\":5081:5160   */\n      tag_136\n      tag_35\n      jump\t// in\n    tag_136:\n        /* \"#utility.yul\":5043:5162   */\n    tag_135:\n        /* \"#utility.yul\":5201:5202   */\n      0x00\n        /* \"#utility.yul\":5226:5279   */\n      tag_137\n        /* \"#utility.yul\":5271:5278   */\n      dup7\n        /* \"#utility.yul\":5262:5268   */\n      dup3\n        /* \"#utility.yul\":5251:5260   */\n      dup8\n        /* \"#utility.yul\":5247:5269   */\n      add\n        /* \"#utility.yul\":5226:5279   */\n      tag_50\n      jump\t// in\n    tag_137:\n        /* \"#utility.yul\":5216:5279   */\n      swap4\n      pop\n        /* \"#utility.yul\":5172:5289   */\n      pop\n        /* \"#utility.yul\":5356:5358   */\n      0x20\n        /* \"#utility.yul\":5345:5354   */\n      dup5\n        /* \"#utility.yul\":5341:5359   */\n      add\n        /* \"#utility.yul\":5328:5360   */\n      calldataload\n        /* \"#utility.yul\":5387:5405   */\n      0xffffffffffffffff\n        /* \"#utility.yul\":5379:5385   */\n      dup2\n        /* \"#utility.yul\":5376:5406   */\n      gt\n        /* \"#utility.yul\":5373:5490   */\n      iszero\n      tag_138\n      jumpi\n        /* \"#utility.yul\":5409:5488   */\n      tag_139\n      tag_36\n      jump\t// in\n    tag_139:\n        /* \"#utility.yul\":5373:5490   */\n    tag_138:\n        /* \"#utility.yul\":5522:5587   */\n      tag_140\n        /* \"#utility.yul\":5579:5586   */\n      dup7\n        /* \"#utility.yul\":5570:5576   */\n      dup3\n        /* \"#utility.yul\":5559:5568   */\n      dup8\n        /* \"#utility.yul\":5555:5577   */\n      add\n        /* \"#utility.yul\":5522:5587   */\n      tag_53\n      jump\t// in\n    tag_140:\n        /* \"#utility.yul\":5504:5587   */\n      swap3\n      pop\n      swap3\n      pop\n        /* \"#utility.yul\":5299:5597   */\n      pop\n        /* \"#utility.yul\":4930:5604   */\n      swap3\n      pop\n      swap3\n      pop\n      swap3\n      jump\t// out\n        /* \"#utility.yul\":5610:5790   */\n    tag_54:\n        /* \"#utility.yul\":5658:5735   */\n      0x4e487b7100000000000000000000000000000000000000000000000000000000\n        /* \"#utility.yul\":5655:5656   */\n      0x00\n        /* \"#utility.yul\":5648:5736   */\n      mstore\n        /* \"#utility.yul\":5755:5759   */\n      0x11\n        /* \"#utility.yul\":5752:5753   */\n      0x04\n        /* \"#utility.yul\":5745:5760   */\n      mstore\n        /* \"#utility.yul\":5779:5783   */\n      0x24\n        /* \"#utility.yul\":5776:5777   */\n      0x00\n        /* \"#utility.yul\":5769:5784   */\n      revert\n        /* \"#utility.yul\":5796:5987   */\n    tag_26:\n        /* \"#utility.yul\":5836:5839   */\n      0x00\n        /* \"#utility.yul\":5855:5875   */\n      tag_143\n        /* \"#utility.yul\":5873:5874   */\n      dup3\n        /* \"#utility.yul\":5855:5875   */\n      tag_47\n      jump\t// in\n    tag_143:\n        /* \"#utility.yul\":5850:5875   */\n      swap2\n      pop\n        /* \"#utility.yul\":5889:5909   */\n      tag_144\n        /* \"#utility.yul\":5907:5908   */\n      dup4\n        /* \"#utility.yul\":5889:5909   */\n      tag_47\n      jump\t// in\n    tag_144:\n        /* \"#utility.yul\":5884:5909   */\n      swap3\n      pop\n        /* \"#utility.yul\":5932:5933   */\n      dup3\n        /* \"#utility.yul\":5929:5930   */\n      dup3\n        /* \"#utility.yul\":5925:5934   */\n      add\n        /* \"#utility.yul\":5918:5934   */\n      swap1\n      pop\n        /* \"#utility.yul\":5953:5956   */\n      dup1\n        /* \"#utility.yul\":5950:5951   */\n      dup3\n        /* \"#utility.yul\":5947:5957   */\n      gt\n        /* \"#utility.yul\":5944:5980   */\n      iszero\n      tag_145\n      jumpi\n        /* \"#utility.yul\":5960:5978   */\n      tag_146\n      tag_54\n      jump\t// in\n    tag_146:\n        /* \"#utility.yul\":5944:5980   */\n    tag_145:\n        /* \"#utility.yul\":5796:5987   */\n      swap3\n      swap2\n      pop\n      pop\n      jump\t// out\n        /* \"#utility.yul\":5993:6092   */\n    tag_55:\n        /* \"#utility.yul\":6045:6051   */\n      0x00\n        /* \"#utility.yul\":6079:6084   */\n      dup2\n        /* \"#utility.yul\":6073:6085   */\n      mload\n        /* \"#utility.yul\":6063:6085   */\n      swap1\n      pop\n        /* \"#utility.yul\":5993:6092   */\n      swap2\n      swap1\n      pop\n      jump\t// out\n        /* \"#utility.yul\":6098:6278   */\n    tag_56:\n        /* \"#utility.yul\":6146:6223   */\n      0x4e487b7100000000000000000000000000000000000000000000000000000000\n        /* \"#utility.yul\":6143:6144   */\n      0x00\n        /* \"#utility.yul\":6136:6224   */\n      mstore\n        /* \"#utility.yul\":6243:6247   */\n      0x22\n        /* \"#utility.yul\":6240:6241   */\n      0x04\n        /* \"#utility.yul\":6233:6248   */\n      mstore\n        /* \"#utility.yul\":6267:6271   */\n      0x24\n        /* \"#utility.yul\":6264:6265   */\n      0x00\n        /* \"#utility.yul\":6257:6272   */\n      revert\n        /* \"#utility.yul\":6284:6604   */\n    tag_57:\n        /* \"#utility.yul\":6328:6334   */\n      0x00\n        /* \"#utility.yul\":6365:6366   */\n      0x02\n        /* \"#utility.yul\":6359:6363   */\n      dup3\n        /* \"#utility.yul\":6355:6367   */\n      div\n        /* \"#utility.yul\":6345:6367   */\n      swap1\n      pop\n        /* \"#utility.yul\":6412:6413   */\n      0x01\n        /* \"#utility.yul\":6406:6410   */\n      dup3\n        /* \"#utility.yul\":6402:6414   */\n      and\n        /* \"#utility.yul\":6433:6451   */\n      dup1\n        /* \"#utility.yul\":6423:6504   */\n      tag_150\n      jumpi\n        /* \"#utility.yul\":6489:6493   */\n      0x7f\n        /* \"#utility.yul\":6481:6487   */\n      dup3\n        /* \"#utility.yul\":6477:6494   */\n      and\n        /* \"#utility.yul\":6467:6494   */\n      swap2\n      pop\n        /* \"#utility.yul\":6423:6504   */\n    tag_150:\n        /* \"#utility.yul\":6551:6553   */\n      0x20\n        /* \"#utility.yul\":6543:6549   */\n      dup3\n        /* \"#utility.yul\":6540:6554   */\n      lt\n        /* \"#utility.yul\":6520:6538   */\n      dup2\n        /* \"#utility.yul\":6517:6555   */\n      sub\n        /* \"#utility.yul\":6514:6598   */\n      tag_151\n      jumpi\n        /* \"#utility.yul\":6570:6588   */\n      tag_152\n      tag_56\n      jump\t// in\n    tag_152:\n        /* \"#utility.yul\":6514:6598   */\n    tag_151:\n        /* \"#utility.yul\":6335:6604   */\n      pop\n        /* \"#utility.yul\":6284:6604   */\n      swap2\n      swap1\n      pop\n      jump\t// out\n        /* \"#utility.yul\":6610:6751   */\n    tag_58:\n        /* \"#utility.yul\":6659:6663   */\n      0x00\n        /* \"#utility.yul\":6682:6685   */\n      dup2\n        /* \"#utility.yul\":6674:6685   */\n      swap1\n      pop\n        /* \"#utility.yul\":6705:6708   */\n      dup2\n        /* \"#utility.yul\":6702:6703   */\n      0x00\n        /* \"#utility.yul\":6695:6709   */\n      mstore\n        /* \"#utility.yul\":6739:6743   */\n      0x20\n        /* \"#utility.yul\":6736:6737   */\n      0x00\n        /* \"#utility.yul\":6726:6744   */\n      keccak256\n        /* \"#utility.yul\":6718:6744   */\n      swap1\n      pop\n        /* \"#utility.yul\":6610:6751   */\n      swap2\n      swap1\n      pop\n      jump\t// out\n        /* \"#utility.yul\":6757:6850   */\n    tag_59:\n        /* \"#utility.yul\":6794:6800   */\n      0x00\n        /* \"#utility.yul\":6841:6843   */\n      0x20\n        /* \"#utility.yul\":6836:6838   */\n      0x1f\n        /* \"#utility.yul\":6829:6834   */\n      dup4\n        /* \"#utility.yul\":6825:6839   */\n      add\n        /* \"#utility.yul\":6821:6844   */\n      div\n        /* \"#utility.yul\":6811:6844   */\n      swap1\n      pop\n        /* \"#utility.yul\":6757:6850   */\n      swap2\n      swap1\n      pop\n      jump\t// out\n        /* \"#utility.yul\":6856:6963   */\n    tag_60:\n        /* \"#utility.yul\":6900:6908   */\n      0x00\n        /* \"#utility.yul\":6950:6955   */\n      dup3\n        /* \"#utility.yul\":6944:6948   */\n      dup3\n        /* \"#utility.yul\":6940:6956   */\n      shl\n        /* \"#utility.yul\":6919:6956   */\n      swap1\n      pop\n        /* \"#utility.yul\":6856:6963   */\n      swap3\n      swap2\n      pop\n      pop\n      jump\t// out\n        /* \"#utility.yul\":6969:7362   */\n    tag_61:\n        /* \"#utility.yul\":7038:7044   */\n      0x00\n        /* \"#utility.yul\":7088:7089   */\n      0x08\n        /* \"#utility.yul\":7076:7086   */\n      dup4\n        /* \"#utility.yul\":7072:7090   */\n      mul\n        /* \"#utility.yul\":7111:7208   */\n      tag_157\n        /* \"#utility.yul\":7141:7207   */\n      0xffffffffffffffffffffffffffffffffffffffffffffffffffffffffffffffff\n        /* \"#utility.yul\":7130:7139   */\n      dup3\n        /* \"#utility.yul\":7111:7208   */\n      tag_60\n      jump\t// in\n    tag_157:\n        /* \"#utility.yul\":7229:7268   */\n      tag_158\n        /* \"#utility.yul\":7259:7267   */\n      dup7\n        /* \"#utility.yul\":7248:7257   */\n      dup4\n        /* \"#utility.yul\":7229:7268   */\n      tag_60\n      jump\t// in\n    tag_158:\n        /* \"#utility.yul\":7217:7268   */\n      swap6\n      pop\n        /* \"#utility.yul\":7301:7305   */\n      dup1\n        /* \"#utility.yul\":7297:7306   */\n      not\n        /* \"#utility.yul\":7290:7295   */\n      dup5\n        /* \"#utility.yul\":7286:7307   */\n      and\n        /* \"#utility.yul\":7277:7307   */\n      swap4\n      pop\n        /* \"#utility.yul\":7350:7354   */\n      dup1\n        /* \"#utility.yul\":7340:7348   */\n      dup7\n        /* \"#utility.yul\":7336:7355   */\n      and\n        /* \"#utility.yul\":7329:7334   */\n      dup5\n        /* \"#utility.yul\":7326:7356   */\n      or\n        /* \"#utility.yul\":7316:7356   */\n      swap3\n      pop\n        /* \"#utility.yul\":7045:7362   */\n      pop\n      pop\n        /* \"#utility.yul\":6969:7362   */\n      swap4\n      swap3\n      pop\n      pop\n      pop\n      jump\t// out\n        /* \"#utility.yul\":7368:7428   */\n    tag_62:\n        /* \"#utility.yul\":7396:7399   */\n      0x00\n        /* \"#utility.yul\":7417:7422   */\n      dup2\n        /* \"#utility.yul\":7410:7422   */\n      swap1\n      pop\n        /* \"#utility.yul\":7368:7428   */\n      swap2\n      swap1\n      pop\n      jump\t// out\n        /* \"#utility.yul\":7434:7576   */\n    tag_63:\n        /* \"#utility.yul\":7484:7493   */\n      0x00\n        /* \"#utility.yul\":7517:7570   */\n      tag_161\n        /* \"#utility.yul\":7535:7569   */\n      tag_162\n        /* \"#utility.yul\":7544:7568   */\n      tag_163\n        /* \"#utility.yul\":7562:7567   */\n      dup5\n        /* \"#utility.yul\":7544:7568   */\n      tag_47\n      jump\t// in\n    tag_163:\n        /* \"#utility.yul\":7535:7569   */\n      tag_62\n      jump\t// in\n    tag_162:\n        /* \"#utility.yul\":7517:7570   */\n      tag_47\n      jump\t// in\n    tag_161:\n        /* \"#utility.yul\":7504:7570   */\n      swap1\n      pop\n        /* \"#utility.yul\":7434:7576   */\n      swap2\n      swap1\n      pop\n      jump\t// out\n        /* \"#utility.yul\":7582:7657   */\n    tag_64:\n        /* \"#utility.yul\":7625:7628   */\n      0x00\n        /* \"#utility.yul\":7646:7651   */\n      dup2\n        /* \"#utility.yul\":7639:7651   */\n      swap1\n      pop\n        /* \"#utility.yul\":7582:7657   */\n      swap2\n      swap1\n      pop\n      jump\t// out\n        /* \"#utility.yul\":7663:7932   */\n    tag_65:\n        /* \"#utility.yul\":7773:7812   */\n      tag_166\n        /* \"#utility.yul\":7804:7811   */\n      dup4\n        /* \"#utility.yul\":7773:7812   */\n      tag_63\n      jump\t// in\n    tag_166:\n        /* \"#utility.yul\":7834:7925   */\n      tag_167\n        /* \"#utility.yul\":7883:7924   */\n      tag_168\n        /* \"#utility.yul\":7907:7923   */\n      dup3\n        /* \"#utility.yul\":7883:7924   */\n      tag_64\n      jump\t// in\n    tag_168:\n        /* \"#utility.yul\":7875:7881   */\n      dup5\n        /* \"#utility.yul\":7868:7872   */\n      dup5\n        /* \"#utility.yul\":7862:7873   */\n      sload\n        /* \"#utility.yul\":7834:7925   */\n      tag_61\n      jump\t// in\n    tag_167:\n        /* \"#utility.yul\":7828:7832   */\n      dup3\n        /* \"#utility.yul\":7821:7926   */\n      sstore\n        /* \"#utility.yul\":7739:7932   */\n      pop\n        /* \"#utility.yul\":7663:7932   */\n      pop\n      pop\n      pop\n      jump\t// out\n        /* \"#utility.yul\":7938:8011   */\n    tag_66:\n        /* \"#utility.yul\":7983:7986   */\n      0x00\n        /* \"#utility.yul\":7938:8011   */\n      swap1\n      jump\t// out\n        /* \"#utility.yul\":8017:8206   */\n    tag_67:\n        /* \"#utility.yul\":8094:8126   */\n      tag_171\n      tag_66\n      jump\t// in\n    tag_171:\n        /* \"#utility.yul\":8135:8200   */\n      tag_172\n        /* \"#utility.yul\":8193:8199   */\n      dup2\n        /* \"#utility.yul\":8185:8191   */\n      dup5\n        /* \"#utility.yul\":8179:8183   */\n      dup5\n        /* \"#utility.yul\":8135:8200   */\n      tag_65\n      jump\t// in\n    tag_172:\n        /* \"#utility.yul\":8070:8206   */\n      pop\n        /* \"#utility.yul\":8017:8206   */\n      pop\n      pop\n      jump\t// out\n        /* \"#utility.yul\":8212:8398   */\n    tag_68:\n        /* \"#utility.yul\":8272:8392   */\n    tag_174:\n        /* \"#utility.yul\":8289:8292   */\n      dup2\n        /* \"#utility.yul\":8282:8287   */\n      dup2\n        /* \"#utility.yul\":8279:8293   */\n      lt\n        /* \"#utility.yul\":8272:8392   */\n      iszero\n      tag_176\n      jumpi\n        /* \"#utility.yul\":8343:8382   */\n      tag_177\n        /* \"#utility.yul\":8380:8381   */\n      0x00\n        /* \"#utility.yul\":8373:8378   */\n      dup3\n        /* \"#utility.yul\":8343:8382   */\n      tag_67\n      jump\t// in\n    tag_177:\n        /* \"#utility.yul\":8316:8317   */\n      0x01\n        /* \"#utility.yul\":8309:8314   */\n      dup2\n        /* \"#utility.yul\":8305:8318   */\n      add\n        /* \"#utility.yul\":8296:8318   */\n      swap1\n      pop\n        /* \"#utility.yul\":8272:8392   */\n      jump(tag_174)\n    tag_176:\n        /* \"#utility.yul\":8212:8398   */\n      pop\n      pop\n      jump\t// out\n        /* \"#utility.yul\":8404:8947   */\n    tag_69:\n        /* \"#utility.yul\":8505:8507   */\n      0x1f\n        /* \"#utility.yul\":8500:8503   */\n      dup3\n        /* \"#utility.yul\":8497:8508   */\n      gt\n        /* \"#utility.yul\":8494:8940   */\n      iszero\n      tag_179\n      jumpi\n        /* \"#utility.yul\":8539:8577   */\n      tag_180\n        /* \"#utility.yul\":8571:8576   */\n      dup2\n        /* \"#utility.yul\":8539:8577   */\n      tag_58\n      jump\t// in\n    tag_180:\n        /* \"#utility.yul\":8623:8652   */\n      tag_181\n        /* \"#utility.yul\":8641:8651   */\n      dup5\n        /* \"#utility.yul\":8623:8652   */\n      tag_59\n      jump\t// in\n    tag_181:\n        /* \"#utility.yul\":8613:8621   */\n      dup2\n        /* \"#utility.yul\":8609:8653   */\n      add\n        /* \"#utility.yul\":8806:8808   */\n      0x20\n        /* \"#utility.yul\":8794:8804   */\n      dup6\n        /* \"#utility.yul\":8791:8809   */\n      lt\n        /* \"#utility.yul\":8788:8837   */\n      iszero\n      tag_182\n      jumpi\n        /* \"#utility.yul\":8827:8835   */\n      dup2\n        /* \"#utility.yul\":8812:8835   */\n      swap1\n      pop\n        /* \"#utility.yul\":8788:8837   */\n    tag_182:\n        /* \"#utility.yul\":8850:8930   */\n      tag_183\n        /* \"#utility.yul\":8906:8928   */\n      tag_184\n        /* \"#utility.yul\":8924:8927   */\n      dup6\n        /* \"#utility.yul\":8906:8928   */\n      tag_59\n      jump\t// in\n    tag_184:\n        /* \"#utility.yul\":8896:8904   */\n      dup4\n        /* \"#utility.yul\":8892:8929   */\n      add\n        /* \"#utility.yul\":8879:8890   */\n      dup3\n        /* \"#utility.yul\":8850:8930   */\n      tag_68\n      jump\t// in\n    tag_183:\n        /* \"#utility.yul\":8509:8940   */\n      pop\n      pop\n        /* \"#utility.yul\":8494:8940   */\n    tag_179:\n        /* \"#utility.yul\":8404:8947   */\n      pop\n      pop\n      pop\n      jump\t// out\n        /* \"#utility.yul\":8953:9070   */\n    tag_70:\n        /* \"#utility.yul\":9007:9015   */\n      0x00\n        /* \"#utility.yul\":9057:9062   */\n      dup3\n        /* \"#utility.yul\":9051:9055   */\n      dup3\n        /* \"#utility.yul\":9047:9063   */\n      shr\n        /* \"#utility.yul\":9026:9063   */\n      swap1\n      pop\n        /* \"#utility.yul\":8953:9070   */\n      swap3\n      swap2\n      pop\n      pop\n      jump\t// out\n        /* \"#utility.yul\":9076:9245   */\n    tag_71:\n        /* \"#utility.yul\":9120:9126   */\n      0x00\n        /* \"#utility.yul\":9153:9204   */\n      tag_187\n        /* \"#utility.yul\":9201:9202   */\n      0x00\n        /* \"#utility.yul\":9197:9203   */\n      not\n        /* \"#utility.yul\":9189:9194   */\n      dup5\n        /* \"#utility.yul\":9186:9187   */\n      0x08\n        /* \"#utility.yul\":9182:9195   */\n      mul\n        /* \"#utility.yul\":9153:9204   */\n      tag_70\n      jump\t// in\n    tag_187:\n        /* \"#utility.yul\":9149:9205   */\n      not\n        /* \"#utility.yul\":9234:9238   */\n      dup1\n        /* \"#utility.yul\":9228:9232   */\n      dup4\n        /* \"#utility.yul\":9224:9239   */\n      and\n        /* \"#utility.yul\":9214:9239   */\n      swap2\n      pop\n        /* \"#utility.yul\":9127:9245   */\n      pop\n        /* \"#utility.yul\":9076:9245   */\n      swap3\n      swap2\n      pop\n      pop\n      jump\t// out\n        /* \"#utility.yul\":9250:9545   */\n    tag_72:\n        /* \"#utility.yul\":9326:9330   */\n      0x00\n        /* \"#utility.yul\":9472:9501   */\n      tag_189\n        /* \"#utility.yul\":9497:9500   */\n      dup4\n        /* \"#utility.yul\":9491:9495   */\n      dup4\n        /* \"#utility.yul\":9472:9501   */\n      tag_71\n      jump\t// in\n    tag_189:\n        /* \"#utility.yul\":9464:9501   */\n      swap2\n      pop\n        /* \"#utility.yul\":9534:9537   */\n      dup3\n        /* \"#utility.yul\":9531:9532   */\n      0x02\n        /* \"#utility.yul\":9527:9538   */\n      mul\n        /* \"#utility.yul\":9521:9525   */\n      dup3\n        /* \"#utility.yul\":9518:9539   */\n      or\n        /* \"#utility.yul\":9510:9539   */\n      swap1\n      pop\n        /* \"#utility.yul\":9250:9545   */\n      swap3\n      swap2\n      pop\n      pop\n      jump\t// out\n        /* \"#utility.yul\":9550:10945   */\n    tag_31:\n        /* \"#utility.yul\":9667:9704   */\n      tag_191\n        /* \"#utility.yul\":9700:9703   */\n      dup3\n        /* \"#utility.yul\":9667:9704   */\n      tag_55\n      jump\t// in\n    tag_191:\n        /* \"#utility.yul\":9769:9787   */\n      0xffffffffffffffff\n        /* \"#utility.yul\":9761:9767   */\n      dup2\n        /* \"#utility.yul\":9758:9788   */\n      gt\n        /* \"#utility.yul\":9755:9811   */\n      iszero\n      tag_192\n      jumpi\n        /* \"#utility.yul\":9791:9809   */\n      tag_193\n      tag_40\n      jump\t// in\n    tag_193:\n        /* \"#utility.yul\":9755:9811   */\n    tag_192:\n        /* \"#utility.yul\":9835:9873   */\n      tag_194\n        /* \"#utility.yul\":9867:9871   */\n      dup3\n        /* \"#utility.yul\":9861:9872   */\n      sload\n        /* \"#utility.yul\":9835:9873   */\n      tag_57\n      jump\t// in\n    tag_194:\n        /* \"#utility.yul\":9920:9987   */\n      tag_195\n        /* \"#utility.yul\":9980:9986   */\n      dup3\n        /* \"#utility.yul\":9972:9978   */\n      dup3\n        /* \"#utility.yul\":9966:9970   */\n      dup6\n        /* \"#utility.yul\":9920:9987   */\n      tag_69\n      jump\t// in\n    tag_195:\n        /* \"#utility.yul\":10014:10015   */\n      0x00\n        /* \"#utility.yul\":10038:10042   */\n      0x20\n        /* \"#utility.yul\":10025:10042   */\n      swap1\n      pop\n        /* \"#utility.yul\":10070:10072   */\n      0x1f\n        /* \"#utility.yul\":10062:10068   */\n      dup4\n        /* \"#utility.yul\":10059:10073   */\n      gt\n        /* \"#utility.yul\":10087:10088   */\n      0x01\n        /* \"#utility.yul\":10082:10700   */\n      dup2\n      eq\n      tag_197\n      jumpi\n        /* \"#utility.yul\":10744:10745   */\n      0x00\n        /* \"#utility.yul\":10761:10767   */\n      dup5\n        /* \"#utility.yul\":10758:10835   */\n      iszero\n      tag_198\n      jumpi\n        /* \"#utility.yul\":10810:10819   */\n      dup3\n        /* \"#utility.yul\":10805:10808   */\n      dup8\n        /* \"#utility.yul\":10801:10820   */\n      add\n        /* \"#utility.yul\":10795:10821   */\n      mload\n        /* \"#utility.yul\":10786:10821   */\n      swap1\n      pop\n        /* \"#utility.yul\":10758:10835   */\n    tag_198:\n        /* \"#utility.yul\":10861:10928   */\n      tag_199\n        /* \"#utility.yul\":10921:10927   */\n      dup6\n        /* \"#utility.yul\":10914:10919   */\n      dup3\n        /* \"#utility.yul\":10861:10928   */\n      tag_72\n      jump\t// in\n    tag_199:\n        /* \"#utility.yul\":10855:10859   */\n      dup7\n        /* \"#utility.yul\":10848:10929   */\n      sstore\n        /* \"#utility.yul\":10717:10939   */\n      pop\n        /* \"#utility.yul\":10052:10939   */\n      jump(tag_196)\n        /* \"#utility.yul\":10082:10700   */\n    tag_197:\n        /* \"#utility.yul\":10134:10138   */\n      0x1f\n        /* \"#utility.yul\":10130:10139   */\n      not\n        /* \"#utility.yul\":10122:10128   */\n      dup5\n        /* \"#utility.yul\":10118:10140   */\n      and\n        /* \"#utility.yul\":10168:10205   */\n      tag_200\n        /* \"#utility.yul\":10200:10204   */\n      dup7\n        /* \"#utility.yul\":10168:10205   */\n      tag_58\n      jump\t// in\n    tag_200:\n        /* \"#utility.yul\":10227:10228   */\n      0x00\n        /* \"#utility.yul\":10241:10449   */\n    tag_201:\n        /* \"#utility.yul\":10255:10262   */\n      dup3\n        /* \"#utility.yul\":10252:10253   */\n      dup2\n        /* \"#utility.yul\":10249:10263   */\n      lt\n        /* \"#utility.yul\":10241:10449   */\n      iszero\n      tag_203\n      jumpi\n        /* \"#utility.yul\":10334:10343   */\n      dup5\n        /* \"#utility.yul\":10329:10332   */\n      dup10\n        /* \"#utility.yul\":10325:10344   */\n      add\n        /* \"#utility.yul\":10319:10345   */\n      mload\n        /* \"#utility.yul\":10311:10317   */\n      dup3\n        /* \"#utility.yul\":10304:10346   */\n      sstore\n        /* \"#utility.yul\":10385:10386   */\n      0x01\n        /* \"#utility.yul\":10377:10383   */\n      dup3\n        /* \"#utility.yul\":10373:10387   */\n      add\n        /* \"#utility.yul\":10363:10387   */\n      swap2\n      pop\n        /* \"#utility.yul\":10432:10434   */\n      0x20\n        /* \"#utility.yul\":10421:10430   */\n      dup6\n        /* \"#utility.yul\":10417:10435   */\n      add\n        /* \"#utility.yul\":10404:10435   */\n      swap5\n      pop\n        /* \"#utility.yul\":10278:10282   */\n      0x20\n        /* \"#utility.yul\":10275:10276   */\n      dup2\n        /* \"#utility.yul\":10271:10283   */\n      add\n        /* \"#utility.yul\":10266:10283   */\n      swap1\n      pop\n        /* \"#utility.yul\":10241:10449   */\n      jump(tag_201)\n    tag_203:\n        /* \"#utility.yul\":10477:10483   */\n      dup7\n        /* \"#utility.yul\":10468:10475   */\n      dup4\n        /* \"#utility.yul\":10465:10484   */\n      lt\n        /* \"#utility.yul\":10462:10641   */\n      iszero\n      tag_204\n      jumpi\n        /* \"#utility.yul\":10535:10544   */\n      dup5\n        /* \"#utility.yul\":10530:10533   */\n      dup10\n        /* \"#utility.yul\":10526:10545   */\n      add\n        /* \"#utility.yul\":10520:10546   */\n      mload\n        /* \"#utility.yul\":10578:10626   */\n      tag_205\n        /* \"#utility.yul\":10620:10624   */\n      0x1f\n        /* \"#utility.yul\":10612:10618   */\n      dup10\n        /* \"#utility.yul\":10608:10625   */\n      and\n        /* \"#utility.yul\":10597:10606   */\n      dup3\n        /* \"#utility.yul\":10578:10626   */\n      tag_71\n      jump\t// in\n    tag_205:\n        /* \"#utility.yul\":10570:10576   */\n      dup4\n        /* \"#utility.yul\":10563:10627   */\n      sstore\n        /* \"#utility.yul\":10485:10641   */\n      pop\n        /* \"#utility.yul\":10462:10641   */\n    tag_204:\n        /* \"#utility.yul\":10687:10688   */\n      0x01\n        /* \"#utility.yul\":10683:10684   */\n      0x02\n        /* \"#utility.yul\":10675:10681   */\n      dup9\n        /* \"#utility.yul\":10671:10685   */\n      mul\n        /* \"#utility.yul\":10667:10689   */\n      add\n        /* \"#utility.yul\":10661:10665   */\n      dup9\n        /* \"#utility.yul\":10654:10690   */\n      sstore\n        /* \"#utility.yul\":10089:10700   */\n      pop\n      pop\n      pop\n        /* \"#utility.yul\":10052:10939   */\n    tag_196:\n      pop\n        /* \"#utility.yul\":9642:10945   */\n      pop\n      pop\n      pop\n        /* \"#utility.yul\":9550:10945   */\n      pop\n      pop\n      jump\t// out\n        /* \"#utility.yul\":10951:11099   */\n    tag_73:\n        /* \"#utility.yul\":11053:11064   */\n      0x00\n        /* \"#utility.yul\":11090:11093   */\n      dup2\n        /* \"#utility.yul\":11075:11093   */\n      swap1\n      pop\n        /* \"#utility.yul\":10951:11099   */\n      swap3\n      swap2\n      pop\n      pop\n      jump\t// out\n        /* \"#utility.yul\":11129:11459   */\n    tag_74:\n        /* \"#utility.yul\":11245:11248   */\n      0x00\n        /* \"#utility.yul\":11266:11355   */\n      tag_208\n        /* \"#utility.yul\":11348:11354   */\n      dup4\n        /* \"#utility.yul\":11343:11346   */\n      dup6\n        /* \"#utility.yul\":11266:11355   */\n      tag_73\n      jump\t// in\n    tag_208:\n        /* \"#utility.yul\":11259:11355   */\n      swap4\n      pop\n        /* \"#utility.yul\":11365:11421   */\n      tag_209\n        /* \"#utility.yul\":11414:11420   */\n      dup4\n        /* \"#utility.yul\":11409:11412   */\n      dup6\n        /* \"#utility.yul\":11402:11407   */\n      dup5\n        /* \"#utility.yul\":11365:11421   */\n      tag_44\n      jump\t// in\n    tag_209:\n        /* \"#utility.yul\":11446:11452   */\n      dup3\n        /* \"#utility.yul\":11441:11444   */\n      dup5\n        /* \"#utility.yul\":11437:11453   */\n      add\n        /* \"#utility.yul\":11430:11453   */\n      swap1\n      pop\n        /* \"#utility.yul\":11129:11459   */\n      swap4\n      swap3\n      pop\n      pop\n      pop\n      jump\t// out\n        /* \"#utility.yul\":11465:11760   */\n    tag_33:\n        /* \"#utility.yul\":11607:11610   */\n      0x00\n        /* \"#utility.yul\":11629:11734   */\n      tag_211\n        /* \"#utility.yul\":11730:11733   */\n      dup3\n        /* \"#utility.yul\":11721:11727   */\n      dup5\n        /* \"#utility.yul\":11713:11719   */\n      dup7\n        /* \"#utility.yul\":11629:11734   */\n      tag_74\n      jump\t// in\n    tag_211:\n        /* \"#utility.yul\":11622:11734   */\n      swap2\n      pop\n        /* \"#utility.yul\":11751:11754   */\n      dup2\n        /* \"#utility.yul\":11744:11754   */\n      swap1\n      pop\n        /* \"#utility.yul\":11465:11760   */\n      swap4\n      swap3\n      pop\n      pop\n      pop\n      jump\t// out\n\n    auxdata: 0xa2646970667358221220c404f9f3e8f4076c76ed8b0ef39e44450204546db2a339c979099a117d31877a64736f6c63430008130033\n}\n",
				"bytecode": {
					"linkReferences": {},
					"object": "608060405234801561001057600080fd5b506108af806100206000396000f3fe608060405234801561001057600080fd5b506004361061004c5760003560e01c80632fae4ffd146100515780636057361d14610081578063a6b7fc5b1461009d578063bc832d4e146100bb575b600080fd5b61006b6004803603810190610066919061034e565b6100d7565b60405161007891906103b0565b60405180910390f35b61009b600480360381019061009691906103f7565b610105565b005b6100a561011b565b6040516100b291906103b0565b60405180910390f35b6100d560048036038101906100d09190610484565b610124565b005b6002818051602081018201805184825260208301602085012081835280955050505050506000915090505481565b6005816101129190610513565b60008190555050565b60008054905090565b6001604051806040016040528085815260200184848080601f016020809104026020016040519081016040528093929190818152602001838380828437600081840152601f19601f8201169050808301925050505050505081525090806001815401808255809150506001900390600052602060002090600202016000909190919091506000820151816000015560208201518160010190816101c7919061075e565b50505082600283836040516101dd929190610860565b908152602001604051809103902081905550505050565b6000604051905090565b600080fd5b600080fd5b600080fd5b600080fd5b6000601f19601f8301169050919050565b7f4e487b7100000000000000000000000000000000000000000000000000000000600052604160045260246000fd5b61025b82610212565b810181811067ffffffffffffffff8211171561027a57610279610223565b5b80604052505050565b600061028d6101f4565b90506102998282610252565b919050565b600067ffffffffffffffff8211156102b9576102b8610223565b5b6102c282610212565b9050602081019050919050565b82818337600083830152505050565b60006102f16102ec8461029e565b610283565b90508281526020810184848401111561030d5761030c61020d565b5b6103188482856102cf565b509392505050565b600082601f83011261033557610334610208565b5b81356103458482602086016102de565b91505092915050565b600060208284031215610364576103636101fe565b5b600082013567ffffffffffffffff81111561038257610381610203565b5b61038e84828501610320565b91505092915050565b6000819050919050565b6103aa81610397565b82525050565b60006020820190506103c560008301846103a1565b92915050565b6103d481610397565b81146103df57600080fd5b50565b6000813590506103f1816103cb565b92915050565b60006020828403121561040d5761040c6101fe565b5b600061041b848285016103e2565b91505092915050565b600080fd5b600080fd5b60008083601f84011261044457610443610208565b5b8235905067ffffffffffffffff81111561046157610460610424565b5b60208301915083600182028301111561047d5761047c610429565b5b9250929050565b60008060006040848603121561049d5761049c6101fe565b5b60006104ab868287016103e2565b935050602084013567ffffffffffffffff8111156104cc576104cb610203565b5b6104d88682870161042e565b92509250509250925092565b7f4e487b7100000000000000000000000000000000000000000000000000000000600052601160045260246000fd5b600061051e82610397565b915061052983610397565b9250828201905080821115610541576105406104e4565b5b92915050565b600081519050919050565b7f4e487b7100000000000000000000000000000000000000000000000000000000600052602260045260246000fd5b6000600282049050600182168061059957607f821691505b6020821081036105ac576105ab610552565b5b50919050565b60008190508160005260206000209050919050565b60006020601f8301049050919050565b600082821b905092915050565b6000600883026106147fffffffffffffffffffffffffffffffffffffffffffffffffffffffffffffffff826105d7565b61061e86836105d7565b95508019841693508086168417925050509392505050565b6000819050919050565b600061065b61065661065184610397565b610636565b610397565b9050919050565b6000819050919050565b61067583610640565b61068961068182610662565b8484546105e4565b825550505050565b600090565b61069e610691565b6106a981848461066c565b505050565b5b818110156106cd576106c2600082610696565b6001810190506106af565b5050565b601f821115610712576106e3816105b2565b6106ec846105c7565b810160208510156106fb578190505b61070f610707856105c7565b8301826106ae565b50505b505050565b600082821c905092915050565b600061073560001984600802610717565b1980831691505092915050565b600061074e8383610724565b9150826002028217905092915050565b61076782610547565b67ffffffffffffffff8111156107805761077f610223565b5b61078a8254610581565b6107958282856106d1565b600060209050601f8311600181146107c857600084156107b6578287015190505b6107c08582610742565b865550610828565b601f1984166107d6866105b2565b60005b828110156107fe578489015182556001820191506020850194506020810190506107d9565b8683101561081b5784890151610817601f891682610724565b8355505b6001600288020188555050505b505050505050565b600081905092915050565b60006108478385610830565b93506108548385846102cf565b82840190509392505050565b600061086d82848661083b565b9150819050939250505056fea2646970667358221220c404f9f3e8f4076c76ed8b0ef39e44450204546db2a339c979099a117d31877a64736f6c63430008130033",
					"opcodes": "PUSH1 0x80 PUSH1 0x40 MSTORE CALLVALUE DUP1 ISZERO PUSH2 0x10 JUMPI PUSH1 0x0 DUP1 REVERT JUMPDEST POP PUSH2 0x8AF DUP1 PUSH2 0x20 PUSH1 0x0 CODECOPY PUSH1 0x0 RETURN INVALID PUSH1 0x80 PUSH1 0x40 MSTORE CALLVALUE DUP1 ISZERO PUSH2 0x10 JUMPI PUSH1 0x0 DUP1 REVERT JUMPDEST POP PUSH1 0x4 CALLDATASIZE LT PUSH2 0x4C JUMPI PUSH1 0x0 CALLDATALOAD PUSH1 0xE0 SHR DUP1 PUSH4 0x2FAE4FFD EQ PUSH2 0x51 JUMPI DUP1 PUSH4 0x6057361D EQ PUSH2 0x81 JUMPI DUP1 PUSH4 0xA6B7FC5B EQ PUSH2 0x9D JUMPI DUP1 PUSH4 0xBC832D4E EQ PUSH2 0xBB JUMPI JUMPDEST PUSH1 0x0 DUP1 REVERT JUMPDEST PUSH2 0x6B PUSH1 0x4 DUP1 CALLDATASIZE SUB DUP2 ADD SWAP1 PUSH2 0x66 SWAP2 SWAP1 PUSH2 0x34E JUMP JUMPDEST PUSH2 0xD7 JUMP JUMPDEST PUSH1 0x40 MLOAD PUSH2 0x78 SWAP2 SWAP1 PUSH2 0x3B0 JUMP JUMPDEST PUSH1 0x40 MLOAD DUP1 SWAP2 SUB SWAP1 RETURN JUMPDEST PUSH2 0x9B PUSH1 0x4 DUP1 CALLDATASIZE SUB DUP2 ADD SWAP1 PUSH2 0x96 SWAP2 SWAP1 PUSH2 0x3F7 JUMP JUMPDEST PUSH2 0x105 JUMP JUMPDEST STOP JUMPDEST PUSH2 0xA5 PUSH2 0x11B JUMP JUMPDEST PUSH1 0x40 MLOAD PUSH2 0xB2 SWAP2 SWAP1 PUSH2 0x3B0 JUMP JUMPDEST PUSH1 0x40 MLOAD DUP1 SWAP2 SUB SWAP1 RETURN JUMPDEST PUSH2 0xD5 PUSH1 0x4 DUP1 CALLDATASIZE SUB DUP2 ADD SWAP1 PUSH2 0xD0 SWAP2 SWAP1 PUSH2 0x484 JUMP JUMPDEST PUSH2 0x124 JUMP JUMPDEST STOP JUMPDEST PUSH1 0x2 DUP2 DUP1 MLOAD PUSH1 0x20 DUP2 ADD DUP3 ADD DUP1 MLOAD DUP5 DUP3 MSTORE PUSH1 0x20 DUP4 ADD PUSH1 0x20 DUP6 ADD KECCAK256 DUP2 DUP4 MSTORE DUP1 SWAP6 POP POP POP POP POP POP PUSH1 0x0 SWAP2 POP SWAP1 POP SLOAD DUP2 JUMP JUMPDEST PUSH1 0x5 DUP2 PUSH2 0x112 SWAP2 SWAP1 PUSH2 0x513 JUMP JUMPDEST PUSH1 0x0 DUP2 SWAP1 SSTORE POP POP JUMP JUMPDEST PUSH1 0x0 DUP1 SLOAD SWAP1 POP SWAP1 JUMP JUMPDEST PUSH1 0x1 PUSH1 0x40 MLOAD DUP1 PUSH1 0x40 ADD PUSH1 0x40 MSTORE DUP1 DUP6 DUP2 MSTORE PUSH1 0x20 ADD DUP5 DUP5 DUP1 DUP1 PUSH1 0x1F ADD PUSH1 0x20 DUP1 SWAP2 DIV MUL PUSH1 0x20 ADD PUSH1 0x40 MLOAD SWAP1 DUP2 ADD PUSH1 0x40 MSTORE DUP1 SWAP4 SWAP3 SWAP2 SWAP1 DUP2 DUP2 MSTORE PUSH1 0x20 ADD DUP4 DUP4 DUP1 DUP3 DUP5 CALLDATACOPY PUSH1 0x0 DUP2 DUP5 ADD MSTORE PUSH1 0x1F NOT PUSH1 0x1F DUP3 ADD AND SWAP1 POP DUP1 DUP4 ADD SWAP3 POP POP POP POP POP POP POP DUP2 MSTORE POP SWAP1 DUP1 PUSH1 0x1 DUP2 SLOAD ADD DUP1 DUP3 SSTORE DUP1 SWAP2 POP POP PUSH1 0x1 SWAP1 SUB SWAP1 PUSH1 0x0 MSTORE PUSH1 0x20 PUSH1 0x0 KECCAK256 SWAP1 PUSH1 0x2 MUL ADD PUSH1 0x0 SWAP1 SWAP2 SWAP1 SWAP2 SWAP1 SWAP2 POP PUSH1 0x0 DUP3 ADD MLOAD DUP2 PUSH1 0x0 ADD SSTORE PUSH1 0x20 DUP3 ADD MLOAD DUP2 PUSH1 0x1 ADD SWAP1 DUP2 PUSH2 0x1C7 SWAP2 SWAP1 PUSH2 0x75E JUMP JUMPDEST POP POP POP DUP3 PUSH1 0x2 DUP4 DUP4 PUSH1 0x40 MLOAD PUSH2 0x1DD SWAP3 SWAP2 SWAP1 PUSH2 0x860 JUMP JUMPDEST SWAP1 DUP2 MSTORE PUSH1 0x20 ADD PUSH1 0x40 MLOAD DUP1 SWAP2 SUB SWAP1 KECCAK256 DUP2 SWAP1 SSTORE POP POP POP POP JUMP JUMPDEST PUSH1 0x0 PUSH1 0x40 MLOAD SWAP1 POP SWAP1 JUMP JUMPDEST PUSH1 0x0 DUP1 REVERT JUMPDEST PUSH1 0x0 DUP1 REVERT JUMPDEST PUSH1 0x0 DUP1 REVERT JUMPDEST PUSH1 0x0 DUP1 REVERT JUMPDEST PUSH1 0x0 PUSH1 0x1F NOT PUSH1 0x1F DUP4 ADD AND SWAP1 POP SWAP2 SWAP1 POP JUMP JUMPDEST PUSH32 0x4E487B7100000000000000000000000000000000000000000000000000000000 PUSH1 0x0 MSTORE PUSH1 0x41 PUSH1 0x4 MSTORE PUSH1 0x24 PUSH1 0x0 REVERT JUMPDEST PUSH2 0x25B DUP3 PUSH2 0x212 JUMP JUMPDEST DUP2 ADD DUP2 DUP2 LT PUSH8 0xFFFFFFFFFFFFFFFF DUP3 GT OR ISZERO PUSH2 0x27A JUMPI PUSH2 0x279 PUSH2 0x223 JUMP JUMPDEST JUMPDEST DUP1 PUSH1 0x40 MSTORE POP POP POP JUMP JUMPDEST PUSH1 0x0 PUSH2 0x28D PUSH2 0x1F4 JUMP JUMPDEST SWAP1 POP PUSH2 0x299 DUP3 DUP3 PUSH2 0x252 JUMP JUMPDEST SWAP2 SWAP1 POP JUMP JUMPDEST PUSH1 0x0 PUSH8 0xFFFFFFFFFFFFFFFF DUP3 GT ISZERO PUSH2 0x2B9 JUMPI PUSH2 0x2B8 PUSH2 0x223 JUMP JUMPDEST JUMPDEST PUSH2 0x2C2 DUP3 PUSH2 0x212 JUMP JUMPDEST SWAP1 POP PUSH1 0x20 DUP2 ADD SWAP1 POP SWAP2 SWAP1 POP JUMP JUMPDEST DUP3 DUP2 DUP4 CALLDATACOPY PUSH1 0x0 DUP4 DUP4 ADD MSTORE POP POP POP JUMP JUMPDEST PUSH1 0x0 PUSH2 0x2F1 PUSH2 0x2EC DUP5 PUSH2 0x29E JUMP JUMPDEST PUSH2 0x283 JUMP JUMPDEST SWAP1 POP DUP3 DUP2 MSTORE PUSH1 0x20 DUP2 ADD DUP5 DUP5 DUP5 ADD GT ISZERO PUSH2 0x30D JUMPI PUSH2 0x30C PUSH2 0x20D JUMP JUMPDEST JUMPDEST PUSH2 0x318 DUP5 DUP3 DUP6 PUSH2 0x2CF JUMP JUMPDEST POP SWAP4 SWAP3 POP POP POP JUMP JUMPDEST PUSH1 0x0 DUP3 PUSH1 0x1F DUP4 ADD SLT PUSH2 0x335 JUMPI PUSH2 0x334 PUSH2 0x208 JUMP JUMPDEST JUMPDEST DUP2 CALLDATALOAD PUSH2 0x345 DUP5 DUP3 PUSH1 0x20 DUP7 ADD PUSH2 0x2DE JUMP JUMPDEST SWAP2 POP POP SWAP3 SWAP2 POP POP JUMP JUMPDEST PUSH1 0x0 PUSH1 0x20 DUP3 DUP5 SUB SLT ISZERO PUSH2 0x364 JUMPI PUSH2 0x363 PUSH2 0x1FE JUMP JUMPDEST JUMPDEST PUSH1 0x0 DUP3 ADD CALLDATALOAD PUSH8 0xFFFFFFFFFFFFFFFF DUP2 GT ISZERO PUSH2 0x382 JUMPI PUSH2 0x381 PUSH2 0x203 JUMP JUMPDEST JUMPDEST PUSH2 0x38E DUP5 DUP3 DUP6 ADD PUSH2 0x320 JUMP JUMPDEST SWAP2 POP POP SWAP3 SWAP2 POP POP JUMP JUMPDEST PUSH1 0x0 DUP2 SWAP1 POP SWAP2 SWAP1 POP JUMP JUMPDEST PUSH2 0x3AA DUP2 PUSH2 0x397 JUMP JUMPDEST DUP3 MSTORE POP POP JUMP JUMPDEST PUSH1 0x0 PUSH1 0x20 DUP3 ADD SWAP1 POP PUSH2 0x3C5 PUSH1 0x0 DUP4 ADD DUP5 PUSH2 0x3A1 JUMP JUMPDEST SWAP3 SWAP2 POP POP JUMP JUMPDEST PUSH2 0x3D4 DUP2 PUSH2 0x397 JUMP JUMPDEST DUP2 EQ PUSH2 0x3DF JUMPI PUSH1 0x0 DUP1 REVERT JUMPDEST POP JUMP JUMPDEST PUSH1 0x0 DUP2 CALLDATALOAD SWAP1 POP PUSH2 0x3F1 DUP2 PUSH2 0x3CB JUMP JUMPDEST SWAP3 SWAP2 POP POP JUMP JUMPDEST PUSH1 0x0 PUSH1 0x20 DUP3 DUP5 SUB SLT ISZERO PUSH2 0x40D JUMPI PUSH2 0x40C PUSH2 0x1FE JUMP JUMPDEST JUMPDEST PUSH1 0x0 PUSH2 0x41B DUP5 DUP3 DUP6 ADD PUSH2 0x3E2 JUMP JUMPDEST SWAP2 POP POP SWAP3 SWAP2 POP POP JUMP JUMPDEST PUSH1 0x0 DUP1 REVERT JUMPDEST PUSH1 0x0 DUP1 REVERT JUMPDEST PUSH1 0x0 DUP1 DUP4 PUSH1 0x1F DUP5 ADD SLT PUSH2 0x444 JUMPI PUSH2 0x443 PUSH2 0x208 JUMP JUMPDEST JUMPDEST DUP3 CALLDATALOAD SWAP1 POP PUSH8 0xFFFFFFFFFFFFFFFF DUP2 GT ISZERO PUSH2 0x461 JUMPI PUSH2 0x460 PUSH2 0x424 JUMP JUMPDEST JUMPDEST PUSH1 0x20 DUP4 ADD SWAP2 POP DUP4 PUSH1 0x1 DUP3 MUL DUP4 ADD GT ISZERO PUSH2 0x47D JUMPI PUSH2 0x47C PUSH2 0x429 JUMP JUMPDEST JUMPDEST SWAP3 POP SWAP3 SWAP1 POP JUMP JUMPDEST PUSH1 0x0 DUP1 PUSH1 0x0 PUSH1 0x40 DUP5 DUP7 SUB SLT ISZERO PUSH2 0x49D JUMPI PUSH2 0x49C PUSH2 0x1FE JUMP JUMPDEST JUMPDEST PUSH1 0x0 PUSH2 0x4AB DUP7 DUP3 DUP8 ADD PUSH2 0x3E2 JUMP JUMPDEST SWAP4 POP POP PUSH1 0x20 DUP5 ADD CALLDATALOAD PUSH8 0xFFFFFFFFFFFFFFFF DUP2 GT ISZERO PUSH2 0x4CC JUMPI PUSH2 0x4CB PUSH2 0x203 JUMP JUMPDEST JUMPDEST PUSH2 0x4D8 DUP7 DUP3 DUP8 ADD PUSH2 0x42E JUMP JUMPDEST SWAP3 POP SWAP3 POP POP SWAP3 POP SWAP3 POP SWAP3 JUMP JUMPDEST PUSH32 0x4E487B7100000000000000000000000000000000000000000000000000000000 PUSH1 0x0 MSTORE PUSH1 0x11 PUSH1 0x4 MSTORE PUSH1 0x24 PUSH1 0x0 REVERT JUMPDEST PUSH1 0x0 PUSH2 0x51E DUP3 PUSH2 0x397 JUMP JUMPDEST SWAP2 POP PUSH2 0x529 DUP4 PUSH2 0x397 JUMP JUMPDEST SWAP3 POP DUP3 DUP3 ADD SWAP1 POP DUP1 DUP3 GT ISZERO PUSH2 0x541 JUMPI PUSH2 0x540 PUSH2 0x4E4 JUMP JUMPDEST JUMPDEST SWAP3 SWAP2 POP POP JUMP JUMPDEST PUSH1 0x0 DUP2 MLOAD SWAP1 POP SWAP2 SWAP1 POP JUMP JUMPDEST PUSH32 0x4E487B7100000000000000000000000000000000000000000000000000000000 PUSH1 0x0 MSTORE PUSH1 0x22 PUSH1 0x4 MSTORE PUSH1 0x24 PUSH1 0x0 REVERT JUMPDEST PUSH1 0x0 PUSH1 0x2 DUP3 DIV SWAP1 POP PUSH1 0x1 DUP3 AND DUP1 PUSH2 0x599 JUMPI PUSH1 0x7F DUP3 AND SWAP2 POP JUMPDEST PUSH1 0x20 DUP3 LT DUP2 SUB PUSH2 0x5AC JUMPI PUSH2 0x5AB PUSH2 0x552 JUMP JUMPDEST JUMPDEST POP SWAP2 SWAP1 POP JUMP JUMPDEST PUSH1 0x0 DUP2 SWAP1 POP DUP2 PUSH1 0x0 MSTORE PUSH1 0x20 PUSH1 0x0 KECCAK256 SWAP1 POP SWAP2 SWAP1 POP JUMP JUMPDEST PUSH1 0x0 PUSH1 0x20 PUSH1 0x1F DUP4 ADD DIV SWAP1 POP SWAP2 SWAP1 POP JUMP JUMPDEST PUSH1 0x0 DUP3 DUP3 SHL SWAP1 POP SWAP3 SWAP2 POP POP JUMP JUMPDEST PUSH1 0x0 PUSH1 0x8 DUP4 MUL PUSH2 0x614 PUSH32 0xFFFFFFFFFFFFFFFFFFFFFFFFFFFFFFFFFFFFFFFFFFFFFFFFFFFFFFFFFFFFFFFF DUP3 PUSH2 0x5D7 JUMP JUMPDEST PUSH2 0x61E DUP7 DUP4 PUSH2 0x5D7 JUMP JUMPDEST SWAP6 POP DUP1 NOT DUP5 AND SWAP4 POP DUP1 DUP7 AND DUP5 OR SWAP3 POP POP POP SWAP4 SWAP3 POP POP POP JUMP JUMPDEST PUSH1 0x0 DUP2 SWAP1 POP SWAP2 SWAP1 POP JUMP JUMPDEST PUSH1 0x0 PUSH2 0x65B PUSH2 0x656 PUSH2 0x651 DUP5 PUSH2 0x397 JUMP JUMPDEST PUSH2 0x636 JUMP JUMPDEST PUSH2 0x397 JUMP JUMPDEST SWAP1 POP SWAP2 SWAP1 POP JUMP JUMPDEST PUSH1 0x0 DUP2 SWAP1 POP SWAP2 SWAP1 POP JUMP JUMPDEST PUSH2 0x675 DUP4 PUSH2 0x640 JUMP JUMPDEST PUSH2 0x689 PUSH2 0x681 DUP3 PUSH2 0x662 JUMP JUMPDEST DUP5 DUP5 SLOAD PUSH2 0x5E4 JUMP JUMPDEST DUP3 SSTORE POP POP POP POP JUMP JUMPDEST PUSH1 0x0 SWAP1 JUMP JUMPDEST PUSH2 0x69E PUSH2 0x691 JUMP JUMPDEST PUSH2 0x6A9 DUP2 DUP5 DUP5 PUSH2 0x66C JUMP JUMPDEST POP POP POP JUMP JUMPDEST JUMPDEST DUP2 DUP2 LT ISZERO PUSH2 0x6CD JUMPI PUSH2 0x6C2 PUSH1 0x0 DUP3 PUSH2 0x696 JUMP JUMPDEST PUSH1 0x1 DUP2 ADD SWAP1 POP PUSH2 0x6AF JUMP JUMPDEST POP POP JUMP JUMPDEST PUSH1 0x1F DUP3 GT ISZERO PUSH2 0x712 JUMPI PUSH2 0x6E3 DUP2 PUSH2 0x5B2 JUMP JUMPDEST PUSH2 0x6EC DUP5 PUSH2 0x5C7 JUMP JUMPDEST DUP2 ADD PUSH1 0x20 DUP6 LT ISZERO PUSH2 0x6FB JUMPI DUP2 SWAP1 POP JUMPDEST PUSH2 0x70F PUSH2 0x707 DUP6 PUSH2 0x5C7 JUMP JUMPDEST DUP4 ADD DUP3 PUSH2 0x6AE JUMP JUMPDEST POP POP JUMPDEST POP POP POP JUMP JUMPDEST PUSH1 0x0 DUP3 DUP3 SHR SWAP1 POP SWAP3 SWAP2 POP POP JUMP JUMPDEST PUSH1 0x0 PUSH2 0x735 PUSH1 0x0 NOT DUP5 PUSH1 0x8 MUL PUSH2 0x717 JUMP JUMPDEST NOT DUP1 DUP4 AND SWAP2 POP POP SWAP3 SWAP2 POP POP JUMP JUMPDEST PUSH1 0x0 PUSH2 0x74E DUP4 DUP4 PUSH2 0x724 JUMP JUMPDEST SWAP2 POP DUP3 PUSH1 0x2 MUL DUP3 OR SWAP1 POP SWAP3 SWAP2 POP POP JUMP JUMPDEST PUSH2 0x767 DUP3 PUSH2 0x547 JUMP JUMPDEST PUSH8 0xFFFFFFFFFFFFFFFF DUP2 GT ISZERO PUSH2 0x780 JUMPI PUSH2 0x77F PUSH2 0x223 JUMP JUMPDEST JUMPDEST PUSH2 0x78A DUP3 SLOAD PUSH2 0x581 JUMP JUMPDEST PUSH2 0x795 DUP3 DUP3 DUP6 PUSH2 0x6D1 JUMP JUMPDEST PUSH1 0x0 PUSH1 0x20 SWAP1 POP PUSH1 0x1F DUP4 GT PUSH1 0x1 DUP2 EQ PUSH2 0x7C8 JUMPI PUSH1 0x0 DUP5 ISZERO PUSH2 0x7B6 JUMPI DUP3 DUP8 ADD MLOAD SWAP1 POP JUMPDEST PUSH2 0x7C0 DUP6 DUP3 PUSH2 0x742 JUMP JUMPDEST DUP7 SSTORE POP PUSH2 0x828 JUMP JUMPDEST PUSH1 0x1F NOT DUP5 AND PUSH2 0x7D6 DUP7 PUSH2 0x5B2 JUMP JUMPDEST PUSH1 0x0 JUMPDEST DUP3 DUP2 LT ISZERO PUSH2 0x7FE JUMPI DUP5 DUP10 ADD MLOAD DUP3 SSTORE PUSH1 0x1 DUP3 ADD SWAP2 POP PUSH1 0x20 DUP6 ADD SWAP5 POP PUSH1 0x20 DUP2 ADD SWAP1 POP PUSH2 0x7D9 JUMP JUMPDEST DUP7 DUP4 LT ISZERO PUSH2 0x81B JUMPI DUP5 DUP10 ADD MLOAD PUSH2 0x817 PUSH1 0x1F DUP10 AND DUP3 PUSH2 0x724 JUMP JUMPDEST DUP4 SSTORE POP JUMPDEST PUSH1 0x1 PUSH1 0x2 DUP9 MUL ADD DUP9 SSTORE POP POP POP JUMPDEST POP POP POP POP POP POP JUMP JUMPDEST PUSH1 0x0 DUP2 SWAP1 POP SWAP3 SWAP2 POP POP JUMP JUMPDEST PUSH1 0x0 PUSH2 0x847 DUP4 DUP6 PUSH2 0x830 JUMP JUMPDEST SWAP4 POP PUSH2 0x854 DUP4 DUP6 DUP5 PUSH2 0x2CF JUMP JUMPDEST DUP3 DUP5 ADD SWAP1 POP SWAP4 SWAP3 POP POP POP JUMP JUMPDEST PUSH1 0x0 PUSH2 0x86D DUP3 DUP5 DUP7 PUSH2 0x83B JUMP JUMPDEST SWAP2 POP DUP2 SWAP1 POP SWAP4 SWAP3 POP POP POP JUMP INVALID LOG2 PUSH5 0x6970667358 0x22 SLT KECCAK256 0xC4 DIV 0xF9 RETURN 0xE8 DELEGATECALL SMOD PUSH13 0x76ED8B0EF39E44450204546DB2 LOG3 CODECOPY 0xC9 PUSH26 0x99A117D31877A64736F6C634300081300330000000000000000 "
				},
				"gasEstimates": {
					"creation": {
						"codeDepositCost": "444600",
						"executionCost": "480",
						"totalCost": "445080"
					},
					"external": {
						"addPerson(uint256,string)": "infinite",
						"nameToNumber(string)": "infinite",
						"retrive()": "2459",
						"store(uint256)": "infinite"
					}
				},
				"methodIdentifiers": {
					"addPerson(uint256,string)": "bc832d4e",
					"nameToNumber(string)": "2fae4ffd",
					"retrive()": "a6b7fc5b",
					"store(uint256)": "6057361d"
				}
			},
			"storageLayout": {
				"storage": [
					{
						"astId": 23,
						"contract": "AddFiveStorage.sol:AddFiveStorage",
						"label": "favoriteNumber",
						"offset": 0,
						"slot": "0",
						"type": "t_uint256"
					},
					{
						"astId": 32,
						"contract": "AddFiveStorage.sol:AddFiveStorage",
						"label": "listPerson",
						"offset": 0,
						"slot": "1",
						"type": "t_array(t_struct(Person)28_storage)dyn_storage"
					},
					{
						"astId": 36,
						"contract": "AddFiveStorage.sol:AddFiveStorage",
						"label": "nameToNumber",
						"offset": 0,
						"slot": "2",
						"type": "t_mapping(t_string_memory_ptr,t_uint256)"
					}
				],
				"types": {
					"t_array(t_struct(Person)28_storage)dyn_storage": {
						"base": "t_struct(Person)28_storage",
						"encoding": "dynamic_array",
						"label": "struct SimpleStorage.Person[]",
						"numberOfBytes": "32"
					},
					"t_mapping(t_string_memory_ptr,t_uint256)": {
						"encoding": "mapping",
						"key": "t_string_memory_ptr",
						"label": "mapping(string => uint256)",
						"numberOfBytes": "32",
						"value": "t_uint256"
					},
					"t_string_memory_ptr": {
						"encoding": "bytes",
						"label": "string",
						"numberOfBytes": "32"
					},
					"t_string_storage": {
						"encoding": "bytes",
						"label": "string",
						"numberOfBytes": "32"
					},
					"t_struct(Person)28_storage": {
						"encoding": "inplace",
						"label": "struct SimpleStorage.Person",
						"members": [
							{
								"astId": 25,
								"contract": "AddFiveStorage.sol:AddFiveStorage",
								"label": "number",
								"offset": 0,
								"slot": "0",
								"type": "t_uint256"
							},
							{
								"astId": 27,
								"contract": "AddFiveStorage.sol:AddFiveStorage",
								"label": "name",
								"offset": 0,
								"slot": "1",
								"type": "t_string_storage"
							}
						],
						"numberOfBytes": "64"
					},
					"t_uint256": {
						"encoding": "inplace",
						"label": "uint256",
						"numberOfBytes": "32"
					}
				}
			},
			"userdoc": {
				"kind": "user",
				"methods": {},
				"version": 1
			}
		}
	}
}