{
	"SimpleStorage.sol": {
		"SimpleStorage": {
			"abi": [
				{
					"inputs": [
						{
							"internalType": "uint256",
							"name": "_number",
							"type": "uint256"
						},
						{
							"internalType": "string",
							"name": "_name",
							"type": "string"
						}
					],
					"name": "addPerson",
					"outputs": [],
					"stateMutability": "nonpayable",
					"type": "function"
				},
				{
					"inputs": [],
					"name": "favoriteNumber",
					"outputs": [
						{
							"internalType": "uint256",
							"name": "",
							"type": "uint256"
						}
					],
					"stateMutability": "view",
					"type": "function"
				},
				{
					"inputs": [
						{
							"internalType": "uint256",
							"name": "",
							"type": "uint256"
						}
					],
					"name": "listPerson",
					"outputs": [
						{
							"internalType": "uint256",
							"name": "number",
							"type": "uint256"
						},
						{
							"internalType": "string",
							"name": "name",
							"type": "string"
						}
					],
					"stateMutability": "view",
					"type": "function"
				},
				{
					"inputs": [],
					"name": "retrive",
					"outputs": [
						{
							"internalType": "uint256",
							"name": "",
							"type": "uint256"
						}
					],
					"stateMutability": "view",
					"type": "function"
				},
				{
					"inputs": [
						{
							"internalType": "uint256",
							"name": "_favoriteNumber",
							"type": "uint256"
						}
					],
					"name": "store",
					"outputs": [],
					"stateMutability": "nonpayable",
					"type": "function"
				}
			],
			"devdoc": {
				"kind": "dev",
				"methods": {},
				"version": 1
			},
			"evm": {
				"assembly": "    /* \"SimpleStorage.sol\":60:572  contract SimpleStorage {... */\n  mstore(0x40, 0x80)\n  callvalue\n  dup1\n  iszero\n  tag_1\n  jumpi\n  0x00\n  dup1\n  revert\ntag_1:\n  pop\n  dataSize(sub_0)\n  dup1\n  dataOffset(sub_0)\n  0x00\n  codecopy\n  0x00\n  return\nstop\n\nsub_0: assembly {\n        /* \"SimpleStorage.sol\":60:572  contract SimpleStorage {... */\n      mstore(0x40, 0x80)\n      callvalue\n      dup1\n      iszero\n      tag_1\n      jumpi\n      0x00\n      dup1\n      revert\n    tag_1:\n      pop\n      jumpi(tag_2, lt(calldatasize, 0x04))\n      shr(0xe0, calldataload(0x00))\n      dup1\n      0x471f7cdf\n      eq\n      tag_3\n      jumpi\n      dup1\n      0x5f65a5d7\n      eq\n      tag_4\n      jumpi\n      dup1\n      0x6057361d\n      eq\n      tag_5\n      jumpi\n      dup1\n      0xa6b7fc5b\n      eq\n      tag_6\n      jumpi\n      dup1\n      0xbc832d4e\n      eq\n      tag_7\n      jumpi\n    tag_2:\n      0x00\n      dup1\n      revert\n        /* \"SimpleStorage.sol\":90:119  uint256 public favoriteNumber */\n    tag_3:\n      tag_8\n      tag_9\n      jump\t// in\n    tag_8:\n      mload(0x40)\n      tag_10\n      swap2\n      swap1\n      tag_11\n      jump\t// in\n    tag_10:\n      mload(0x40)\n      dup1\n      swap2\n      sub\n      swap1\n      return\n        /* \"SimpleStorage.sol\":205:231  Person[] public listPerson */\n    tag_4:\n      tag_12\n      0x04\n      dup1\n      calldatasize\n      sub\n      dup2\n      add\n      swap1\n      tag_13\n      swap2\n      swap1\n      tag_14\n      jump\t// in\n    tag_13:\n      tag_15\n      jump\t// in\n    tag_12:\n      mload(0x40)\n      tag_16\n      swap3\n      swap2\n      swap1\n      tag_17\n      jump\t// in\n    tag_16:\n      mload(0x40)\n      dup1\n      swap2\n      sub\n      swap1\n      return\n        /* \"SimpleStorage.sol\":240:338  function store(uint256 _favoriteNumber) public {... */\n    tag_5:\n      tag_18\n      0x04\n      dup1\n      calldatasize\n      sub\n      dup2\n      add\n      swap1\n      tag_19\n      swap2\n      swap1\n      tag_14\n      jump\t// in\n    tag_19:\n      tag_20\n      jump\t// in\n    tag_18:\n      stop\n        /* \"SimpleStorage.sol\":346:433  function retrive() public view returns(uint256){... */\n    tag_6:\n      tag_21\n      tag_22\n      jump\t// in\n    tag_21:\n      mload(0x40)\n      tag_23\n      swap2\n      swap1\n      tag_11\n      jump\t// in\n    tag_23:\n      mload(0x40)\n      dup1\n      swap2\n      sub\n      swap1\n      return\n        /* \"SimpleStorage.sol\":445:569  function addPerson(uint256 _number, string calldata _name) public {... */\n    tag_7:\n      tag_24\n      0x04\n      dup1\n      calldatasize\n      sub\n      dup2\n      add\n      swap1\n      tag_25\n      swap2\n      swap1\n      tag_26\n      jump\t// in\n    tag_25:\n      tag_27\n      jump\t// in\n    tag_24:\n      stop\n        /* \"SimpleStorage.sol\":90:119  uint256 public favoriteNumber */\n    tag_9:\n      sload(0x00)\n      dup2\n      jump\t// out\n        /* \"SimpleStorage.sol\":205:231  Person[] public listPerson */\n    tag_15:\n      0x01\n      dup2\n      dup2\n      sload\n      dup2\n      lt\n      tag_28\n      jumpi\n      0x00\n      dup1\n      revert\n    tag_28:\n      swap1\n      0x00\n      mstore\n      keccak256(0x00, 0x20)\n      swap1\n      0x02\n      mul\n      add\n      0x00\n      swap2\n      pop\n      swap1\n      pop\n      dup1\n      0x00\n      add\n      sload\n      swap1\n      dup1\n      0x01\n      add\n      dup1\n      sload\n      tag_30\n      swap1\n      tag_31\n      jump\t// in\n    tag_30:\n      dup1\n      0x1f\n      add\n      0x20\n      dup1\n      swap2\n      div\n      mul\n      0x20\n      add\n      mload(0x40)\n      swap1\n      dup2\n      add\n      0x40\n      mstore\n      dup1\n      swap3\n      swap2\n      swap1\n      dup2\n      dup2\n      mstore\n      0x20\n      add\n      dup3\n      dup1\n      sload\n      tag_32\n      swap1\n      tag_31\n      jump\t// in\n    tag_32:\n      dup1\n      iszero\n      tag_33\n      jumpi\n      dup1\n      0x1f\n      lt\n      tag_34\n      jumpi\n      0x0100\n      dup1\n      dup4\n      sload\n      div\n      mul\n      dup4\n      mstore\n      swap2\n      0x20\n      add\n      swap2\n      jump(tag_33)\n    tag_34:\n      dup3\n      add\n      swap2\n      swap1\n      0x00\n      mstore\n      keccak256(0x00, 0x20)\n      swap1\n    tag_35:\n      dup2\n      sload\n      dup2\n      mstore\n      swap1\n      0x01\n      add\n      swap1\n      0x20\n      add\n      dup1\n      dup4\n      gt\n      tag_35\n      jumpi\n      dup3\n      swap1\n      sub\n      0x1f\n      and\n      dup3\n      add\n      swap2\n    tag_33:\n      pop\n      pop\n      pop\n      pop\n      pop\n      swap1\n      pop\n      dup3\n      jump\t// out\n        /* \"SimpleStorage.sol\":240:338  function store(uint256 _favoriteNumber) public {... */\n    tag_20:\n        /* \"SimpleStorage.sol\":315:330  _favoriteNumber */\n      dup1\n        /* \"SimpleStorage.sol\":298:312  favoriteNumber */\n      0x00\n        /* \"SimpleStorage.sol\":298:330  favoriteNumber = _favoriteNumber */\n      dup2\n      swap1\n      sstore\n      pop\n        /* \"SimpleStorage.sol\":240:338  function store(uint256 _favoriteNumber) public {... */\n      pop\n      jump\t// out\n        /* \"SimpleStorage.sol\":346:433  function retrive() public view returns(uint256){... */\n    tag_22:\n        /* \"SimpleStorage.sol\":385:392  uint256 */\n      0x00\n        /* \"SimpleStorage.sol\":411:425  favoriteNumber */\n      dup1\n      sload\n        /* \"SimpleStorage.sol\":404:425  return favoriteNumber */\n      swap1\n      pop\n        /* \"SimpleStorage.sol\":346:433  function retrive() public view returns(uint256){... */\n      swap1\n      jump\t// out\n        /* \"SimpleStorage.sol\":445:569  function addPerson(uint256 _number, string calldata _name) public {... */\n    tag_27:\n        /* \"SimpleStorage.sol\":522:532  listPerson */\n      0x01\n        /* \"SimpleStorage.sol\":538:560  Person(_number, _name) */\n      mload(0x40)\n      dup1\n      0x40\n      add\n      0x40\n      mstore\n      dup1\n        /* \"SimpleStorage.sol\":545:552  _number */\n      dup6\n        /* \"SimpleStorage.sol\":538:560  Person(_number, _name) */\n      dup2\n      mstore\n      0x20\n      add\n        /* \"SimpleStorage.sol\":554:559  _name */\n      dup5\n      dup5\n        /* \"SimpleStorage.sol\":538:560  Person(_number, _name) */\n      dup1\n      dup1\n      0x1f\n      add\n      0x20\n      dup1\n      swap2\n      div\n      mul\n      0x20\n      add\n      mload(0x40)\n      swap1\n      dup2\n      add\n      0x40\n      mstore\n      dup1\n      swap4\n      swap3\n      swap2\n      swap1\n      dup2\n      dup2\n      mstore\n      0x20\n      add\n      dup4\n      dup4\n      dup1\n      dup3\n      dup5\n      calldatacopy\n      0x00\n      dup2\n      dup5\n      add\n      mstore\n      not(0x1f)\n      0x1f\n      dup3\n      add\n      and\n      swap1\n      pop\n      dup1\n      dup4\n      add\n      swap3\n      pop\n      pop\n      pop\n      pop\n      pop\n      pop\n      pop\n      dup2\n      mstore\n      pop\n        /* \"SimpleStorage.sol\":522:561  listPerson.push(Person(_number, _name)) */\n      swap1\n      dup1\n      0x01\n      dup2\n      sload\n      add\n      dup1\n      dup3\n      sstore\n      dup1\n      swap2\n      pop\n      pop\n      0x01\n      swap1\n      sub\n      swap1\n      0x00\n      mstore\n      keccak256(0x00, 0x20)\n      swap1\n      0x02\n      mul\n      add\n      0x00\n      swap1\n      swap2\n      swap1\n      swap2\n      swap1\n      swap2\n      pop\n      0x00\n      dup3\n      add\n      mload\n      dup2\n      0x00\n      add\n      sstore\n      0x20\n      dup3\n      add\n      mload\n      dup2\n      0x01\n      add\n      swap1\n      dup2\n      tag_40\n      swap2\n      swap1\n      tag_41\n      jump\t// in\n    tag_40:\n      pop\n      pop\n      pop\n        /* \"SimpleStorage.sol\":445:569  function addPerson(uint256 _number, string calldata _name) public {... */\n      pop\n      pop\n      pop\n      jump\t// out\n        /* \"#utility.yul\":7:84   */\n    tag_42:\n        /* \"#utility.yul\":44:51   */\n      0x00\n        /* \"#utility.yul\":73:78   */\n      dup2\n        /* \"#utility.yul\":62:78   */\n      swap1\n      pop\n        /* \"#utility.yul\":7:84   */\n      swap2\n      swap1\n      pop\n      jump\t// out\n        /* \"#utility.yul\":90:208   */\n    tag_43:\n        /* \"#utility.yul\":177:201   */\n      tag_78\n        /* \"#utility.yul\":195:200   */\n      dup2\n        /* \"#utility.yul\":177:201   */\n      tag_42\n      jump\t// in\n    tag_78:\n        /* \"#utility.yul\":172:175   */\n      dup3\n        /* \"#utility.yul\":165:202   */\n      mstore\n        /* \"#utility.yul\":90:208   */\n      pop\n      pop\n      jump\t// out\n        /* \"#utility.yul\":214:436   */\n    tag_11:\n        /* \"#utility.yul\":307:311   */\n      0x00\n        /* \"#utility.yul\":345:347   */\n      0x20\n        /* \"#utility.yul\":334:343   */\n      dup3\n        /* \"#utility.yul\":330:348   */\n      add\n        /* \"#utility.yul\":322:348   */\n      swap1\n      pop\n        /* \"#utility.yul\":358:429   */\n      tag_80\n        /* \"#utility.yul\":426:427   */\n      0x00\n        /* \"#utility.yul\":415:424   */\n      dup4\n        /* \"#utility.yul\":411:428   */\n      add\n        /* \"#utility.yul\":402:408   */\n      dup5\n        /* \"#utility.yul\":358:429   */\n      tag_43\n      jump\t// in\n    tag_80:\n        /* \"#utility.yul\":214:436   */\n      swap3\n      swap2\n      pop\n      pop\n      jump\t// out\n        /* \"#utility.yul\":523:640   */\n    tag_45:\n        /* \"#utility.yul\":632:633   */\n      0x00\n        /* \"#utility.yul\":629:630   */\n      dup1\n        /* \"#utility.yul\":622:634   */\n      revert\n        /* \"#utility.yul\":646:763   */\n    tag_46:\n        /* \"#utility.yul\":755:756   */\n      0x00\n        /* \"#utility.yul\":752:753   */\n      dup1\n        /* \"#utility.yul\":745:757   */\n      revert\n        /* \"#utility.yul\":769:891   */\n    tag_47:\n        /* \"#utility.yul\":842:866   */\n      tag_85\n        /* \"#utility.yul\":860:865   */\n      dup2\n        /* \"#utility.yul\":842:866   */\n      tag_42\n      jump\t// in\n    tag_85:\n        /* \"#utility.yul\":835:840   */\n      dup2\n        /* \"#utility.yul\":832:867   */\n      eq\n        /* \"#utility.yul\":822:885   */\n      tag_86\n      jumpi\n        /* \"#utility.yul\":881:882   */\n      0x00\n        /* \"#utility.yul\":878:879   */\n      dup1\n        /* \"#utility.yul\":871:883   */\n      revert\n        /* \"#utility.yul\":822:885   */\n    tag_86:\n        /* \"#utility.yul\":769:891   */\n      pop\n      jump\t// out\n        /* \"#utility.yul\":897:1036   */\n    tag_48:\n        /* \"#utility.yul\":943:948   */\n      0x00\n        /* \"#utility.yul\":981:987   */\n      dup2\n        /* \"#utility.yul\":968:988   */\n      calldataload\n        /* \"#utility.yul\":959:988   */\n      swap1\n      pop\n        /* \"#utility.yul\":997:1030   */\n      tag_88\n        /* \"#utility.yul\":1024:1029   */\n      dup2\n        /* \"#utility.yul\":997:1030   */\n      tag_47\n      jump\t// in\n    tag_88:\n        /* \"#utility.yul\":897:1036   */\n      swap3\n      swap2\n      pop\n      pop\n      jump\t// out\n        /* \"#utility.yul\":1042:1371   */\n    tag_14:\n        /* \"#utility.yul\":1101:1107   */\n      0x00\n        /* \"#utility.yul\":1150:1152   */\n      0x20\n        /* \"#utility.yul\":1138:1147   */\n      dup3\n        /* \"#utility.yul\":1129:1136   */\n      dup5\n        /* \"#utility.yul\":1125:1148   */\n      sub\n        /* \"#utility.yul\":1121:1153   */\n      slt\n        /* \"#utility.yul\":1118:1237   */\n      iszero\n      tag_90\n      jumpi\n        /* \"#utility.yul\":1156:1235   */\n      tag_91\n      tag_45\n      jump\t// in\n    tag_91:\n        /* \"#utility.yul\":1118:1237   */\n    tag_90:\n        /* \"#utility.yul\":1276:1277   */\n      0x00\n        /* \"#utility.yul\":1301:1354   */\n      tag_92\n        /* \"#utility.yul\":1346:1353   */\n      dup5\n        /* \"#utility.yul\":1337:1343   */\n      dup3\n        /* \"#utility.yul\":1326:1335   */\n      dup6\n        /* \"#utility.yul\":1322:1344   */\n      add\n        /* \"#utility.yul\":1301:1354   */\n      tag_48\n      jump\t// in\n    tag_92:\n        /* \"#utility.yul\":1291:1354   */\n      swap2\n      pop\n        /* \"#utility.yul\":1247:1364   */\n      pop\n        /* \"#utility.yul\":1042:1371   */\n      swap3\n      swap2\n      pop\n      pop\n      jump\t// out\n        /* \"#utility.yul\":1377:1476   */\n    tag_49:\n        /* \"#utility.yul\":1429:1435   */\n      0x00\n        /* \"#utility.yul\":1463:1468   */\n      dup2\n        /* \"#utility.yul\":1457:1469   */\n      mload\n        /* \"#utility.yul\":1447:1469   */\n      swap1\n      pop\n        /* \"#utility.yul\":1377:1476   */\n      swap2\n      swap1\n      pop\n      jump\t// out\n        /* \"#utility.yul\":1482:1651   */\n    tag_50:\n        /* \"#utility.yul\":1566:1577   */\n      0x00\n        /* \"#utility.yul\":1600:1606   */\n      dup3\n        /* \"#utility.yul\":1595:1598   */\n      dup3\n        /* \"#utility.yul\":1588:1607   */\n      mstore\n        /* \"#utility.yul\":1640:1644   */\n      0x20\n        /* \"#utility.yul\":1635:1638   */\n      dup3\n        /* \"#utility.yul\":1631:1645   */\n      add\n        /* \"#utility.yul\":1616:1645   */\n      swap1\n      pop\n        /* \"#utility.yul\":1482:1651   */\n      swap3\n      swap2\n      pop\n      pop\n      jump\t// out\n        /* \"#utility.yul\":1657:1903   */\n    tag_51:\n        /* \"#utility.yul\":1738:1739   */\n      0x00\n        /* \"#utility.yul\":1748:1861   */\n    tag_96:\n        /* \"#utility.yul\":1762:1768   */\n      dup4\n        /* \"#utility.yul\":1759:1760   */\n      dup2\n        /* \"#utility.yul\":1756:1769   */\n      lt\n        /* \"#utility.yul\":1748:1861   */\n      iszero\n      tag_98\n      jumpi\n        /* \"#utility.yul\":1847:1848   */\n      dup1\n        /* \"#utility.yul\":1842:1845   */\n      dup3\n        /* \"#utility.yul\":1838:1849   */\n      add\n        /* \"#utility.yul\":1832:1850   */\n      mload\n        /* \"#utility.yul\":1828:1829   */\n      dup2\n        /* \"#utility.yul\":1823:1826   */\n      dup5\n        /* \"#utility.yul\":1819:1830   */\n      add\n        /* \"#utility.yul\":1812:1851   */\n      mstore\n        /* \"#utility.yul\":1784:1786   */\n      0x20\n        /* \"#utility.yul\":1781:1782   */\n      dup2\n        /* \"#utility.yul\":1777:1787   */\n      add\n        /* \"#utility.yul\":1772:1787   */\n      swap1\n      pop\n        /* \"#utility.yul\":1748:1861   */\n      jump(tag_96)\n    tag_98:\n        /* \"#utility.yul\":1895:1896   */\n      0x00\n        /* \"#utility.yul\":1886:1892   */\n      dup5\n        /* \"#utility.yul\":1881:1884   */\n      dup5\n        /* \"#utility.yul\":1877:1893   */\n      add\n        /* \"#utility.yul\":1870:1897   */\n      mstore\n        /* \"#utility.yul\":1719:1903   */\n      pop\n        /* \"#utility.yul\":1657:1903   */\n      pop\n      pop\n      pop\n      jump\t// out\n        /* \"#utility.yul\":1909:2011   */\n    tag_52:\n        /* \"#utility.yul\":1950:1956   */\n      0x00\n        /* \"#utility.yul\":2001:2003   */\n      0x1f\n        /* \"#utility.yul\":1997:2004   */\n      not\n        /* \"#utility.yul\":1992:1994   */\n      0x1f\n        /* \"#utility.yul\":1985:1990   */\n      dup4\n        /* \"#utility.yul\":1981:1995   */\n      add\n        /* \"#utility.yul\":1977:2005   */\n      and\n        /* \"#utility.yul\":1967:2005   */\n      swap1\n      pop\n        /* \"#utility.yul\":1909:2011   */\n      swap2\n      swap1\n      pop\n      jump\t// out\n        /* \"#utility.yul\":2017:2394   */\n    tag_53:\n        /* \"#utility.yul\":2105:2108   */\n      0x00\n        /* \"#utility.yul\":2133:2172   */\n      tag_101\n        /* \"#utility.yul\":2166:2171   */\n      dup3\n        /* \"#utility.yul\":2133:2172   */\n      tag_49\n      jump\t// in\n    tag_101:\n        /* \"#utility.yul\":2188:2259   */\n      tag_102\n        /* \"#utility.yul\":2252:2258   */\n      dup2\n        /* \"#utility.yul\":2247:2250   */\n      dup6\n        /* \"#utility.yul\":2188:2259   */\n      tag_50\n      jump\t// in\n    tag_102:\n        /* \"#utility.yul\":2181:2259   */\n      swap4\n      pop\n        /* \"#utility.yul\":2268:2333   */\n      tag_103\n        /* \"#utility.yul\":2326:2332   */\n      dup2\n        /* \"#utility.yul\":2321:2324   */\n      dup6\n        /* \"#utility.yul\":2314:2318   */\n      0x20\n        /* \"#utility.yul\":2307:2312   */\n      dup7\n        /* \"#utility.yul\":2303:2319   */\n      add\n        /* \"#utility.yul\":2268:2333   */\n      tag_51\n      jump\t// in\n    tag_103:\n        /* \"#utility.yul\":2358:2387   */\n      tag_104\n        /* \"#utility.yul\":2380:2386   */\n      dup2\n        /* \"#utility.yul\":2358:2387   */\n      tag_52\n      jump\t// in\n    tag_104:\n        /* \"#utility.yul\":2353:2356   */\n      dup5\n        /* \"#utility.yul\":2349:2388   */\n      add\n        /* \"#utility.yul\":2342:2388   */\n      swap2\n      pop\n        /* \"#utility.yul\":2109:2394   */\n      pop\n        /* \"#utility.yul\":2017:2394   */\n      swap3\n      swap2\n      pop\n      pop\n      jump\t// out\n        /* \"#utility.yul\":2400:2823   */\n    tag_17:\n        /* \"#utility.yul\":2541:2545   */\n      0x00\n        /* \"#utility.yul\":2579:2581   */\n      0x40\n        /* \"#utility.yul\":2568:2577   */\n      dup3\n        /* \"#utility.yul\":2564:2582   */\n      add\n        /* \"#utility.yul\":2556:2582   */\n      swap1\n      pop\n        /* \"#utility.yul\":2592:2663   */\n      tag_106\n        /* \"#utility.yul\":2660:2661   */\n      0x00\n        /* \"#utility.yul\":2649:2658   */\n      dup4\n        /* \"#utility.yul\":2645:2662   */\n      add\n        /* \"#utility.yul\":2636:2642   */\n      dup6\n        /* \"#utility.yul\":2592:2663   */\n      tag_43\n      jump\t// in\n    tag_106:\n        /* \"#utility.yul\":2710:2719   */\n      dup2\n        /* \"#utility.yul\":2704:2708   */\n      dup2\n        /* \"#utility.yul\":2700:2720   */\n      sub\n        /* \"#utility.yul\":2695:2697   */\n      0x20\n        /* \"#utility.yul\":2684:2693   */\n      dup4\n        /* \"#utility.yul\":2680:2698   */\n      add\n        /* \"#utility.yul\":2673:2721   */\n      mstore\n        /* \"#utility.yul\":2738:2816   */\n      tag_107\n        /* \"#utility.yul\":2811:2815   */\n      dup2\n        /* \"#utility.yul\":2802:2808   */\n      dup5\n        /* \"#utility.yul\":2738:2816   */\n      tag_53\n      jump\t// in\n    tag_107:\n        /* \"#utility.yul\":2730:2816   */\n      swap1\n      pop\n        /* \"#utility.yul\":2400:2823   */\n      swap4\n      swap3\n      pop\n      pop\n      pop\n      jump\t// out\n        /* \"#utility.yul\":2829:2946   */\n    tag_54:\n        /* \"#utility.yul\":2938:2939   */\n      0x00\n        /* \"#utility.yul\":2935:2936   */\n      dup1\n        /* \"#utility.yul\":2928:2940   */\n      revert\n        /* \"#utility.yul\":2952:3069   */\n    tag_55:\n        /* \"#utility.yul\":3061:3062   */\n      0x00\n        /* \"#utility.yul\":3058:3059   */\n      dup1\n        /* \"#utility.yul\":3051:3063   */\n      revert\n        /* \"#utility.yul\":3075:3192   */\n    tag_56:\n        /* \"#utility.yul\":3184:3185   */\n      0x00\n        /* \"#utility.yul\":3181:3182   */\n      dup1\n        /* \"#utility.yul\":3174:3186   */\n      revert\n        /* \"#utility.yul\":3212:3765   */\n    tag_57:\n        /* \"#utility.yul\":3270:3278   */\n      0x00\n        /* \"#utility.yul\":3280:3286   */\n      dup1\n        /* \"#utility.yul\":3330:3333   */\n      dup4\n        /* \"#utility.yul\":3323:3327   */\n      0x1f\n        /* \"#utility.yul\":3315:3321   */\n      dup5\n        /* \"#utility.yul\":3311:3328   */\n      add\n        /* \"#utility.yul\":3307:3334   */\n      slt\n        /* \"#utility.yul\":3297:3419   */\n      tag_112\n      jumpi\n        /* \"#utility.yul\":3338:3417   */\n      tag_113\n      tag_54\n      jump\t// in\n    tag_113:\n        /* \"#utility.yul\":3297:3419   */\n    tag_112:\n        /* \"#utility.yul\":3451:3457   */\n      dup3\n        /* \"#utility.yul\":3438:3458   */\n      calldataload\n        /* \"#utility.yul\":3428:3458   */\n      swap1\n      pop\n        /* \"#utility.yul\":3481:3499   */\n      0xffffffffffffffff\n        /* \"#utility.yul\":3473:3479   */\n      dup2\n        /* \"#utility.yul\":3470:3500   */\n      gt\n        /* \"#utility.yul\":3467:3584   */\n      iszero\n      tag_114\n      jumpi\n        /* \"#utility.yul\":3503:3582   */\n      tag_115\n      tag_55\n      jump\t// in\n    tag_115:\n        /* \"#utility.yul\":3467:3584   */\n    tag_114:\n        /* \"#utility.yul\":3617:3621   */\n      0x20\n        /* \"#utility.yul\":3609:3615   */\n      dup4\n        /* \"#utility.yul\":3605:3622   */\n      add\n        /* \"#utility.yul\":3593:3622   */\n      swap2\n      pop\n        /* \"#utility.yul\":3671:3674   */\n      dup4\n        /* \"#utility.yul\":3663:3667   */\n      0x01\n        /* \"#utility.yul\":3655:3661   */\n      dup3\n        /* \"#utility.yul\":3651:3668   */\n      mul\n        /* \"#utility.yul\":3641:3649   */\n      dup4\n        /* \"#utility.yul\":3637:3669   */\n      add\n        /* \"#utility.yul\":3634:3675   */\n      gt\n        /* \"#utility.yul\":3631:3759   */\n      iszero\n      tag_116\n      jumpi\n        /* \"#utility.yul\":3678:3757   */\n      tag_117\n      tag_56\n      jump\t// in\n    tag_117:\n        /* \"#utility.yul\":3631:3759   */\n    tag_116:\n        /* \"#utility.yul\":3212:3765   */\n      swap3\n      pop\n      swap3\n      swap1\n      pop\n      jump\t// out\n        /* \"#utility.yul\":3771:4445   */\n    tag_26:\n        /* \"#utility.yul\":3851:3857   */\n      0x00\n        /* \"#utility.yul\":3859:3865   */\n      dup1\n        /* \"#utility.yul\":3867:3873   */\n      0x00\n        /* \"#utility.yul\":3916:3918   */\n      0x40\n        /* \"#utility.yul\":3904:3913   */\n      dup5\n        /* \"#utility.yul\":3895:3902   */\n      dup7\n        /* \"#utility.yul\":3891:3914   */\n      sub\n        /* \"#utility.yul\":3887:3919   */\n      slt\n        /* \"#utility.yul\":3884:4003   */\n      iszero\n      tag_119\n      jumpi\n        /* \"#utility.yul\":3922:4001   */\n      tag_120\n      tag_45\n      jump\t// in\n    tag_120:\n        /* \"#utility.yul\":3884:4003   */\n    tag_119:\n        /* \"#utility.yul\":4042:4043   */\n      0x00\n        /* \"#utility.yul\":4067:4120   */\n      tag_121\n        /* \"#utility.yul\":4112:4119   */\n      dup7\n        /* \"#utility.yul\":4103:4109   */\n      dup3\n        /* \"#utility.yul\":4092:4101   */\n      dup8\n        /* \"#utility.yul\":4088:4110   */\n      add\n        /* \"#utility.yul\":4067:4120   */\n      tag_48\n      jump\t// in\n    tag_121:\n        /* \"#utility.yul\":4057:4120   */\n      swap4\n      pop\n        /* \"#utility.yul\":4013:4130   */\n      pop\n        /* \"#utility.yul\":4197:4199   */\n      0x20\n        /* \"#utility.yul\":4186:4195   */\n      dup5\n        /* \"#utility.yul\":4182:4200   */\n      add\n        /* \"#utility.yul\":4169:4201   */\n      calldataload\n        /* \"#utility.yul\":4228:4246   */\n      0xffffffffffffffff\n        /* \"#utility.yul\":4220:4226   */\n      dup2\n        /* \"#utility.yul\":4217:4247   */\n      gt\n        /* \"#utility.yul\":4214:4331   */\n      iszero\n      tag_122\n      jumpi\n        /* \"#utility.yul\":4250:4329   */\n      tag_123\n      tag_46\n      jump\t// in\n    tag_123:\n        /* \"#utility.yul\":4214:4331   */\n    tag_122:\n        /* \"#utility.yul\":4363:4428   */\n      tag_124\n        /* \"#utility.yul\":4420:4427   */\n      dup7\n        /* \"#utility.yul\":4411:4417   */\n      dup3\n        /* \"#utility.yul\":4400:4409   */\n      dup8\n        /* \"#utility.yul\":4396:4418   */\n      add\n        /* \"#utility.yul\":4363:4428   */\n      tag_57\n      jump\t// in\n    tag_124:\n        /* \"#utility.yul\":4345:4428   */\n      swap3\n      pop\n      swap3\n      pop\n        /* \"#utility.yul\":4140:4438   */\n      pop\n        /* \"#utility.yul\":3771:4445   */\n      swap3\n      pop\n      swap3\n      pop\n      swap3\n      jump\t// out\n        /* \"#utility.yul\":4451:4631   */\n    tag_58:\n        /* \"#utility.yul\":4499:4576   */\n      0x4e487b7100000000000000000000000000000000000000000000000000000000\n        /* \"#utility.yul\":4496:4497   */\n      0x00\n        /* \"#utility.yul\":4489:4577   */\n      mstore\n        /* \"#utility.yul\":4596:4600   */\n      0x22\n        /* \"#utility.yul\":4593:4594   */\n      0x04\n        /* \"#utility.yul\":4586:4601   */\n      mstore\n        /* \"#utility.yul\":4620:4624   */\n      0x24\n        /* \"#utility.yul\":4617:4618   */\n      0x00\n        /* \"#utility.yul\":4610:4625   */\n      revert\n        /* \"#utility.yul\":4637:4957   */\n    tag_31:\n        /* \"#utility.yul\":4681:4687   */\n      0x00\n        /* \"#utility.yul\":4718:4719   */\n      0x02\n        /* \"#utility.yul\":4712:4716   */\n      dup3\n        /* \"#utility.yul\":4708:4720   */\n      div\n        /* \"#utility.yul\":4698:4720   */\n      swap1\n      pop\n        /* \"#utility.yul\":4765:4766   */\n      0x01\n        /* \"#utility.yul\":4759:4763   */\n      dup3\n        /* \"#utility.yul\":4755:4767   */\n      and\n        /* \"#utility.yul\":4786:4804   */\n      dup1\n        /* \"#utility.yul\":4776:4857   */\n      tag_127\n      jumpi\n        /* \"#utility.yul\":4842:4846   */\n      0x7f\n        /* \"#utility.yul\":4834:4840   */\n      dup3\n        /* \"#utility.yul\":4830:4847   */\n      and\n        /* \"#utility.yul\":4820:4847   */\n      swap2\n      pop\n        /* \"#utility.yul\":4776:4857   */\n    tag_127:\n        /* \"#utility.yul\":4904:4906   */\n      0x20\n        /* \"#utility.yul\":4896:4902   */\n      dup3\n        /* \"#utility.yul\":4893:4907   */\n      lt\n        /* \"#utility.yul\":4873:4891   */\n      dup2\n        /* \"#utility.yul\":4870:4908   */\n      sub\n        /* \"#utility.yul\":4867:4951   */\n      tag_128\n      jumpi\n        /* \"#utility.yul\":4923:4941   */\n      tag_129\n      tag_58\n      jump\t// in\n    tag_129:\n        /* \"#utility.yul\":4867:4951   */\n    tag_128:\n        /* \"#utility.yul\":4688:4957   */\n      pop\n        /* \"#utility.yul\":4637:4957   */\n      swap2\n      swap1\n      pop\n      jump\t// out\n        /* \"#utility.yul\":4963:5143   */\n    tag_59:\n        /* \"#utility.yul\":5011:5088   */\n      0x4e487b7100000000000000000000000000000000000000000000000000000000\n        /* \"#utility.yul\":5008:5009   */\n      0x00\n        /* \"#utility.yul\":5001:5089   */\n      mstore\n        /* \"#utility.yul\":5108:5112   */\n      0x41\n        /* \"#utility.yul\":5105:5106   */\n      0x04\n        /* \"#utility.yul\":5098:5113   */\n      mstore\n        /* \"#utility.yul\":5132:5136   */\n      0x24\n        /* \"#utility.yul\":5129:5130   */\n      0x00\n        /* \"#utility.yul\":5122:5137   */\n      revert\n        /* \"#utility.yul\":5149:5290   */\n    tag_60:\n        /* \"#utility.yul\":5198:5202   */\n      0x00\n        /* \"#utility.yul\":5221:5224   */\n      dup2\n        /* \"#utility.yul\":5213:5224   */\n      swap1\n      pop\n        /* \"#utility.yul\":5244:5247   */\n      dup2\n        /* \"#utility.yul\":5241:5242   */\n      0x00\n        /* \"#utility.yul\":5234:5248   */\n      mstore\n        /* \"#utility.yul\":5278:5282   */\n      0x20\n        /* \"#utility.yul\":5275:5276   */\n      0x00\n        /* \"#utility.yul\":5265:5283   */\n      keccak256\n        /* \"#utility.yul\":5257:5283   */\n      swap1\n      pop\n        /* \"#utility.yul\":5149:5290   */\n      swap2\n      swap1\n      pop\n      jump\t// out\n        /* \"#utility.yul\":5296:5389   */\n    tag_61:\n        /* \"#utility.yul\":5333:5339   */\n      0x00\n        /* \"#utility.yul\":5380:5382   */\n      0x20\n        /* \"#utility.yul\":5375:5377   */\n      0x1f\n        /* \"#utility.yul\":5368:5373   */\n      dup4\n        /* \"#utility.yul\":5364:5378   */\n      add\n        /* \"#utility.yul\":5360:5383   */\n      div\n        /* \"#utility.yul\":5350:5383   */\n      swap1\n      pop\n        /* \"#utility.yul\":5296:5389   */\n      swap2\n      swap1\n      pop\n      jump\t// out\n        /* \"#utility.yul\":5395:5502   */\n    tag_62:\n        /* \"#utility.yul\":5439:5447   */\n      0x00\n        /* \"#utility.yul\":5489:5494   */\n      dup3\n        /* \"#utility.yul\":5483:5487   */\n      dup3\n        /* \"#utility.yul\":5479:5495   */\n      shl\n        /* \"#utility.yul\":5458:5495   */\n      swap1\n      pop\n        /* \"#utility.yul\":5395:5502   */\n      swap3\n      swap2\n      pop\n      pop\n      jump\t// out\n        /* \"#utility.yul\":5508:5901   */\n    tag_63:\n        /* \"#utility.yul\":5577:5583   */\n      0x00\n        /* \"#utility.yul\":5627:5628   */\n      0x08\n        /* \"#utility.yul\":5615:5625   */\n      dup4\n        /* \"#utility.yul\":5611:5629   */\n      mul\n        /* \"#utility.yul\":5650:5747   */\n      tag_135\n        /* \"#utility.yul\":5680:5746   */\n      0xffffffffffffffffffffffffffffffffffffffffffffffffffffffffffffffff\n        /* \"#utility.yul\":5669:5678   */\n      dup3\n        /* \"#utility.yul\":5650:5747   */\n      tag_62\n      jump\t// in\n    tag_135:\n        /* \"#utility.yul\":5768:5807   */\n      tag_136\n        /* \"#utility.yul\":5798:5806   */\n      dup7\n        /* \"#utility.yul\":5787:5796   */\n      dup4\n        /* \"#utility.yul\":5768:5807   */\n      tag_62\n      jump\t// in\n    tag_136:\n        /* \"#utility.yul\":5756:5807   */\n      swap6\n      pop\n        /* \"#utility.yul\":5840:5844   */\n      dup1\n        /* \"#utility.yul\":5836:5845   */\n      not\n        /* \"#utility.yul\":5829:5834   */\n      dup5\n        /* \"#utility.yul\":5825:5846   */\n      and\n        /* \"#utility.yul\":5816:5846   */\n      swap4\n      pop\n        /* \"#utility.yul\":5889:5893   */\n      dup1\n        /* \"#utility.yul\":5879:5887   */\n      dup7\n        /* \"#utility.yul\":5875:5894   */\n      and\n        /* \"#utility.yul\":5868:5873   */\n      dup5\n        /* \"#utility.yul\":5865:5895   */\n      or\n        /* \"#utility.yul\":5855:5895   */\n      swap3\n      pop\n        /* \"#utility.yul\":5584:5901   */\n      pop\n      pop\n        /* \"#utility.yul\":5508:5901   */\n      swap4\n      swap3\n      pop\n      pop\n      pop\n      jump\t// out\n        /* \"#utility.yul\":5907:5967   */\n    tag_64:\n        /* \"#utility.yul\":5935:5938   */\n      0x00\n        /* \"#utility.yul\":5956:5961   */\n      dup2\n        /* \"#utility.yul\":5949:5961   */\n      swap1\n      pop\n        /* \"#utility.yul\":5907:5967   */\n      swap2\n      swap1\n      pop\n      jump\t// out\n        /* \"#utility.yul\":5973:6115   */\n    tag_65:\n        /* \"#utility.yul\":6023:6032   */\n      0x00\n        /* \"#utility.yul\":6056:6109   */\n      tag_139\n        /* \"#utility.yul\":6074:6108   */\n      tag_140\n        /* \"#utility.yul\":6083:6107   */\n      tag_141\n        /* \"#utility.yul\":6101:6106   */\n      dup5\n        /* \"#utility.yul\":6083:6107   */\n      tag_42\n      jump\t// in\n    tag_141:\n        /* \"#utility.yul\":6074:6108   */\n      tag_64\n      jump\t// in\n    tag_140:\n        /* \"#utility.yul\":6056:6109   */\n      tag_42\n      jump\t// in\n    tag_139:\n        /* \"#utility.yul\":6043:6109   */\n      swap1\n      pop\n        /* \"#utility.yul\":5973:6115   */\n      swap2\n      swap1\n      pop\n      jump\t// out\n        /* \"#utility.yul\":6121:6196   */\n    tag_66:\n        /* \"#utility.yul\":6164:6167   */\n      0x00\n        /* \"#utility.yul\":6185:6190   */\n      dup2\n        /* \"#utility.yul\":6178:6190   */\n      swap1\n      pop\n        /* \"#utility.yul\":6121:6196   */\n      swap2\n      swap1\n      pop\n      jump\t// out\n        /* \"#utility.yul\":6202:6471   */\n    tag_67:\n        /* \"#utility.yul\":6312:6351   */\n      tag_144\n        /* \"#utility.yul\":6343:6350   */\n      dup4\n        /* \"#utility.yul\":6312:6351   */\n      tag_65\n      jump\t// in\n    tag_144:\n        /* \"#utility.yul\":6373:6464   */\n      tag_145\n        /* \"#utility.yul\":6422:6463   */\n      tag_146\n        /* \"#utility.yul\":6446:6462   */\n      dup3\n        /* \"#utility.yul\":6422:6463   */\n      tag_66\n      jump\t// in\n    tag_146:\n        /* \"#utility.yul\":6414:6420   */\n      dup5\n        /* \"#utility.yul\":6407:6411   */\n      dup5\n        /* \"#utility.yul\":6401:6412   */\n      sload\n        /* \"#utility.yul\":6373:6464   */\n      tag_63\n      jump\t// in\n    tag_145:\n        /* \"#utility.yul\":6367:6371   */\n      dup3\n        /* \"#utility.yul\":6360:6465   */\n      sstore\n        /* \"#utility.yul\":6278:6471   */\n      pop\n        /* \"#utility.yul\":6202:6471   */\n      pop\n      pop\n      pop\n      jump\t// out\n        /* \"#utility.yul\":6477:6550   */\n    tag_68:\n        /* \"#utility.yul\":6522:6525   */\n      0x00\n        /* \"#utility.yul\":6477:6550   */\n      swap1\n      jump\t// out\n        /* \"#utility.yul\":6556:6745   */\n    tag_69:\n        /* \"#utility.yul\":6633:6665   */\n      tag_149\n      tag_68\n      jump\t// in\n    tag_149:\n        /* \"#utility.yul\":6674:6739   */\n      tag_150\n        /* \"#utility.yul\":6732:6738   */\n      dup2\n        /* \"#utility.yul\":6724:6730   */\n      dup5\n        /* \"#utility.yul\":6718:6722   */\n      dup5\n        /* \"#utility.yul\":6674:6739   */\n      tag_67\n      jump\t// in\n    tag_150:\n        /* \"#utility.yul\":6609:6745   */\n      pop\n        /* \"#utility.yul\":6556:6745   */\n      pop\n      pop\n      jump\t// out\n        /* \"#utility.yul\":6751:6937   */\n    tag_70:\n        /* \"#utility.yul\":6811:6931   */\n    tag_152:\n        /* \"#utility.yul\":6828:6831   */\n      dup2\n        /* \"#utility.yul\":6821:6826   */\n      dup2\n        /* \"#utility.yul\":6818:6832   */\n      lt\n        /* \"#utility.yul\":6811:6931   */\n      iszero\n      tag_154\n      jumpi\n        /* \"#utility.yul\":6882:6921   */\n      tag_155\n        /* \"#utility.yul\":6919:6920   */\n      0x00\n        /* \"#utility.yul\":6912:6917   */\n      dup3\n        /* \"#utility.yul\":6882:6921   */\n      tag_69\n      jump\t// in\n    tag_155:\n        /* \"#utility.yul\":6855:6856   */\n      0x01\n        /* \"#utility.yul\":6848:6853   */\n      dup2\n        /* \"#utility.yul\":6844:6857   */\n      add\n        /* \"#utility.yul\":6835:6857   */\n      swap1\n      pop\n        /* \"#utility.yul\":6811:6931   */\n      jump(tag_152)\n    tag_154:\n        /* \"#utility.yul\":6751:6937   */\n      pop\n      pop\n      jump\t// out\n        /* \"#utility.yul\":6943:7486   */\n    tag_71:\n        /* \"#utility.yul\":7044:7046   */\n      0x1f\n        /* \"#utility.yul\":7039:7042   */\n      dup3\n        /* \"#utility.yul\":7036:7047   */\n      gt\n        /* \"#utility.yul\":7033:7479   */\n      iszero\n      tag_157\n      jumpi\n        /* \"#utility.yul\":7078:7116   */\n      tag_158\n        /* \"#utility.yul\":7110:7115   */\n      dup2\n        /* \"#utility.yul\":7078:7116   */\n      tag_60\n      jump\t// in\n    tag_158:\n        /* \"#utility.yul\":7162:7191   */\n      tag_159\n        /* \"#utility.yul\":7180:7190   */\n      dup5\n        /* \"#utility.yul\":7162:7191   */\n      tag_61\n      jump\t// in\n    tag_159:\n        /* \"#utility.yul\":7152:7160   */\n      dup2\n        /* \"#utility.yul\":7148:7192   */\n      add\n        /* \"#utility.yul\":7345:7347   */\n      0x20\n        /* \"#utility.yul\":7333:7343   */\n      dup6\n        /* \"#utility.yul\":7330:7348   */\n      lt\n        /* \"#utility.yul\":7327:7376   */\n      iszero\n      tag_160\n      jumpi\n        /* \"#utility.yul\":7366:7374   */\n      dup2\n        /* \"#utility.yul\":7351:7374   */\n      swap1\n      pop\n        /* \"#utility.yul\":7327:7376   */\n    tag_160:\n        /* \"#utility.yul\":7389:7469   */\n      tag_161\n        /* \"#utility.yul\":7445:7467   */\n      tag_162\n        /* \"#utility.yul\":7463:7466   */\n      dup6\n        /* \"#utility.yul\":7445:7467   */\n      tag_61\n      jump\t// in\n    tag_162:\n        /* \"#utility.yul\":7435:7443   */\n      dup4\n        /* \"#utility.yul\":7431:7468   */\n      add\n        /* \"#utility.yul\":7418:7429   */\n      dup3\n        /* \"#utility.yul\":7389:7469   */\n      tag_70\n      jump\t// in\n    tag_161:\n        /* \"#utility.yul\":7048:7479   */\n      pop\n      pop\n        /* \"#utility.yul\":7033:7479   */\n    tag_157:\n        /* \"#utility.yul\":6943:7486   */\n      pop\n      pop\n      pop\n      jump\t// out\n        /* \"#utility.yul\":7492:7609   */\n    tag_72:\n        /* \"#utility.yul\":7546:7554   */\n      0x00\n        /* \"#utility.yul\":7596:7601   */\n      dup3\n        /* \"#utility.yul\":7590:7594   */\n      dup3\n        /* \"#utility.yul\":7586:7602   */\n      shr\n        /* \"#utility.yul\":7565:7602   */\n      swap1\n      pop\n        /* \"#utility.yul\":7492:7609   */\n      swap3\n      swap2\n      pop\n      pop\n      jump\t// out\n        /* \"#utility.yul\":7615:7784   */\n    tag_73:\n        /* \"#utility.yul\":7659:7665   */\n      0x00\n        /* \"#utility.yul\":7692:7743   */\n      tag_165\n        /* \"#utility.yul\":7740:7741   */\n      0x00\n        /* \"#utility.yul\":7736:7742   */\n      not\n        /* \"#utility.yul\":7728:7733   */\n      dup5\n        /* \"#utility.yul\":7725:7726   */\n      0x08\n        /* \"#utility.yul\":7721:7734   */\n      mul\n        /* \"#utility.yul\":7692:7743   */\n      tag_72\n      jump\t// in\n    tag_165:\n        /* \"#utility.yul\":7688:7744   */\n      not\n        /* \"#utility.yul\":7773:7777   */\n      dup1\n        /* \"#utility.yul\":7767:7771   */\n      dup4\n        /* \"#utility.yul\":7763:7778   */\n      and\n        /* \"#utility.yul\":7753:7778   */\n      swap2\n      pop\n        /* \"#utility.yul\":7666:7784   */\n      pop\n        /* \"#utility.yul\":7615:7784   */\n      swap3\n      swap2\n      pop\n      pop\n      jump\t// out\n        /* \"#utility.yul\":7789:8084   */\n    tag_74:\n        /* \"#utility.yul\":7865:7869   */\n      0x00\n        /* \"#utility.yul\":8011:8040   */\n      tag_167\n        /* \"#utility.yul\":8036:8039   */\n      dup4\n        /* \"#utility.yul\":8030:8034   */\n      dup4\n        /* \"#utility.yul\":8011:8040   */\n      tag_73\n      jump\t// in\n    tag_167:\n        /* \"#utility.yul\":8003:8040   */\n      swap2\n      pop\n        /* \"#utility.yul\":8073:8076   */\n      dup3\n        /* \"#utility.yul\":8070:8071   */\n      0x02\n        /* \"#utility.yul\":8066:8077   */\n      mul\n        /* \"#utility.yul\":8060:8064   */\n      dup3\n        /* \"#utility.yul\":8057:8078   */\n      or\n        /* \"#utility.yul\":8049:8078   */\n      swap1\n      pop\n        /* \"#utility.yul\":7789:8084   */\n      swap3\n      swap2\n      pop\n      pop\n      jump\t// out\n        /* \"#utility.yul\":8089:9484   */\n    tag_41:\n        /* \"#utility.yul\":8206:8243   */\n      tag_169\n        /* \"#utility.yul\":8239:8242   */\n      dup3\n        /* \"#utility.yul\":8206:8243   */\n      tag_49\n      jump\t// in\n    tag_169:\n        /* \"#utility.yul\":8308:8326   */\n      0xffffffffffffffff\n        /* \"#utility.yul\":8300:8306   */\n      dup2\n        /* \"#utility.yul\":8297:8327   */\n      gt\n        /* \"#utility.yul\":8294:8350   */\n      iszero\n      tag_170\n      jumpi\n        /* \"#utility.yul\":8330:8348   */\n      tag_171\n      tag_59\n      jump\t// in\n    tag_171:\n        /* \"#utility.yul\":8294:8350   */\n    tag_170:\n        /* \"#utility.yul\":8374:8412   */\n      tag_172\n        /* \"#utility.yul\":8406:8410   */\n      dup3\n        /* \"#utility.yul\":8400:8411   */\n      sload\n        /* \"#utility.yul\":8374:8412   */\n      tag_31\n      jump\t// in\n    tag_172:\n        /* \"#utility.yul\":8459:8526   */\n      tag_173\n        /* \"#utility.yul\":8519:8525   */\n      dup3\n        /* \"#utility.yul\":8511:8517   */\n      dup3\n        /* \"#utility.yul\":8505:8509   */\n      dup6\n        /* \"#utility.yul\":8459:8526   */\n      tag_71\n      jump\t// in\n    tag_173:\n        /* \"#utility.yul\":8553:8554   */\n      0x00\n        /* \"#utility.yul\":8577:8581   */\n      0x20\n        /* \"#utility.yul\":8564:8581   */\n      swap1\n      pop\n        /* \"#utility.yul\":8609:8611   */\n      0x1f\n        /* \"#utility.yul\":8601:8607   */\n      dup4\n        /* \"#utility.yul\":8598:8612   */\n      gt\n        /* \"#utility.yul\":8626:8627   */\n      0x01\n        /* \"#utility.yul\":8621:9239   */\n      dup2\n      eq\n      tag_175\n      jumpi\n        /* \"#utility.yul\":9283:9284   */\n      0x00\n        /* \"#utility.yul\":9300:9306   */\n      dup5\n        /* \"#utility.yul\":9297:9374   */\n      iszero\n      tag_176\n      jumpi\n        /* \"#utility.yul\":9349:9358   */\n      dup3\n        /* \"#utility.yul\":9344:9347   */\n      dup8\n        /* \"#utility.yul\":9340:9359   */\n      add\n        /* \"#utility.yul\":9334:9360   */\n      mload\n        /* \"#utility.yul\":9325:9360   */\n      swap1\n      pop\n        /* \"#utility.yul\":9297:9374   */\n    tag_176:\n        /* \"#utility.yul\":9400:9467   */\n      tag_177\n        /* \"#utility.yul\":9460:9466   */\n      dup6\n        /* \"#utility.yul\":9453:9458   */\n      dup3\n        /* \"#utility.yul\":9400:9467   */\n      tag_74\n      jump\t// in\n    tag_177:\n        /* \"#utility.yul\":9394:9398   */\n      dup7\n        /* \"#utility.yul\":9387:9468   */\n      sstore\n        /* \"#utility.yul\":9256:9478   */\n      pop\n        /* \"#utility.yul\":8591:9478   */\n      jump(tag_174)\n        /* \"#utility.yul\":8621:9239   */\n    tag_175:\n        /* \"#utility.yul\":8673:8677   */\n      0x1f\n        /* \"#utility.yul\":8669:8678   */\n      not\n        /* \"#utility.yul\":8661:8667   */\n      dup5\n        /* \"#utility.yul\":8657:8679   */\n      and\n        /* \"#utility.yul\":8707:8744   */\n      tag_178\n        /* \"#utility.yul\":8739:8743   */\n      dup7\n        /* \"#utility.yul\":8707:8744   */\n      tag_60\n      jump\t// in\n    tag_178:\n        /* \"#utility.yul\":8766:8767   */\n      0x00\n        /* \"#utility.yul\":8780:8988   */\n    tag_179:\n        /* \"#utility.yul\":8794:8801   */\n      dup3\n        /* \"#utility.yul\":8791:8792   */\n      dup2\n        /* \"#utility.yul\":8788:8802   */\n      lt\n        /* \"#utility.yul\":8780:8988   */\n      iszero\n      tag_181\n      jumpi\n        /* \"#utility.yul\":8873:8882   */\n      dup5\n        /* \"#utility.yul\":8868:8871   */\n      dup10\n        /* \"#utility.yul\":8864:8883   */\n      add\n        /* \"#utility.yul\":8858:8884   */\n      mload\n        /* \"#utility.yul\":8850:8856   */\n      dup3\n        /* \"#utility.yul\":8843:8885   */\n      sstore\n        /* \"#utility.yul\":8924:8925   */\n      0x01\n        /* \"#utility.yul\":8916:8922   */\n      dup3\n        /* \"#utility.yul\":8912:8926   */\n      add\n        /* \"#utility.yul\":8902:8926   */\n      swap2\n      pop\n        /* \"#utility.yul\":8971:8973   */\n      0x20\n        /* \"#utility.yul\":8960:8969   */\n      dup6\n        /* \"#utility.yul\":8956:8974   */\n      add\n        /* \"#utility.yul\":8943:8974   */\n      swap5\n      pop\n        /* \"#utility.yul\":8817:8821   */\n      0x20\n        /* \"#utility.yul\":8814:8815   */\n      dup2\n        /* \"#utility.yul\":8810:8822   */\n      add\n        /* \"#utility.yul\":8805:8822   */\n      swap1\n      pop\n        /* \"#utility.yul\":8780:8988   */\n      jump(tag_179)\n    tag_181:\n        /* \"#utility.yul\":9016:9022   */\n      dup7\n        /* \"#utility.yul\":9007:9014   */\n      dup4\n        /* \"#utility.yul\":9004:9023   */\n      lt\n        /* \"#utility.yul\":9001:9180   */\n      iszero\n      tag_182\n      jumpi\n        /* \"#utility.yul\":9074:9083   */\n      dup5\n        /* \"#utility.yul\":9069:9072   */\n      dup10\n        /* \"#utility.yul\":9065:9084   */\n      add\n        /* \"#utility.yul\":9059:9085   */\n      mload\n        /* \"#utility.yul\":9117:9165   */\n      tag_183\n        /* \"#utility.yul\":9159:9163   */\n      0x1f\n        /* \"#utility.yul\":9151:9157   */\n      dup10\n        /* \"#utility.yul\":9147:9164   */\n      and\n        /* \"#utility.yul\":9136:9145   */\n      dup3\n        /* \"#utility.yul\":9117:9165   */\n      tag_73\n      jump\t// in\n    tag_183:\n        /* \"#utility.yul\":9109:9115   */\n      dup4\n        /* \"#utility.yul\":9102:9166   */\n      sstore\n        /* \"#utility.yul\":9024:9180   */\n      pop\n        /* \"#utility.yul\":9001:9180   */\n    tag_182:\n        /* \"#utility.yul\":9226:9227   */\n      0x01\n        /* \"#utility.yul\":9222:9223   */\n      0x02\n        /* \"#utility.yul\":9214:9220   */\n      dup9\n        /* \"#utility.yul\":9210:9224   */\n      mul\n        /* \"#utility.yul\":9206:9228   */\n      add\n        /* \"#utility.yul\":9200:9204   */\n      dup9\n        /* \"#utility.yul\":9193:9229   */\n      sstore\n        /* \"#utility.yul\":8628:9239   */\n      pop\n      pop\n      pop\n        /* \"#utility.yul\":8591:9478   */\n    tag_174:\n      pop\n        /* \"#utility.yul\":8181:9484   */\n      pop\n      pop\n      pop\n        /* \"#utility.yul\":8089:9484   */\n      pop\n      pop\n      jump\t// out\n\n    auxdata: 0xa264697066735822122079544e616e27048dfb9bdc80d1b64e17dcf19445e22cc71c604c43fcf82d6fef64736f6c63430008130033\n}\n",
				"bytecode": {
					"linkReferences": {},
					"object": "608060405234801561001057600080fd5b506107e0806100206000396000f3fe608060405234801561001057600080fd5b50600436106100575760003560e01c8063471f7cdf1461005c5780635f65a5d71461007a5780636057361d146100ab578063a6b7fc5b146100c7578063bc832d4e146100e5575b600080fd5b610064610101565b604051610071919061029a565b60405180910390f35b610094600480360381019061008f91906102eb565b610107565b6040516100a29291906103a8565b60405180910390f35b6100c560048036038101906100c091906102eb565b6101c3565b005b6100cf6101cd565b6040516100dc919061029a565b60405180910390f35b6100ff60048036038101906100fa919061043d565b6101d6565b005b60005481565b6001818154811061011757600080fd5b9060005260206000209060020201600091509050806000015490806001018054610140906104cc565b80601f016020809104026020016040519081016040528092919081815260200182805461016c906104cc565b80156101b95780601f1061018e576101008083540402835291602001916101b9565b820191906000526020600020905b81548152906001019060200180831161019c57829003601f168201915b5050505050905082565b8060008190555050565b60008054905090565b6001604051806040016040528085815260200184848080601f016020809104026020016040519081016040528093929190818152602001838380828437600081840152601f19601f82011690508083019250505050505050815250908060018154018082558091505060019003906000526020600020906002020160009091909190915060008201518160000155602082015181600101908161027991906106d8565b505050505050565b6000819050919050565b61029481610281565b82525050565b60006020820190506102af600083018461028b565b92915050565b600080fd5b600080fd5b6102c881610281565b81146102d357600080fd5b50565b6000813590506102e5816102bf565b92915050565b600060208284031215610301576103006102b5565b5b600061030f848285016102d6565b91505092915050565b600081519050919050565b600082825260208201905092915050565b60005b83811015610352578082015181840152602081019050610337565b60008484015250505050565b6000601f19601f8301169050919050565b600061037a82610318565b6103848185610323565b9350610394818560208601610334565b61039d8161035e565b840191505092915050565b60006040820190506103bd600083018561028b565b81810360208301526103cf818461036f565b90509392505050565b600080fd5b600080fd5b600080fd5b60008083601f8401126103fd576103fc6103d8565b5b8235905067ffffffffffffffff81111561041a576104196103dd565b5b602083019150836001820283011115610436576104356103e2565b5b9250929050565b600080600060408486031215610456576104556102b5565b5b6000610464868287016102d6565b935050602084013567ffffffffffffffff811115610485576104846102ba565b5b610491868287016103e7565b92509250509250925092565b7f4e487b7100000000000000000000000000000000000000000000000000000000600052602260045260246000fd5b600060028204905060018216806104e457607f821691505b6020821081036104f7576104f661049d565b5b50919050565b7f4e487b7100000000000000000000000000000000000000000000000000000000600052604160045260246000fd5b60008190508160005260206000209050919050565b60006020601f8301049050919050565b600082821b905092915050565b60006008830261058e7fffffffffffffffffffffffffffffffffffffffffffffffffffffffffffffffff82610551565b6105988683610551565b95508019841693508086168417925050509392505050565b6000819050919050565b60006105d56105d06105cb84610281565b6105b0565b610281565b9050919050565b6000819050919050565b6105ef836105ba565b6106036105fb826105dc565b84845461055e565b825550505050565b600090565b61061861060b565b6106238184846105e6565b505050565b5b818110156106475761063c600082610610565b600181019050610629565b5050565b601f82111561068c5761065d8161052c565b61066684610541565b81016020851015610675578190505b61068961068185610541565b830182610628565b50505b505050565b600082821c905092915050565b60006106af60001984600802610691565b1980831691505092915050565b60006106c8838361069e565b9150826002028217905092915050565b6106e182610318565b67ffffffffffffffff8111156106fa576106f96104fd565b5b61070482546104cc565b61070f82828561064b565b600060209050601f8311600181146107425760008415610730578287015190505b61073a85826106bc565b8655506107a2565b601f1984166107508661052c565b60005b8281101561077857848901518255600182019150602085019450602081019050610753565b868310156107955784890151610791601f89168261069e565b8355505b6001600288020188555050505b50505050505056fea264697066735822122079544e616e27048dfb9bdc80d1b64e17dcf19445e22cc71c604c43fcf82d6fef64736f6c63430008130033",
					"opcodes": "PUSH1 0x80 PUSH1 0x40 MSTORE CALLVALUE DUP1 ISZERO PUSH2 0x10 JUMPI PUSH1 0x0 DUP1 REVERT JUMPDEST POP PUSH2 0x7E0 DUP1 PUSH2 0x20 PUSH1 0x0 CODECOPY PUSH1 0x0 RETURN INVALID PUSH1 0x80 PUSH1 0x40 MSTORE CALLVALUE DUP1 ISZERO PUSH2 0x10 JUMPI PUSH1 0x0 DUP1 REVERT JUMPDEST POP PUSH1 0x4 CALLDATASIZE LT PUSH2 0x57 JUMPI PUSH1 0x0 CALLDATALOAD PUSH1 0xE0 SHR DUP1 PUSH4 0x471F7CDF EQ PUSH2 0x5C JUMPI DUP1 PUSH4 0x5F65A5D7 EQ PUSH2 0x7A JUMPI DUP1 PUSH4 0x6057361D EQ PUSH2 0xAB JUMPI DUP1 PUSH4 0xA6B7FC5B EQ PUSH2 0xC7 JUMPI DUP1 PUSH4 0xBC832D4E EQ PUSH2 0xE5 JUMPI JUMPDEST PUSH1 0x0 DUP1 REVERT JUMPDEST PUSH2 0x64 PUSH2 0x101 JUMP JUMPDEST PUSH1 0x40 MLOAD PUSH2 0x71 SWAP2 SWAP1 PUSH2 0x29A JUMP JUMPDEST PUSH1 0x40 MLOAD DUP1 SWAP2 SUB SWAP1 RETURN JUMPDEST PUSH2 0x94 PUSH1 0x4 DUP1 CALLDATASIZE SUB DUP2 ADD SWAP1 PUSH2 0x8F SWAP2 SWAP1 PUSH2 0x2EB JUMP JUMPDEST PUSH2 0x107 JUMP JUMPDEST PUSH1 0x40 MLOAD PUSH2 0xA2 SWAP3 SWAP2 SWAP1 PUSH2 0x3A8 JUMP JUMPDEST PUSH1 0x40 MLOAD DUP1 SWAP2 SUB SWAP1 RETURN JUMPDEST PUSH2 0xC5 PUSH1 0x4 DUP1 CALLDATASIZE SUB DUP2 ADD SWAP1 PUSH2 0xC0 SWAP2 SWAP1 PUSH2 0x2EB JUMP JUMPDEST PUSH2 0x1C3 JUMP JUMPDEST STOP JUMPDEST PUSH2 0xCF PUSH2 0x1CD JUMP JUMPDEST PUSH1 0x40 MLOAD PUSH2 0xDC SWAP2 SWAP1 PUSH2 0x29A JUMP JUMPDEST PUSH1 0x40 MLOAD DUP1 SWAP2 SUB SWAP1 RETURN JUMPDEST PUSH2 0xFF PUSH1 0x4 DUP1 CALLDATASIZE SUB DUP2 ADD SWAP1 PUSH2 0xFA SWAP2 SWAP1 PUSH2 0x43D JUMP JUMPDEST PUSH2 0x1D6 JUMP JUMPDEST STOP JUMPDEST PUSH1 0x0 SLOAD DUP2 JUMP JUMPDEST PUSH1 0x1 DUP2 DUP2 SLOAD DUP2 LT PUSH2 0x117 JUMPI PUSH1 0x0 DUP1 REVERT JUMPDEST SWAP1 PUSH1 0x0 MSTORE PUSH1 0x20 PUSH1 0x0 KECCAK256 SWAP1 PUSH1 0x2 MUL ADD PUSH1 0x0 SWAP2 POP SWAP1 POP DUP1 PUSH1 0x0 ADD SLOAD SWAP1 DUP1 PUSH1 0x1 ADD DUP1 SLOAD PUSH2 0x140 SWAP1 PUSH2 0x4CC JUMP JUMPDEST DUP1 PUSH1 0x1F ADD PUSH1 0x20 DUP1 SWAP2 DIV MUL PUSH1 0x20 ADD PUSH1 0x40 MLOAD SWAP1 DUP2 ADD PUSH1 0x40 MSTORE DUP1 SWAP3 SWAP2 SWAP1 DUP2 DUP2 MSTORE PUSH1 0x20 ADD DUP3 DUP1 SLOAD PUSH2 0x16C SWAP1 PUSH2 0x4CC JUMP JUMPDEST DUP1 ISZERO PUSH2 0x1B9 JUMPI DUP1 PUSH1 0x1F LT PUSH2 0x18E JUMPI PUSH2 0x100 DUP1 DUP4 SLOAD DIV MUL DUP4 MSTORE SWAP2 PUSH1 0x20 ADD SWAP2 PUSH2 0x1B9 JUMP JUMPDEST DUP3 ADD SWAP2 SWAP1 PUSH1 0x0 MSTORE PUSH1 0x20 PUSH1 0x0 KECCAK256 SWAP1 JUMPDEST DUP2 SLOAD DUP2 MSTORE SWAP1 PUSH1 0x1 ADD SWAP1 PUSH1 0x20 ADD DUP1 DUP4 GT PUSH2 0x19C JUMPI DUP3 SWAP1 SUB PUSH1 0x1F AND DUP3 ADD SWAP2 JUMPDEST POP POP POP POP POP SWAP1 POP DUP3 JUMP JUMPDEST DUP1 PUSH1 0x0 DUP2 SWAP1 SSTORE POP POP JUMP JUMPDEST PUSH1 0x0 DUP1 SLOAD SWAP1 POP SWAP1 JUMP JUMPDEST PUSH1 0x1 PUSH1 0x40 MLOAD DUP1 PUSH1 0x40 ADD PUSH1 0x40 MSTORE DUP1 DUP6 DUP2 MSTORE PUSH1 0x20 ADD DUP5 DUP5 DUP1 DUP1 PUSH1 0x1F ADD PUSH1 0x20 DUP1 SWAP2 DIV MUL PUSH1 0x20 ADD PUSH1 0x40 MLOAD SWAP1 DUP2 ADD PUSH1 0x40 MSTORE DUP1 SWAP4 SWAP3 SWAP2 SWAP1 DUP2 DUP2 MSTORE PUSH1 0x20 ADD DUP4 DUP4 DUP1 DUP3 DUP5 CALLDATACOPY PUSH1 0x0 DUP2 DUP5 ADD MSTORE PUSH1 0x1F NOT PUSH1 0x1F DUP3 ADD AND SWAP1 POP DUP1 DUP4 ADD SWAP3 POP POP POP POP POP POP POP DUP2 MSTORE POP SWAP1 DUP1 PUSH1 0x1 DUP2 SLOAD ADD DUP1 DUP3 SSTORE DUP1 SWAP2 POP POP PUSH1 0x1 SWAP1 SUB SWAP1 PUSH1 0x0 MSTORE PUSH1 0x20 PUSH1 0x0 KECCAK256 SWAP1 PUSH1 0x2 MUL ADD PUSH1 0x0 SWAP1 SWAP2 SWAP1 SWAP2 SWAP1 SWAP2 POP PUSH1 0x0 DUP3 ADD MLOAD DUP2 PUSH1 0x0 ADD SSTORE PUSH1 0x20 DUP3 ADD MLOAD DUP2 PUSH1 0x1 ADD SWAP1 DUP2 PUSH2 0x279 SWAP2 SWAP1 PUSH2 0x6D8 JUMP JUMPDEST POP POP POP POP POP POP JUMP JUMPDEST PUSH1 0x0 DUP2 SWAP1 POP SWAP2 SWAP1 POP JUMP JUMPDEST PUSH2 0x294 DUP2 PUSH2 0x281 JUMP JUMPDEST DUP3 MSTORE POP POP JUMP JUMPDEST PUSH1 0x0 PUSH1 0x20 DUP3 ADD SWAP1 POP PUSH2 0x2AF PUSH1 0x0 DUP4 ADD DUP5 PUSH2 0x28B JUMP JUMPDEST SWAP3 SWAP2 POP POP JUMP JUMPDEST PUSH1 0x0 DUP1 REVERT JUMPDEST PUSH1 0x0 DUP1 REVERT JUMPDEST PUSH2 0x2C8 DUP2 PUSH2 0x281 JUMP JUMPDEST DUP2 EQ PUSH2 0x2D3 JUMPI PUSH1 0x0 DUP1 REVERT JUMPDEST POP JUMP JUMPDEST PUSH1 0x0 DUP2 CALLDATALOAD SWAP1 POP PUSH2 0x2E5 DUP2 PUSH2 0x2BF JUMP JUMPDEST SWAP3 SWAP2 POP POP JUMP JUMPDEST PUSH1 0x0 PUSH1 0x20 DUP3 DUP5 SUB SLT ISZERO PUSH2 0x301 JUMPI PUSH2 0x300 PUSH2 0x2B5 JUMP JUMPDEST JUMPDEST PUSH1 0x0 PUSH2 0x30F DUP5 DUP3 DUP6 ADD PUSH2 0x2D6 JUMP JUMPDEST SWAP2 POP POP SWAP3 SWAP2 POP POP JUMP JUMPDEST PUSH1 0x0 DUP2 MLOAD SWAP1 POP SWAP2 SWAP1 POP JUMP JUMPDEST PUSH1 0x0 DUP3 DUP3 MSTORE PUSH1 0x20 DUP3 ADD SWAP1 POP SWAP3 SWAP2 POP POP JUMP JUMPDEST PUSH1 0x0 JUMPDEST DUP4 DUP2 LT ISZERO PUSH2 0x352 JUMPI DUP1 DUP3 ADD MLOAD DUP2 DUP5 ADD MSTORE PUSH1 0x20 DUP2 ADD SWAP1 POP PUSH2 0x337 JUMP JUMPDEST PUSH1 0x0 DUP5 DUP5 ADD MSTORE POP POP POP POP JUMP JUMPDEST PUSH1 0x0 PUSH1 0x1F NOT PUSH1 0x1F DUP4 ADD AND SWAP1 POP SWAP2 SWAP1 POP JUMP JUMPDEST PUSH1 0x0 PUSH2 0x37A DUP3 PUSH2 0x318 JUMP JUMPDEST PUSH2 0x384 DUP2 DUP6 PUSH2 0x323 JUMP JUMPDEST SWAP4 POP PUSH2 0x394 DUP2 DUP6 PUSH1 0x20 DUP7 ADD PUSH2 0x334 JUMP JUMPDEST PUSH2 0x39D DUP2 PUSH2 0x35E JUMP JUMPDEST DUP5 ADD SWAP2 POP POP SWAP3 SWAP2 POP POP JUMP JUMPDEST PUSH1 0x0 PUSH1 0x40 DUP3 ADD SWAP1 POP PUSH2 0x3BD PUSH1 0x0 DUP4 ADD DUP6 PUSH2 0x28B JUMP JUMPDEST DUP2 DUP2 SUB PUSH1 0x20 DUP4 ADD MSTORE PUSH2 0x3CF DUP2 DUP5 PUSH2 0x36F JUMP JUMPDEST SWAP1 POP SWAP4 SWAP3 POP POP POP JUMP JUMPDEST PUSH1 0x0 DUP1 REVERT JUMPDEST PUSH1 0x0 DUP1 REVERT JUMPDEST PUSH1 0x0 DUP1 REVERT JUMPDEST PUSH1 0x0 DUP1 DUP4 PUSH1 0x1F DUP5 ADD SLT PUSH2 0x3FD JUMPI PUSH2 0x3FC PUSH2 0x3D8 JUMP JUMPDEST JUMPDEST DUP3 CALLDATALOAD SWAP1 POP PUSH8 0xFFFFFFFFFFFFFFFF DUP2 GT ISZERO PUSH2 0x41A JUMPI PUSH2 0x419 PUSH2 0x3DD JUMP JUMPDEST JUMPDEST PUSH1 0x20 DUP4 ADD SWAP2 POP DUP4 PUSH1 0x1 DUP3 MUL DUP4 ADD GT ISZERO PUSH2 0x436 JUMPI PUSH2 0x435 PUSH2 0x3E2 JUMP JUMPDEST JUMPDEST SWAP3 POP SWAP3 SWAP1 POP JUMP JUMPDEST PUSH1 0x0 DUP1 PUSH1 0x0 PUSH1 0x40 DUP5 DUP7 SUB SLT ISZERO PUSH2 0x456 JUMPI PUSH2 0x455 PUSH2 0x2B5 JUMP JUMPDEST JUMPDEST PUSH1 0x0 PUSH2 0x464 DUP7 DUP3 DUP8 ADD PUSH2 0x2D6 JUMP JUMPDEST SWAP4 POP POP PUSH1 0x20 DUP5 ADD CALLDATALOAD PUSH8 0xFFFFFFFFFFFFFFFF DUP2 GT ISZERO PUSH2 0x485 JUMPI PUSH2 0x484 PUSH2 0x2BA JUMP JUMPDEST JUMPDEST PUSH2 0x491 DUP7 DUP3 DUP8 ADD PUSH2 0x3E7 JUMP JUMPDEST SWAP3 POP SWAP3 POP POP SWAP3 POP SWAP3 POP SWAP3 JUMP JUMPDEST PUSH32 0x4E487B7100000000000000000000000000000000000000000000000000000000 PUSH1 0x0 MSTORE PUSH1 0x22 PUSH1 0x4 MSTORE PUSH1 0x24 PUSH1 0x0 REVERT JUMPDEST PUSH1 0x0 PUSH1 0x2 DUP3 DIV SWAP1 POP PUSH1 0x1 DUP3 AND DUP1 PUSH2 0x4E4 JUMPI PUSH1 0x7F DUP3 AND SWAP2 POP JUMPDEST PUSH1 0x20 DUP3 LT DUP2 SUB PUSH2 0x4F7 JUMPI PUSH2 0x4F6 PUSH2 0x49D JUMP JUMPDEST JUMPDEST POP SWAP2 SWAP1 POP JUMP JUMPDEST PUSH32 0x4E487B7100000000000000000000000000000000000000000000000000000000 PUSH1 0x0 MSTORE PUSH1 0x41 PUSH1 0x4 MSTORE PUSH1 0x24 PUSH1 0x0 REVERT JUMPDEST PUSH1 0x0 DUP2 SWAP1 POP DUP2 PUSH1 0x0 MSTORE PUSH1 0x20 PUSH1 0x0 KECCAK256 SWAP1 POP SWAP2 SWAP1 POP JUMP JUMPDEST PUSH1 0x0 PUSH1 0x20 PUSH1 0x1F DUP4 ADD DIV SWAP1 POP SWAP2 SWAP1 POP JUMP JUMPDEST PUSH1 0x0 DUP3 DUP3 SHL SWAP1 POP SWAP3 SWAP2 POP POP JUMP JUMPDEST PUSH1 0x0 PUSH1 0x8 DUP4 MUL PUSH2 0x58E PUSH32 0xFFFFFFFFFFFFFFFFFFFFFFFFFFFFFFFFFFFFFFFFFFFFFFFFFFFFFFFFFFFFFFFF DUP3 PUSH2 0x551 JUMP JUMPDEST PUSH2 0x598 DUP7 DUP4 PUSH2 0x551 JUMP JUMPDEST SWAP6 POP DUP1 NOT DUP5 AND SWAP4 POP DUP1 DUP7 AND DUP5 OR SWAP3 POP POP POP SWAP4 SWAP3 POP POP POP JUMP JUMPDEST PUSH1 0x0 DUP2 SWAP1 POP SWAP2 SWAP1 POP JUMP JUMPDEST PUSH1 0x0 PUSH2 0x5D5 PUSH2 0x5D0 PUSH2 0x5CB DUP5 PUSH2 0x281 JUMP JUMPDEST PUSH2 0x5B0 JUMP JUMPDEST PUSH2 0x281 JUMP JUMPDEST SWAP1 POP SWAP2 SWAP1 POP JUMP JUMPDEST PUSH1 0x0 DUP2 SWAP1 POP SWAP2 SWAP1 POP JUMP JUMPDEST PUSH2 0x5EF DUP4 PUSH2 0x5BA JUMP JUMPDEST PUSH2 0x603 PUSH2 0x5FB DUP3 PUSH2 0x5DC JUMP JUMPDEST DUP5 DUP5 SLOAD PUSH2 0x55E JUMP JUMPDEST DUP3 SSTORE POP POP POP POP JUMP JUMPDEST PUSH1 0x0 SWAP1 JUMP JUMPDEST PUSH2 0x618 PUSH2 0x60B JUMP JUMPDEST PUSH2 0x623 DUP2 DUP5 DUP5 PUSH2 0x5E6 JUMP JUMPDEST POP POP POP JUMP JUMPDEST JUMPDEST DUP2 DUP2 LT ISZERO PUSH2 0x647 JUMPI PUSH2 0x63C PUSH1 0x0 DUP3 PUSH2 0x610 JUMP JUMPDEST PUSH1 0x1 DUP2 ADD SWAP1 POP PUSH2 0x629 JUMP JUMPDEST POP POP JUMP JUMPDEST PUSH1 0x1F DUP3 GT ISZERO PUSH2 0x68C JUMPI PUSH2 0x65D DUP2 PUSH2 0x52C JUMP JUMPDEST PUSH2 0x666 DUP5 PUSH2 0x541 JUMP JUMPDEST DUP2 ADD PUSH1 0x20 DUP6 LT ISZERO PUSH2 0x675 JUMPI DUP2 SWAP1 POP JUMPDEST PUSH2 0x689 PUSH2 0x681 DUP6 PUSH2 0x541 JUMP JUMPDEST DUP4 ADD DUP3 PUSH2 0x628 JUMP JUMPDEST POP POP JUMPDEST POP POP POP JUMP JUMPDEST PUSH1 0x0 DUP3 DUP3 SHR SWAP1 POP SWAP3 SWAP2 POP POP JUMP JUMPDEST PUSH1 0x0 PUSH2 0x6AF PUSH1 0x0 NOT DUP5 PUSH1 0x8 MUL PUSH2 0x691 JUMP JUMPDEST NOT DUP1 DUP4 AND SWAP2 POP POP SWAP3 SWAP2 POP POP JUMP JUMPDEST PUSH1 0x0 PUSH2 0x6C8 DUP4 DUP4 PUSH2 0x69E JUMP JUMPDEST SWAP2 POP DUP3 PUSH1 0x2 MUL DUP3 OR SWAP1 POP SWAP3 SWAP2 POP POP JUMP JUMPDEST PUSH2 0x6E1 DUP3 PUSH2 0x318 JUMP JUMPDEST PUSH8 0xFFFFFFFFFFFFFFFF DUP2 GT ISZERO PUSH2 0x6FA JUMPI PUSH2 0x6F9 PUSH2 0x4FD JUMP JUMPDEST JUMPDEST PUSH2 0x704 DUP3 SLOAD PUSH2 0x4CC JUMP JUMPDEST PUSH2 0x70F DUP3 DUP3 DUP6 PUSH2 0x64B JUMP JUMPDEST PUSH1 0x0 PUSH1 0x20 SWAP1 POP PUSH1 0x1F DUP4 GT PUSH1 0x1 DUP2 EQ PUSH2 0x742 JUMPI PUSH1 0x0 DUP5 ISZERO PUSH2 0x730 JUMPI DUP3 DUP8 ADD MLOAD SWAP1 POP JUMPDEST PUSH2 0x73A DUP6 DUP3 PUSH2 0x6BC JUMP JUMPDEST DUP7 SSTORE POP PUSH2 0x7A2 JUMP JUMPDEST PUSH1 0x1F NOT DUP5 AND PUSH2 0x750 DUP7 PUSH2 0x52C JUMP JUMPDEST PUSH1 0x0 JUMPDEST DUP3 DUP2 LT ISZERO PUSH2 0x778 JUMPI DUP5 DUP10 ADD MLOAD DUP3 SSTORE PUSH1 0x1 DUP3 ADD SWAP2 POP PUSH1 0x20 DUP6 ADD SWAP5 POP PUSH1 0x20 DUP2 ADD SWAP1 POP PUSH2 0x753 JUMP JUMPDEST DUP7 DUP4 LT ISZERO PUSH2 0x795 JUMPI DUP5 DUP10 ADD MLOAD PUSH2 0x791 PUSH1 0x1F DUP10 AND DUP3 PUSH2 0x69E JUMP JUMPDEST DUP4 SSTORE POP JUMPDEST PUSH1 0x1 PUSH1 0x2 DUP9 MUL ADD DUP9 SSTORE POP POP POP JUMPDEST POP POP POP POP POP POP JUMP INVALID LOG2 PUSH5 0x6970667358 0x22 SLT KECCAK256 PUSH26 0x544E616E27048DFB9BDC80D1B64E17DCF19445E22CC71C604C43 0xFC 0xF8 0x2D PUSH16 0xEF64736F6C6343000813003300000000 "
				},
				"gasEstimates": {
					"creation": {
						"codeDepositCost": "403200",
						"executionCost": "436",
						"totalCost": "403636"
					},
					"external": {
						"addPerson(uint256,string)": "infinite",
						"favoriteNumber()": "2407",
						"listPerson(uint256)": "infinite",
						"retrive()": "2481",
						"store(uint256)": "22542"
					}
				},
				"methodIdentifiers": {
					"addPerson(uint256,string)": "bc832d4e",
					"favoriteNumber()": "471f7cdf",
					"listPerson(uint256)": "5f65a5d7",
					"retrive()": "a6b7fc5b",
					"store(uint256)": "6057361d"
				}
			},
			"storageLayout": {
				"storage": [
					{
						"astId": 3,
						"contract": "SimpleStorage.sol:SimpleStorage",
						"label": "favoriteNumber",
						"offset": 0,
						"slot": "0",
						"type": "t_uint256"
					},
					{
						"astId": 12,
						"contract": "SimpleStorage.sol:SimpleStorage",
						"label": "listPerson",
						"offset": 0,
						"slot": "1",
						"type": "t_array(t_struct(Person)8_storage)dyn_storage"
					}
				],
				"types": {
					"t_array(t_struct(Person)8_storage)dyn_storage": {
						"base": "t_struct(Person)8_storage",
						"encoding": "dynamic_array",
						"label": "struct SimpleStorage.Person[]",
						"numberOfBytes": "32"
					},
					"t_string_storage": {
						"encoding": "bytes",
						"label": "string",
						"numberOfBytes": "32"
					},
					"t_struct(Person)8_storage": {
						"encoding": "inplace",
						"label": "struct SimpleStorage.Person",
						"members": [
							{
								"astId": 5,
								"contract": "SimpleStorage.sol:SimpleStorage",
								"label": "number",
								"offset": 0,
								"slot": "0",
								"type": "t_uint256"
							},
							{
								"astId": 7,
								"contract": "SimpleStorage.sol:SimpleStorage",
								"label": "name",
								"offset": 0,
								"slot": "1",
								"type": "t_string_storage"
							}
						],
						"numberOfBytes": "64"
					},
					"t_uint256": {
						"encoding": "inplace",
						"label": "uint256",
						"numberOfBytes": "32"
					}
				}
			},
			"userdoc": {
				"kind": "user",
				"methods": {},
				"version": 1
			}
		}
	}
}